:100000000C9410010C9438010C9438010C943801B4
:100010000C9438010C9438010C9438010C9438017C
:100020000C9438010C9438010C9438010C9438016C
:100030000C9438010C9438010C9438010C9438015C
:100040000C94C80D0C9438010C940B0A0C943D0AC6
:100050000C9438010C9438010C9438010C9438013C
:100060000C94B0020C94380173656E736F72206645
:1000700061696C0073656E736F72206661696C00F4
:1000800073656E736F72206661696C006661696C7E
:10009000656420746F2073656E642074656D70658F
:1000A000726174757265006661696C656420746F55
:1000B0002073656E642068756D69646974790000E9
:1000C000010203040500000008000201000003040F
:1000D000070000000000000000010204081020409A
:1000E0008001020408102001020408102004040406
:1000F00004040404040202020202020303030303D1
:100100000300000000230026002900000000002555
:100110000028002B0000000000240027002A000017
:10012000407A10F35A00A0724E18090010A5D4E8C6
:100130000000E87648170000E40B54020000CA9A59
:100140003B000000E1F505000080969800000040AB
:10015000420F000000A086010000001027000000F0
:1001600000E803000000006400000000000A000036
:100170000000000100000000002C76D888DC674FEA
:100180000823DFC1DFAE59E1B1B796E5E3E453C61A
:100190003AE651997696E8E6C28426EB898C9B6212
:1001A000ED407C6FFCEFBC9C9F40F2BAA56FA5F4BC
:1001B00090055A2AF75C936B6CF9676DC11BFCE0E4
:1001C000E40D47FEF520E6B500D0ED902E03009437
:1001D0003577050080841E080000204E0A000000CC
:1001E000C80C333333330F986E12831141EF8D21D6
:1001F00014893BE65516CFFEE6DB18D1844B381B3D
:10020000F77C1D901DA4BBE424203284725E228101
:1002100000C9F124ECA1E53D2700810274046D0AB8
:1002200011241FBECFEFD8E0DEBFCDBF12E0A0E0AB
:10023000B1E0E8E6FCE202C005900D92A036B107FD
:10024000D9F723E0A0E6B2E001C01D92AB3EB207B1
:10025000E1F712E0C0E2D2E004C02297FE010E9462
:100260007F11CA31D107C9F70E94B90D0C9432161B
:100270000C94000060ED77E080E090E00E94350E85
:1002800026E040E052EC61E070E081E493E00E94FF
:10029000A90962E171E081E493E00E94500B82E6DB
:1002A00092E00E943A0764E682E692E00E94CC0562
:1002B00063E271E081E493E00E94500B60E082E62B
:1002C00092E00E94DF0669E371E081E493E00E941E
:1002D000500B66E071E082E692E00E9463066EE4F5
:1002E00071E081E493E00E94500B82E692E00C946E
:1002F0009906CF93DF93CDB7DEB72C970FB6F8945E
:10030000DEBF0FBECDBF63E671E081E493E00E94E3
:10031000500B62E084E792E00E946608992787FD0F
:10032000909590936102809360026BE771E081E4A5
:1003300093E00E94500B80916002909161028F3F88
:100340002FEF920709F48FC0009721F0029609F071
:10035000AAC099C06FE871E081E493E00E94500B5D
:10036000409174025091750260917602709177020B
:1003700022E030E081E493E00E94F00C40917802AA
:100380005091790260917A0270917B0222E030E014
:1003900081E493E00E94F00C66EA71E081E493E06E
:1003A0000E94500B82E692E00E94D3056BEB71E055
:1003B00081E493E00E94500B4091780250917902C1
:1003C00060917A0270917B0222E0CE0107960E9432
:1003D000880D67ED71E081E493E00E94500B40913D
:1003E000740250917502609176027091770222E05A
:1003F000CE0101960E94880DBE016F5F7F4F81E4A0
:1004000093E00E943E0BBE01695F7F4F81E493E061
:100410000E943E0B46E0BE01695F7F4F82E692E09C
:100420000E946006811106C067EA70E081E493E0F3
:100430000E942C0B46E0BE016F5F7F4F82E692E088
:100440000E946006811106C06CE870E081E493E0D0
:100450000E942C0BCE0101960E94020DCE01079640
:100460000E94020D33C082E692E00E94D3054CE068
:1004700062E272E082E692E00E946006811126C08C
:1004800060E870E01FC082E692E00E94D3054CE075
:1004900062E272E082E692E00E946006811116C07C
:1004A00064E770E00FC082E692E00E94D3054CE062
:1004B00062E272E082E692E00E946006811106C06C
:1004C00068E670E081E493E00E942C0B62EF71E03B
:1004D00081E493E00E94500B68EB7BE080E090E0C9
:1004E0000E94350E60E072E081E493E00E94500BC0
:1004F0002C960FB6F894DEBF0FBECDBFDF91CF9123
:10050000089548E067E082E692E00C94C10561320C
:1005100098F42091EE02243089F46093A302FC0148
:1005200085EA92E0DC012A2F281B261718F4219176
:100530002D93F9CF80E0089581E0089582E0089539
:1005400085ED8093BC008091BC0084FDFCCF1092AF
:10055000EE02089585EC8093BC001092EE0208959F
:100560001F920F920FB60F9211242F933F934F9328
:100570005F936F937F938F939F93AF93BF93EF930B
:10058000FF938091B900887F803609F49CC068F59C
:10059000883209F45BC090F4803109F454C038F417
:1005A000882309F4F5C0883009F44DC0F5C08831BE
:1005B00009F44CC0803209F45DC0EEC0803409F407
:1005C00068C048F4803309F455C0883309F0E4C0AA
:1005D00080938102A8C0803509F44FC0883509F4A2
:1005E0005DC0883409F0D8C0D5C0883909F4C6C0C8
:1005F000A8F4883709F467C038F4883609F463C072
:10060000803709F460C0C8C0883809F4B7C08039A1
:1006100009F45FC0803809F0BFC05BC0803B09F4BB
:1006200085C038F4803A09F466C0883A09F47EC07F
:10063000B3C0803C09F4A6C0883C09F4A3C0883B41
:1006400009F489C0A9C08091ED0210C09091C60242
:100650008091C502981770F5E091C60281E08E0F77
:100660008093C602F0E0E953FD4F80818093BB0088
:1006700085EC85C0809381028DC0E091C60281E047
:100680008E0F8093C6028091BB00F0E0E953FD4FCE
:1006900080839091C6028091C5026DC0E091C60230
:1006A00081E08E0F8093C6028091BB00F0E0E95399
:1006B000FD4F80838091EC0281116CC081E08093BA
:1006C000EB0284EA60C083E08093EE021092820223
:1006D000CFCF80918202803208F050C0E091820238
:1006E00081E08E0F809382028091BB00F0E0ED5795
:1006F000FD4F8083BDCF80918202803230F4E09143
:100700008202F0E0ED57FD4F10820E94A00260913E
:10071000820270E0E091E702F091E80283E892E063
:100720000995109282020E94AA0236C084E080934A
:10073000EE021092A4021092A302E091E902F0915D
:10074000EA0209958091A302811105C081E080939E
:10075000A3021092A502E091A40281E08E0F809383
:10076000A402F0E0EB55FD4F80818093BB00909197
:10077000A4028091A302981708F47ACF85E88093A9
:10078000BC000AC085EC8093BC001092EE0204C04D
:10079000109281020E94A002FF91EF91BF91AF9150
:1007A0009F918F917F916F915F914F913F912F9189
:1007B0000F900FBE0F901F90189580911E0390E030
:1007C00020911F03821B9109089520911F0380919E
:1007D0001E03281750F4E22FF0E0E05EFC4F80810A
:1007E00090E02F5F20931F0308958FEF9FEF0895F0
:1007F000E0911F0380911E03E81730F4F0E0E05E03
:10080000FC4F808190E008958FEF9FEF0895089549
:10081000CF92DF92EF92FF920F931F93CF93DF93CC
:100820007C01CB018A012091FB02222389F0EB019C
:100830006B01C40ED51ECC15DD0569F06991D70199
:10084000ED91FC910190F081E02DC7010995F3CF66
:10085000642F0E948702C801DF91CF911F910F91F1
:10086000FF90EF90DF90CF900895CF93DF931F928A
:10087000CDB7DEB769832091FB022223D1F020910E
:10088000FC02203240F021E030E0FC01338322837F
:1008900080E090E015C08091FD02E82FF0E0E2508A
:1008A000FD4F998190838F5F8093FD028093FC02BE
:1008B00005C061E0CE0101960E94870281E090E0D0
:1008C0000F90DF91CF910895FC011382128248EEC0
:1008D00053E060E070E0448355836683778382E36E
:1008E00092E09183808308958FEE92E00C946404EB
:1008F000CF93CFB7F89480914003811127C0E7EFE1
:10090000F0E08491E3EEF0E09491E82FF0E0EE0F58
:10091000FF1FEB5EFE4FA591B4918C91892321F4CA
:1009200061E08AE00E94050F61E08AE00E94CC0E3F
:100930008CB580618CBD8CB580648CBD61E08DE030
:100940000E94CC0E61E08BE00E94CC0E80914003AF
:100950008F5F80934003CFBFCF9108958EBD00007D
:100960000DB407FEFDCF8EB508952CB52F7D2CBD9F
:100970002CB5237F2CBD2CB52C7F2CBD2DB5216033
:100980002DBDFC0181810E94050F85E090E00C9453
:100990005D0EFC018081918189130C94050F0895EF
:1009A00060E00C94B50461E00C94B504EF92FF9202
:1009B0001F93CF93DF931F92CDB7DEB77C0169837E
:1009C0000E94D0046981862F8F710E94AE048FEF40
:1009D0000E94AE04182FC7010E94D304812F0F90EC
:1009E000DF91CF911F91FF90EF900895CF92DF920A
:1009F000EF92FF920F931F93CF93DF9300D01F923C
:100A0000CDB7DEB78C01F22E4A835B8369830E94E7
:100A1000D0046981862F8F7180620E94AE04E82E17
:100A20004A81C42E5B81D52EF40EFC1431F0F60100
:100A300081916F010E94AE04F8CFC8010E94D304D7
:100A40008E2D0F900F900F90DF91CF911F910F91EE
:100A5000FF90EF90DF90CF900895EF92FF921F9359
:100A6000CF93DF9300D0CDB7DEB77C014A83698393
:100A70000E94D0046981862F8F7180620E94AE042B
:100A8000182F4A81842F0E94AE04C7010E94D3040C
:100A9000812F0F900F90DF91CF911F91FF90EF90DA
:100AA0000895AF92BF92DF92EF92FF920F931F9340
:100AB000CF93DF9300D01F92CDB7DEB78C01FC013E
:100AC000E580F42EE41608F4FE2CF80186818111ED
:100AD00002C0EF1801C0E12CC80129836A837B831F
:100AE0000E94D0042981822F0E94AE04D82E6A81F0
:100AF000A62E7B81B72EF60EFA1431F0F501819106
:100B00005F010E94AE04F8CFEE2029F080E00E9441
:100B1000AE04EA94F9CFC8010E94D3048D2D0F9042
:100B20000F900F90DF91CF911F910F91FF90EF9059
:100B3000DF90BF90AF900895EF92FF921F93CF93F5
:100B4000DF931F92CDB7DEB77C0169830E94D0048A
:100B50006981862F0E94AE04182FC7010E94D3041A
:100B6000812F0F90DF91CF911F91FF90EF9008950B
:100B700062EE0C949C0561EE0C949C056FEF0C9456
:100B80009C05FC0160834183148280E28583168288
:100B900085E0848717820895462F6E3708F04DE769
:100BA00065E00C942D05CF93DF93EC0160E00E948B
:100BB000C9048D859E850E945D0E6DE1CE010E9467
:100BC000D60481FF07C08D859E850E945D0ECE01F3
:100BD0000E94BB0560E0CE010E94D604482F4E7FE4
:100BE00060E0CE010E942D0562E0CE010E94D60495
:100BF000EFEBF0E0E49121E030E001C0220FEA9554
:100C0000EAF7822B482F62E0CE01DF91CF910C945E
:100C10002D05CF93DF93EC0160E00E94D60481FDA7
:100C200012C060E0CE010E94D604482F426060E00E
:100C3000CE010E942D0565E070E080E090E0DF913C
:100C4000CF910C94350EDF91CF9108950F93CF93F0
:100C5000DF93EC01222311F020EB01C020EACE014A
:100C60000E945105002339F061E0CE01DF91CF9160
:100C70000F910C94C904DF91CF910F9108950F93B8
:100C8000CF93DF93EC0101E00E942606CE010E9483
:100C9000BE058073D9F360E0CE010E94C90440E72D
:100CA00067E0CE010E942D0584FF05C0CE010E94A1
:100CB000BB0580E001C081E0DF91CF910F910895E5
:100CC00020E00C943F060F931F93CF93DF93EC012A
:100CD0008B012C85AB016AE00E94F6042C85A801EB
:100CE00060E1CE010E94F6044D8161E1CE01DF9109
:100CF000CF911F910F910C942D051F93CF93DF93EC
:100D0000EC01162F62E00E94D604E12FF0E0E154DE
:100D1000FF4FE49141E050E001C0440FEA95EAF74B
:100D20004095482362E0CE01DF91CF911F910C9452
:100D30002D05CF93DF93EC010E94090660E0CE0100
:100D40000E94D604482F416060E0CE010E942D052C
:100D500040E767E0CE010E942D0561E0CE010E94D0
:100D6000C9048F81882349F02C85AE01495F5F4F0C
:100D70006AE0CE010E94F60404C060E0CE010E9449
:100D80007D066DE1CE010E94D60481FF05C0CE0133
:100D9000DF91CF910C94BB05DF91CF910895CF9354
:100DA000DF93EC010E94D00480E50E94AE0483E74B
:100DB0000E94AE04CE01DF91CF910C94D3041F9317
:100DC000CF93DF93EC01162F66E00E94D604887F54
:100DD000143020F4612F660F6F5F01C067E0462F6B
:100DE000482B66E0CE01DF91CF911F910C942D0529
:100DF000EF92FF920F931F93CF93DF931F92CDB784
:100E0000DEB77C018B0166E00E94D604582F577D27
:100E10000230110531F450620BE910E020E030E0BF
:100E20000DC00130110529F005E510E020E030E0AB
:100E300005C0586001E410E020E030E0F7010587CC
:100E400016872787308B452F66E0C70159830E949C
:100E50002D0566E0C7010E94D60491E059818513F3
:100E600090E0892F0F90DF91CF911F910F91FF900C
:100E7000EF900895CF93DF93EC01888199818917D2
:100E800019F061E00E94CC0E89819881981719F0C1
:100E900061E00E94CC0E0E94780460E0CE010E94C6
:100EA000C90461E0CE010E94B50465E070E080E015
:100EB00090E00E94350E4CE060E0CE010E942D05CE
:100EC0004FE564E0CE010E942D0562E070E0CE01A6
:100ED0000E94F806882311F081E08C8360E070E0C6
:100EE000CE010E94F806CE010E94CF0640E06DE1DF
:100EF000CE010E942D0540E06CE1CE010E942D053F
:100F000040E767E0CE010E942D056CE4CE010E940F
:100F1000CC05CE010E94B805CE010E94BB05CE01D2
:100F20000E94090660E0CE010E94D604482F4E7F41
:100F300060E0CE010E942D0580E0DF91CF91089501
:100F40004F925F926F927F928F929F92AF92BF92D9
:100F5000CF92DF92EF92FF920F931F93CF93DF9385
:100F600000D0CDB7DEB77C01D62E70E0FB01E75292
:100F7000FF4FC490FB01E351FF4FE491F0E0EE0F0F
:100F8000FF1FEF5FFE4F4590549061E08D2D2A8347
:100F900049830E94CC0E60E08D2D0E94050F88EEE3
:100FA00093E04981BC01469FC001479F900D1124E9
:100FB0000E945D0E61E08D2D0E94050F60E08D2D79
:100FC0000E94CC0E80E293E02A81F20130813C2124
:100FD00021F00197D1F78DEF66C080E991E0F20131
:100FE00030813C2121F40197D1F78CEF5CC080E97E
:100FF00091E0F20130813C2121F00197D1F78BEF94
:1010000052C0F8E2BF2EA0E9B1E040E050E080E934
:1010100091E060E0912C812C10E8612E7B2C721AFB
:1010200000E911E020E030E0F201A080AC2051F5B1
:10103000662341F17B1490F4A817B90708F4CD0199
:10104000B901A801481B590B61097109E2E07595C6
:10105000679557954795EA95D1F707C0BC01641B82
:10106000750B6A177B0708F09628669441F4F70120
:10107000E80DF11D90868394912C60E8662EBA9459
:10108000A0E9B1E0119771F0BB2011F06A2DCCCF2F
:1010900061E08D2D0E94CC0E61E08D2D0E94050F28
:1010A00080E001C08EEF0F900F90DF91CF911F91E4
:1010B0000F91FF90EF90DF90CF90BF90AF909F90F7
:1010C0008F907F906F905F904F900895CF92DF92B6
:1010D000EF92FF920F931F93CF93DF93EC0126E0E3
:1010E00041E00E94A007E82E188513701887CA8473
:1010F0000C2D03780A87F984612F70E0762F66271C
:101100006F0D711D882777FD8095982F0E944010E4
:101110002DEC3CEC4CEC5DE30E94F4106883798389
:101120008A839B83DB846C2D637070E0762F662747
:101130006D0D711D882777FD8095982F0E944010B6
:101140002DEC3CEC4CEC5DE30E94F41007FD05C077
:101150006C837D838E839F8307C0DC01CB01B058F5
:101160008C839D83AE83BF83FD0CF10EF00E8C85C6
:101170008F1511F08FEF01C08E2DDF91CF911F9150
:101180000F91FF90EF90DF90CF900895FC01818D3B
:10119000228D90E0805C9F4F821B91098F7399276D
:1011A0000895FC01918D828D981731F0828DE80FA2
:1011B000F11D858D90E008958FEF9FEF0895FC015C
:1011C000918D828D981761F0828DDF01A80FB11D7E
:1011D0005D968C91928D9F5F9F73928F90E00895A2
:1011E0008FEF9FEF089583E69AE0892B49F080E026
:1011F00090E0892B29F00E94630A81110C94000071
:101200000895FC01848DDF01A80FB11DA35ABF4FC3
:101210002C91848D90E001968F739927848FA689F5
:10122000B7892C93A089B1898C9180648C93938D1C
:10123000848D981306C00288F389E02D80818F7D0C
:1012400080830895CF93DF93EC01888D8823C9F0C4
:10125000EA89FB89808185FD05C0A889B9898C91BF
:1012600086FD0FC00FB607FCF5CF808185FFF2CF5A
:10127000A889B9898C9185FFEDCFCE010E94010923
:10128000E7CFDF91CF910895CF92DF92FF920F9336
:101290001F93CF93DF931F92CDB7DEB76C0181E030
:1012A000D60158968C9358975B969C915B975C9669
:1012B0008C915C97981307C05096ED91FC915197D3
:1012C000808185FD2EC0F601038D10E00F5F1F4F5A
:1012D0000F731127F02EF601848DF81211C00FB68E
:1012E00007FCF9CFD6015096ED91FC915197808182
:1012F00085FFF1CFC60169830E9401096981EBCFA7
:10130000838DE80FF11DE35AFF4F6083D6015B9692
:101310000C935B975296ED91FC915397808180627C
:101320000CC0D6015696ED91FC915797608350966C
:10133000ED91FC91519780818064808381E090E001
:101340000F90DF91CF911F910F91FF90DF90CF9081
:101350000895BF92CF92DF92EF92FF92CF93DF93E7
:10136000EC016A017B01B22EE889F98982E0808371
:10137000411581EE580761057105A1F060E079E043
:101380008DE390E0A70196010E945B112150310985
:10139000410951095695479537952795211580E1C3
:1013A000380798F0E889F989108260E874E88EE1DE
:1013B00090E0A70196010E945B112150310941097B
:1013C00051095695479537952795EC85FD853083CE
:1013D000EE85FF852083188EEC89FD89B082EA892D
:1013E000FB89808180618083EA89FB8980818860B4
:1013F0008083EA89FB89808180688083EA89FB8910
:1014000080818F7D8083DF91CF91FF90EF90DF907F
:10141000CF90BF9008951F920F920FB60F92112494
:101420002F938F939F93EF93FF93E0915103F0914C
:1014300052038081E0915703F091580382FD12C05E
:10144000908180915A038F5F8F7320915B03821785
:1014500051F0E0915A03F0E0EF5BFC4F958F8093E1
:101460005A0301C08081FF91EF919F918F912F913D
:101470000F900FBE0F901F9018951F920F920FB6EE
:101480000F9211242F933F934F935F936F937F930A
:101490008F939F93AF93BF93EF93FF9381E493E078
:1014A0000E940109FF91EF91BF91AF919F918F91A0
:1014B0007F916F915F914F913F912F910F900FBE50
:1014C0000F901F90189581E493E00E94C60821E0D8
:1014D000892B09F420E0822F089510924403109282
:1014E000430388EE93E0A0E0B0E08093450390933F
:1014F0004603A0934703B093480382E492E090939D
:1015000042038093410385EC90E090934E038093D7
:101510004D0384EC90E09093500380934F0380EC54
:1015200090E0909352038093510381EC90E090936C
:1015300054038093530382EC90E09093560380937E
:10154000550386EC90E090935803809357031092D4
:101550005A0310925B0310925C0310925D0308958E
:10156000CF92DF92EF92FF920F931F93CF93DF936F
:101570006C017A01EB01E60EF71E00E010E0CE15DB
:10158000DF0561F06991D601ED91FC910190F08148
:10159000E02DC6010995080F191FF1CFC801DF9191
:1015A000CF911F910F91FF90EF90DF90CF90089512
:1015B0006115710581F0DB010D900020E9F7AD01A7
:1015C00041505109461B570BDC01ED91FC91028003
:1015D000F381E02D099480E090E00895EF92FF926E
:1015E0000F931F93CF93DF938C01FB01C0E0D0E0FA
:1015F00064917F018FEFE81AF80A662361F0D80141
:10160000ED91FC910190F081E02DC8010995C80F82
:10161000D91FF701EDCFCE01DF91CF911F910F912F
:10162000FF90EF900895DC01ED91FC91DB011496A1
:101630004D915C9115976D917C910280F381E02D25
:101640000994DC01ED91FC910190F081E02D099469
:101650006EE472E00C94D80A0F931F93CF93DF933C
:10166000EC010E94EE0A8C01CE010E94280B800F33
:10167000911FDF91CF911F910F9108950F931F93A9
:10168000CF93DF93EC010E94130B8C01CE010E94DB
:10169000280B800F911FDF91CF911F910F9108951B
:1016A0000F931F93CF93DF93EC010E94D80A8C0114
:1016B000CE010E94280B800F911FDF91CF911F91C7
:1016C0000F9108958F929F92AF92BF92CF92DF9227
:1016D000EF92FF920F931F93CF93DF93CDB7DEB7B7
:1016E000A1970FB6F894DEBF0FBECDBF7C01C42E0C
:1016F000E52FCB01D22E19A221E02D1510F02AE002
:10170000D22E8E010F5D1F4F8D2C912CA12CB12C50
:101710006C2D7E2FA50194010E945B118C2DD29E11
:1017200080191124015011098A3014F4805D01C020
:10173000895CF8018083211531054105510521F0AF
:10174000C22EE32FCA01E4CFB801C7010E94D80A14
:10175000A1960FB6F894DEBF0FBECDBFDF91CF913B
:101760001F910F91FF90EF90DF90CF90BF90AF90BF
:101770009F908F900895CF92DF92EF92FF920F93F8
:101780001F93CF93DF93EC016A017B012115310593
:1017900079F4E881F9810190F081E02D642FDF91E7
:1017A000CF911F910F91FF90EF90DF90CF90099410
:1017B0002A303105E9F477FF1AC06DE20E94210B4F
:1017C0008C0144275527BA014C195D096E097F0920
:1017D0002AE0CE010E94620B800F911FDF91CF9112
:1017E0001F910F91FF90EF90DF90CF9008952AE026
:1017F000B701A601CE01DF91CF911F910F91FF900C
:10180000EF90DF90CF900C94620B4F925F926F92AB
:101810007F928F929F92AF92BF92CF92DF92EF9280
:10182000FF920F931F93CF93DF93EC016A017B012B
:10183000B22E9A01AB01C701B6010E94571188234D
:1018400019F061E572E027C026013701E89477F8C6
:101850002FEF3FEF4FE75FE7C301B2010E9457113F
:1018600081110DC02FEF3FEF4FE75FE7C301B201DA
:101870000E94A10F18161CF465E572E00CC02FEF52
:101880003FEF4FE75FE4C701B6010E94F010181662
:10189000ACF469E572E0CE01DF91CF911F910F9119
:1018A000FF90EF90DF90CF90BF90AF909F908F9080
:1018B0007F906F905F904F900C94D80A2FEF3FEF7E
:1018C0004FE75FECC701B6010E94A10F87FDE1CF92
:1018D00020E030E0A901C701B6010E94A10F87FFF7
:1018E0000AC06DE2CE010E94210B8C01F7FAF09440
:1018F000F7F8F09402C000E010E0A12C60E070E086
:1019000080E09FE3AB1441F020E030E040E251E49E
:101910000E94A50FA394F6CF9B01AC01C701B601AD
:101920000E943D0F6B017C010E9412102B013C01B3
:101930000E943E109B01AC01C701B6010E943C0F02
:101940006B017C012AE0B301A201CE010E94620B6F
:10195000080F191FBB2039F06DE572E0CE010E941F
:10196000D80A080F191F7B2C772041F120E030E0C6
:1019700040E251E4C701B6010E94F4106B017C0102
:101980000E940D104B01AA2497FCA094BA2C2AE0C7
:1019900030E0B501A401CE010E94BB0B080F191F56
:1019A000C501B4010E9440109B01AC01C701B60102
:1019B0000E943C0F6B017C017A94D6CFC801DF9165
:1019C000CF911F910F91FF90EF90DF90CF90BF903C
:1019D000AF909F908F907F906F905F904F90089501
:1019E0000F931F93CF93DF93EC010E94050C8C01A2
:1019F000CE010E94280B800F911FDF91CF911F9184
:101A00000F910895FC01808191810C943C12CF9339
:101A1000DF93EC0188819981009711F00E943C12BC
:101A2000198218821D821C821B821A82DF91CF913B
:101A300008950F931F93CF93DF93EC018B016F5F9A
:101A40007F4F888199810E94CB12009731F0998352
:101A500088831B830A8381E001C080E0DF91CF91FE
:101A60001F910F910895CF93DF93EC0188819981A5
:101A7000892B29F08A819B818617970760F4CE0114
:101A80000E94190D882341F08C819D81892B19F4C6
:101A9000E881F981108281E0DF91CF910895EF9282
:101AA000FF920F931F93CF93DF93EC017B018A0189
:101AB000BA010E94330D811104C0CE010E94070DAE
:101AC00007C01D830C83B701888199810E949E13F2
:101AD000CE01DF91CF911F910F91FF90EF9008956C
:101AE000CF93DF93EC016115710561F0FB0101906B
:101AF0000020E9F7AF0141505109461B570B0E94E6
:101B00004F0D02C00E94070DCE01DF91CF910895C5
:101B1000EF92FF920F931F93CF93DF93CDB7DEB772
:101B2000A1970FB6F894DEBF0FBECDBF7C01CB01ED
:101B3000BA01F70111821082138212821582148277
:101B400042E0420F8E010F5F1F4F0E948311BC01C4
:101B5000C7010E94700DA1960FB6F894DEBF0FBEAC
:101B6000CDBFDF91CF911F910F91FF90EF9008951E
:101B700008950E94680E0E94B80D0E943A01C3EFBA
:101B8000D8E00E9479012097E1F30E94F308F9CF91
:101B90001F920F920FB60F9211242F933F938F93A2
:101BA0009F93AF93BF938091DF039091E003A09147
:101BB000E103B091E2033091DE0323E0230F2D37E0
:101BC00020F40196A11DB11D05C026E8230F029641
:101BD000A11DB11D2093DE038093DF039093E003EA
:101BE000A093E103B093E2038091E3039091E403B7
:101BF000A091E503B091E6030196A11DB11D80936C
:101C0000E3039093E403A093E503B093E603BF914D
:101C1000AF919F918F913F912F910F900FBE0F9099
:101C20001F9018953FB7F8948091E3039091E403D7
:101C3000A091E503B091E60326B5A89B05C02F3F10
:101C400019F00196A11DB11D3FBF6627782F892F7E
:101C50009A2F620F711D811D911D42E0660F771F43
:101C6000881F991F4A95D1F70895CF92DF92EF927E
:101C7000FF92CF93DF936B017C010E94120EEB0168
:101C8000C114D104E104F10489F00E943B0F0E94C9
:101C9000120E6C1B7D0B683E734090F381E0C81AF6
:101CA000D108E108F108C851DC4FEACFDF91CF91AC
:101CB000FF90EF90DF90CF9008958230910538F03B
:101CC000880F991F880F991F05970197F1F70895BD
:101CD000789484B5826084BD84B5816084BD85B507
:101CE000826085BD85B5816085BDEEE6F0E08081CE
:101CF00081608083E1E8F0E01082808182608083EF
:101D0000808181608083E0E8F0E080818160808371
:101D1000E1EBF0E0808184608083E0EBF0E08081A3
:101D200081608083EAE7F0E0808184608083808145
:101D300082608083808181608083808180688083ED
:101D40001092C1000895833081F028F4813099F019
:101D50008230A1F008958730A9F08830B9F084303E
:101D6000D1F4809180008F7D03C0809180008F77B7
:101D700080938000089584B58F7702C084B58F7DED
:101D800084BD08958091B0008F7703C08091B0002A
:101D90008F7D8093B0000895CF93DF9390E0FC0196
:101DA000E752FF4F2491FC01E351FF4F84918823B8
:101DB00049F190E0880F991FFC01EB5EFE4FA59161
:101DC000B491855F9E4FFC01C591D4919FB761117D
:101DD00008C0F8948C91209582238C93888182236B
:101DE0000AC0623051F4F8948C91322F30958323DD
:101DF0008C938881822B888304C0F8948C91822BE9
:101E00008C939FBFDF91CF9108950F931F93CF9332
:101E1000DF931F92CDB7DEB7282F30E0F901EB53E7
:101E2000FF4F8491F901E752FF4F1491F901E351FB
:101E3000FF4F04910023C9F0882321F069830E9499
:101E4000A30E6981E02FF0E0EE0FFF1FE55FFE4F6C
:101E5000A591B4919FB7F8948C91611103C010952E
:101E6000812301C0812B8C939FBF0F90DF91CF9175
:101E70001F910F91089508955058BB27AA270ED09F
:101E800075C166D130F06BD120F031F49F3F11F471
:101E90001EF45BC10EF4E095E7FB51C1E92F77D149
:101EA00080F3BA17620773078407950718F071F477
:101EB0009EF58FC10EF4E0950B2EBA2FA02D0B01CD
:101EC000B90190010C01CA01A0011124FF27591B7F
:101ED00099F0593F50F4503E68F11A16F040A22F85
:101EE000232F342F4427585FF3CF469537952795F6
:101EF000A795F0405395C9F77EF41F16BA0B620BF5
:101F0000730B840BBAF09150A1F0FF0FBB1F661F3B
:101F1000771F881FC2F70EC0BA0F621F731F841F7E
:101F200048F4879577956795B795F7959E3F08F0A4
:101F3000B3CF9395880F08F09927EE0F9795879563
:101F40000895D9D008F481E008950CD00FC107D1CD
:101F500040F0FED030F021F45F3F19F0F0C0511195
:101F600039C1F3C014D198F39923C9F35523B1F3C0
:101F7000951B550BBB27AA2762177307840738F0F8
:101F80009F5F5F4F220F331F441FAA1FA9F333D057
:101F90000E2E3AF0E0E830D091505040E695001C0B
:101FA000CAF729D0FE2F27D0660F771F881FBB1FC7
:101FB000261737074807AB07B0E809F0BB0B802DA1
:101FC000BF01FF2793585F4F2AF09E3F510568F0ED
:101FD000B6C000C15F3FECF3983EDCF38695779581
:101FE0006795B795F7959F5FC9F7880F911D9695EF
:101FF000879597F90895E1E0660F771F881FBB1F4B
:10200000621773078407BA0720F0621B730B840BF7
:10201000BA0BEE1F88F7E095089504D06894B111CB
:10202000D9C00895BCD088F09F5790F0B92F992758
:10203000B751A0F0D1F0660F771F881F991F1AF0D3
:10204000BA95C9F712C0B13081F0C3D0B1E008959C
:10205000C0C0672F782F8827B85F39F0B93FCCF31D
:10206000869577956795B395D9F73EF490958095C9
:10207000709561957F4F8F4F9F4F0895E89409C0E9
:1020800097FB3EF490958095709561957F4F8F4FAB
:102090009F4F9923A9F0F92F96E9BB279395F695C1
:1020A000879577956795B795F111F8CFFAF4BB0F3F
:1020B00011F460FF1BC06F5F7F4F8F4F9F4F16C0A3
:1020C000882311F096E911C0772321F09EE8872F2D
:1020D000762F05C0662371F096E8862F70E060E0E9
:1020E0002AF09A95660F771F881FDAF7880F969562
:1020F000879597F90895990F0008550FAA0BE0E806
:10210000FEEF16161706E807F907C0F012161306B9
:10211000E407F50798F0621B730B840B950B39F4F9
:102120000A2661F0232B242B252B21F408950A265F
:1021300009F4A140A6958FEF811D811D089597F99F
:102140009F6780E870E060E008959FEF80EC08955D
:1021500000240A9416161706180609060895002486
:102160000A9412161306140605060895092E039400
:10217000000C11F4882352F0BB0F40F4BF2B11F474
:1021800060FF04C06F5F7F4F8F4F9F4F089557FDD3
:102190009058440F551F59F05F3F71F04795880FD5
:1021A00097FB991F61F09F3F79F08795089512166C
:1021B00013061406551FF2CF4695F1DF08C0161618
:1021C00017061806991FF1CF8695710561050894C9
:1021D0000895E894BB2766277727CB0197F90895E0
:1021E0008ADF08F48FEF08950BD0C0CFB1DF28F05D
:1021F000B6DF18F0952309F0A2CFA7CF1124EACFBC
:10220000C6DFA0F3959FD1F3950F50E0551F629F55
:10221000F001729FBB27F00DB11D639FAA27F00D3F
:10222000B11DAA1F649F6627B00DA11D661F829F66
:102230002227B00DA11D621F739FB00DA11D621F4B
:10224000839FA00D611D221F749F3327A00D611D68
:10225000231F849F600D211D822F762F6A2F11244A
:102260009F5750408AF0E1F088234AF0EE0FFF1F9D
:10227000BB1F661F771F881F91505040A9F79E3FD4
:10228000510570F05CCFA6CF5F3FECF3983EDCF3D6
:10229000869577956795B795F795E7959F5FC1F711
:1022A000FE2B880F911D9695879597F9089523DF4A
:1022B000880B990B0895A1E21A2EAA1BBB1BFD01E6
:1022C0000DC0AA1FBB1FEE1FFF1FA217B307E40715
:1022D000F50720F0A21BB30BE40BF50B661F771F6D
:1022E000881F991F1A9469F760957095809590954D
:1022F0009B01AC01BD01CF010895EE0FFF1F0590BA
:10230000F491E02D0994EF920F931F93CF93DF93F5
:10231000E80147FF02C034E101C034E0E42FFF27A9
:10232000E7FDF095F7FF03C0F195E195F109E32E84
:10233000022F2E2FAE010E94A513CE01DF91CF9167
:102340001F910F91EF900895CF93DF938230910505
:1023500010F482E090E0E091E903F091EA0320E0DC
:1023600030E0A0E0B0E0309739F14081518148176A
:102370005907B8F04817590771F482819381109773
:1023800029F013969C938E9312972CC09093EA0396
:102390008093E90327C02115310531F04217530717
:1023A00018F0A901DB0101C0EF019A01BD01DF01B5
:1023B0000280F381E02DD7CF21153105F9F0281BDC
:1023C000390B2430310580F48A819B8161157105B8
:1023D00021F0FB019383828304C09093EA038093EE
:1023E000E903FE01329644C0FE01E20FF31F819320
:1023F000919322503109398328833AC02091E70311
:102400003091E803232B41F4209102013091030124
:102410003093E8032093E7032091000130910101FC
:102420002115310541F42DB73EB74091040150917B
:102430000501241B350BE091E703F091E803E21757
:10244000F307A0F42E1B3F0B2817390778F0AC01D7
:102450004E5F5F4F2417350748F04E0F5F1F5093B4
:10246000E8034093E7038193919302C0E0E0F0E03A
:10247000CF01DF91CF910895CF93DF93009709F4B7
:1024800087C0FC01329713821282C091E903D09178
:10249000EA03209781F420813181280F391F809130
:1024A000E7039091E8038217930779F5F093E80327
:1024B000E093E7036DC0DE0120E030E0AE17BF0718
:1024C00050F412964D915C9113979D014115510561
:1024D00009F1DA01F3CFB383A28340815181840FE4
:1024E000951F8A179B0771F48D919C911197840F0A
:1024F000951F02969183808312968D919C911397DC
:10250000938382832115310529F4F093EA03E09344
:10251000E9033EC0D9011396FC93EE9312974D91B7
:102520005D91A40FB51FEA17FB0779F480819181B3
:10253000840F951F0296D90111969C938E938281E8
:10254000938113969C938E931297E0E0F0E08A813A
:102550009B81009719F0FE01EC01F9CFCE010296A4
:1025600028813981820F931F2091E7033091E8037E
:102570002817390769F4309729F41092EA0310926A
:10258000E90302C013821282D093E803C093E703E9
:10259000DF91CF910895A0E0B0E0E1EDF2E10C947D
:1025A000FF15EC01CB01209719F40E94A411B8C0CB
:1025B000FE01E60FF71F9E0122503109E217F307D3
:1025C00008F4ACC0D9010D911C911197061717079B
:1025D000B8F00530110508F49FC0A8014450510916
:1025E0004617570708F498C002501109061B170B2D
:1025F000019311936D937C93CF010E943C128CC088
:102600005B01A01AB10A4E01800E911EA091E90350
:10261000B091EA03612C712C60E070E0109709F42E
:1026200049C0A815B905C9F5ED90FC90119767014F
:1026300042E0C40ED11CCA14DB0478F147018A18A9
:102640009B08640142E0C40ED11C1296BC90129704
:102650001396AC91B5E0CB16D10440F0B282A383BF
:1026600091828082D9018D939C9309C00E5F1F4F88
:102670000E0D1F1DF90111830083EB2DFA2F61153B
:10268000710531F0DB011396FC93EE93129744C071
:10269000F093EA03E093E9033FC06D917C911197B9
:1026A0006616770608F43B01BD0112960D90BC91A9
:1026B000A02DB4CF6091E7037091E8036815790508
:1026C000E9F468167906D0F44091000150910101B7
:1026D0004115510541F44DB75EB760910401709109
:1026E0000501461B570BE417F507C0F4F093E80308
:1026F000E093E703F901918380830EC00E94A41147
:102700007C01009759F0A801BE010E949513CE01EB
:102710000E943C12C70104C0CE0102C080E090E0DC
:10272000CDB7DEB7EEE00C941B16FB01DC0102C056
:1027300001900D9241505040D8F70895FB01DC0103
:1027400001900D920020E1F708956F927F929F9281
:10275000AF92BF92CF92DF92EF92FF920F931F93AF
:10276000CF93DF93CDB7DEB729970FB6F894DEBFCE
:102770000FBECDBF6A01B22E102F0C3320F4FF2400
:10278000F394F00E02C04CE3F42E0F2D27E0AE01BF
:102790004F5F5F4F0E9423157981272F29702130C9
:1027A00031F0E1FC06C0E0FC06C060E005C06DE26F
:1027B00003C06BE201C060E2AE2DA07173FF36C0B2
:1027C000662311F084E001C083E08B1510F4B81A81
:1027D00001C0B12CA1110BC0F6018B2D90E2882312
:1027E00019F091938150FBCFCB0CD11CB12C6623F7
:1027F00031F0F601608396012F5F3F4F6901C601FA
:102800000396E2FE05C02EE4F601208331E404C005
:102810002EE6F601208331E631832283FC012B2D45
:1028200030E22223F1F131932150FBCF72FF40C0FF
:10283000662311F084E001C083E08B1510F4B81A10
:1028400001C0B12CA1110BC0F6018B2D90E28823A1
:1028500019F091938150FBCFCB0CD11CB12C662386
:1028600031F0F601608396012F5F3F4F6901C60189
:102870000396E2FE07C029E4F60120832EE42183BB
:1028800026E406C029E6F60120832EE6218326E60B
:102890002283FC012B2D30E2222319F031932150A9
:1028A000FBCFFC01EB0DF11D10828EEF9FEFB7C047
:1028B000B1E0611101C0B0E04B2F50E018161906CD
:1028C00024F49C012F5F3F4F02C021E030E0240F31
:1028D000351F112329F0412F50E04F5F5F4F02C099
:1028E00040E050E0420F531F2B2D30E042175307BA
:1028F00014F4B41A01C0B12C2E2D287159F4F6012C
:102900002B2D30E2222319F031932150FBCFCB0C39
:10291000D11CB12CBB2331F0F601608396012F5FEF
:102920003F4F6901A1110BC0F6012B2D30E322238B
:1029300019F031932150FBCFCB0CD11CB12CF80EE8
:102940000A81372F3071A32E74FF03C0013309F4BD
:10295000FA941F142CF42F2D293018F028E001C010
:1029600021E0682F392F97FF02C060E030E0462F4A
:10297000532F612C712C3EE2932EBC01621B710916
:102980009B01DC01A41BB50BE1E0F0E0EC0FFD1FA7
:10299000AE0FBF1FE12EF12CF194E194F1084F3FEF
:1029A000FFEF5F0731F4F6019082B6016F5F7F4F52
:1029B0006B01841795074CF02417350734F4BD01DB
:1029C000660D771DFB01118101C010E341505109D3
:1029D000FFEF6F1A7F0AB6016F5F7F4F4E155F05DD
:1029E00024F0F60110836B01DACF4817590739F448
:1029F000063320F4053319F4A11001C011E3F601E8
:102A00001083FB018B2D90E2882319F09193815064
:102A1000FBCFFB01EB0DF11D108280E090E02996C9
:102A20000FB6F894DEBF0FBECDBFDF91CF911F91DF
:102A30000F91FF90EF90DF90CF90BF90AF909F905D
:102A40007F906F900895283008F027E03327DA014F
:102A5000990F311D87FD916000966105710539F46C
:102A600032602E5F3D9330E32A95E1F708959F3F52
:102A700030F080387105610509F03C5F3C5F3D93A3
:102A8000913008F08068911DDF93CF931F930F93CF
:102A9000FF92EF92192F987F9695E92F969596952C
:102AA000E90FFF27E758FE4F99273327EE24FF242D
:102AB000A701E70105900894079428F4360FE71E54
:102AC000F81E491F511D660F771F881F991F069416
:102AD000A1F70590079428F4E70EF81E491F561F2A
:102AE000C11D770F881F991F661F0694A1F70590D7
:102AF000079428F4F80E491F561FC71FD11D880FD1
:102B0000991F661F771F0694A1F70590079420F47C
:102B1000490F561FC71FD81F990F661F771F881FA1
:102B20000694A9F784911095177041F0D695C79532
:102B300057954795F794E7941A95C1F7EFE1F1E0BF
:102B400068941590159135916591959105907FE266
:102B50007395E118F10A430B560BC90BD009C0F766
:102B6000E10CF11E431F561FC91FD01D7EF47033A8
:102B700011F48A95E6CFE894015030F0080F0AF47A
:102B80000027021708F4202F2395022F7A3328F00C
:102B900079E37D932A95E9F710C07D932A9589F60C
:102BA000069497956795379517951794E118F10A4C
:102BB000430B560BC90BD00998F023957E91739562
:102BC0007A3308F070E37C932013B8F77E9170613C
:102BD0007D9330F0839571E37D9370E32A95E1F75F
:102BE0001124EF90FF900F911F91CF91DF919927C2
:102BF00087FD909508952F923F924F925F926F922A
:102C00007F928F929F92AF92BF92CF92DF92EF927C
:102C1000FF920F931F93CF93DF93CDB7DEB7CA1BFD
:102C2000DB0B0FB6F894DEBF0FBECDBF09942A8828
:102C3000398848885F846E847D848C849B84AA84D0
:102C4000B984C884DF80EE80FD800C811B81AA815D
:102C5000B981CE0FD11D0FB6F894DEBF0FBECDBF28
:082C6000ED010895F894FFCF87
:102C68000000EB038000314E6F646500324E6F64E4
:102C78006500456E746572696E672073657475705A
:102C88000A0A0053657474696E6720706F776572FD
:102C9800206C6576656C0A0A004F70656E696E6710
:102CA80020777269746520706970650A0A00537428
:102CB800617274696E6720746F206C697374656ED5
:102CC8000A0A0047657474696E672073656E736FCE
:102CD80072207374617475730A0A00476F742073E5
:102CE800656E736F72207374617475730A0A004796
:102CF8006F742074656D7020696E666F726D617493
:102D0800696F6E0A0A0053746F7070696E67206C81
:102D1800697374656E696E670A0A00436F6E76653B
:102D28007274696E672074656D7020746F20737497
:102D380072696E670A0A00436F6E76657274696E0F
:102D4800672068756D20746F20737472696E670AE6
:102D58000A0044656C6179696E672033730A0A005A
:102D6800456E64206F66206C6F6F7020616E642002
:102D78007374617274206C697374656E696E670A26
:102D88000A0073656E736F72206661696C000000DB
:102D9800000035040804DD03E503F8030704000018
:102DA80000004409B00AC608DF08D10822090D0A44
:102DB800006E616E00696E66006F7666002E000018
:00000001FF
