:100000000C9446010C946E010C946E010C946E01DC
:100010000C946E010C946E010C946E010C946E01A4
:100020000C946E010C946E010C946E010C946E0194
:100030000C946E010C946E010C946E010C946E0184
:100040000C94D50E0C946E010C94EE0A0C94200BBB
:100050000C946E010C946E010C946E010C946E0164
:100060000C9447030C946E0173656E736F72206677
:1000700061696C0073656E736F72206661696C00F4
:1000800073656E736F72206661696C006661696C7E
:10009000656420746F2073656E642074656D70658F
:1000A000726174757265006661696C656420746F55
:1000B0002073656E642068756D6964697479005297
:1000C0004632342048415244574152452046414926
:1000D0004C3A20526164696F206E6F7420726573B0
:1000E000706F6E64696E672C207665726966792020
:1000F00070696E20636F6E6E656374696F6E732CCA
:1001000020776972696E672C206574632E0D0A0072
:1001100077726974655F72656769737465722825A3
:100120003032782C25303278290D0A000001020384
:10013000040500000008000201000003040700009D
:1001400000000000000001020408102040800102AD
:10015000040810200102040810200404040404040C
:100160000404020202020202030303030303000069
:1001700000002300260029000000000025002800C0
:100180002B0000000000240027002A0000407A1005
:10019000F35A00A0724E18090010A5D4E80000E838
:1001A0007648170000E40B54020000CA9A3B000096
:1001B00000E1F505000080969800000040420F0025
:1001C0000000A08601000000102700000000E803E6
:1001D000000000006400000000000A0000000000B1
:1001E0000100000000002C76D888DC674F0823DF70
:1001F000C1DFAE59E1B1B796E5E3E453C63AE65143
:10020000997696E8E6C28426EB898C9B62ED407C69
:100210006FFCEFBC9C9F40F2BAA56FA5F490055A05
:100220002AF75C936B6CF9676DC11BFCE0E40D472A
:10023000FEF520E6B500D0ED902E0300943577054D
:100240000080841E080000204E0A000000C80C3305
:100250003333330F986E12831141EF8D2114893B94
:10026000E65516CFFEE6DB18D1844B381BF77C1D14
:10027000901DA4BBE424203284725E228100C9F167
:1002800024ECA1E53D2718030B05500B11241FBEDC
:10029000CFEFD8E0DEBFCDBF12E0A0E0B1E0E4E1F7
:1002A000F4E302C005900D92A83AB107D9F724E013
:1002B000A8EAB2E001C01D92A933B207E1F712E04B
:1002C000CCE8D2E004C02297FE010E949812C63802
:1002D000D107C9F70E94C60E0C94081A0C940000AE
:1002E00060ED77E080E090E00E944E0F26E040E075
:1002F00052EC61E070E089E893E00E948C0A62E1D0
:1003000071E089E893E00E94330C8AEA92E00E944F
:100310001D0864E68AEA92E00E94840661E271E0C8
:1003200089E893E00E94330C60E08AEA92E00E9440
:10033000C20765E371E089E893E00E94330C66E050
:1003400071E08AEA92E00E94460768E471E089E879
:1003500093E00E94330C8AEA92E00C947C076F923F
:100360007F928F929F92AF92BF92CF92DF92EF9245
:10037000FF920F931F93CF93DF93CDB7DEB72C97E8
:100380000FB6F894DEBF0FBECDBF6DB67EB66BE57F
:1003900071E089E893E00E94330C62E08CEB92E01C
:1003A0000E944909992787FD90959093A90280930F
:1003B000A80261E771E089E893E00E94330C809124
:1003C000A8029091A9028F3F2FEF920709F4D1C0A4
:1003D000009721F0029609F0ECC0DBC08DB69EB606
:1003E00063E871E089E893E00E94330C4091BC021D
:1003F0005091BD026091BE027091BF0222E030E0D8
:1004000089E893E00E94D30D4091C0025091C1024F
:100410006091C2027091C30222E030E089E893E06B
:100420000E94D30D68E971E089E893E00E94330CE3
:100430008AEA92E00E948B066BEA71E089E893E019
:100440000E94330C4091C0025091C1026091C202DF
:100450007091C30222E0CE0107960E946B0E65ECFC
:1004600071E089E893E00E94330C4091BC02509106
:10047000BD026091BE027091BF0222E0CE010196E2
:100480000E946B0EBE016F5F7F4F89E893E00E9470
:10049000210CBE01695F7F4F89E893E00E94210C27
:1004A000EB84FC848FEFE81AF80A0D811E810F5F40
:1004B0001F4F8DB79EB78E199F090FB6F8949EBF38
:1004C0000FBE8DBF01965C018DB79EB7801B910B4F
:1004D0000FB6F8949EBF0FBE8DBF01966C0120E051
:1004E00030E0A701B501CE0107960E949B0E20E0E7
:1004F00030E0A801B601CE0101960E949B0E6EED80
:1005000071E089E893E00E94330CB60189E893E03A
:100510000E94330CB50189E893E00E94330C4E2D04
:10052000B5018AEA92E00E944307811106C067EA9A
:1005300070E089E893E00E940F0C402FB6018AEA30
:1005400092E00E944307811106C06CE870E089E8E0
:1005500093E00E940F0CCE0101960E94E50DCE01A2
:1005600007960E94E50D0FB6F8949EBE0FBE8DBE95
:1005700033C08AEA92E00E948B064CE065E272E0AA
:100580008AEA92E00E944307811126C060E870E089
:100590001FC08AEA92E00E948B064CE065E272E09E
:1005A0008AEA92E00E944307811116C064E770E076
:1005B0000FC08AEA92E00E948B064CE065E272E08E
:1005C0008AEA92E00E944307811106C068E670E063
:1005D00089E893E00E940F0C66EF71E089E893E0F0
:1005E0000E94330C60E177E280E090E00E944E0FC1
:1005F00063E072E089E893E00E94330C0FB6F89450
:100600007EBE0FBE6DBE2C960FB6F894DEBF0FBE39
:10061000CDBFDF91CF911F910F91FF90EF90DF90B1
:10062000CF90BF90AF909F908F907F906F900895E4
:1006300048E067E08AEA92E00C947906613298F427
:1006400020913603243089F46093EB02FC018DEE97
:1006500092E0DC012A2F281B261718F421912D93F4
:10066000F9CF80E0089581E0089582E0089585ED56
:100670008093BC008091BC0084FDFCCF10923603B7
:10068000089585EC8093BC001092360308951F9264
:100690000F920FB60F9211242F933F934F935F93B6
:1006A0006F937F938F939F93AF93BF93EF93FF933A
:1006B0008091B900887F803609F49CC068F5883243
:1006C00009F45BC090F4803109F454C038F48823F5
:1006D00009F4F5C0883009F44DC0F5C0883109F43B
:1006E0004CC0803209F45DC0EEC0803409F468C0AB
:1006F00048F4803309F455C0883309F0E4C080938E
:10070000C902A8C0803509F44FC0883509F45DC01E
:10071000883409F0D8C0D5C0883909F4C6C0A8F417
:10072000883709F467C038F4883609F463C0803725
:1007300009F460C0C8C0883809F4B7C0803909F42A
:100740005FC0803809F0BFC05BC0803B09F485C042
:1007500038F4803A09F466C0883A09F47EC0B3C020
:10076000803C09F4A6C0883C09F4A3C0883B09F486
:1007700089C0A9C08091350310C090910E0380916B
:100780000D03981770F5E0910E0381E08E0F8093B2
:100790000E03F0E0E15FFC4F80818093BB0085ECAD
:1007A00085C08093C9028DC0E0910E0381E08E0F59
:1007B00080930E038091BB00F0E0E15FFC4F8083EB
:1007C00090910E0380910D036DC0E0910E0381E0C6
:1007D0008E0F80930E038091BB00F0E0E15FFC4F31
:1007E00080838091340381116CC081E08093330356
:1007F00084EA60C083E0809336031092CA02CFCFB0
:100800008091CA02803208F050C0E091CA0281E0B3
:100810008E0F8093CA028091BB00F0E0E553FD4F3C
:100820008083BDCF8091CA02803230F4E091CA0249
:10083000F0E0E553FD4F10820E9437036091CA0239
:1008400070E0E0912F03F09130038BEC92E009957A
:100850001092CA020E94410336C084E0809336039E
:100860001092EC021092EB02E0913103F09132030E
:1008700009958091EB02811105C081E08093EB0224
:100880001092ED02E091EC0281E08E0F8093EC0279
:10089000F0E0E351FD4F80818093BB009091EC022A
:1008A0008091EB02981708F47ACF85E88093BC001A
:1008B0000AC085EC8093BC001092360304C01092ED
:1008C000C9020E943703FF91EF91BF91AF919F91B1
:1008D0008F917F916F915F914F913F912F910F90E9
:1008E0000FBE0F901F9018958091660390E02091A5
:1008F0006703821B91090895209167038091660325
:10090000281750F4E22FF0E0E859FC4F808190E086
:100910002F5F2093670308958FEF9FEF0895E09175
:10092000670380916603E81730F4F0E0E859FC4F64
:10093000808190E008958FEF9FEF08950895CF9202
:10094000DF92EF92FF920F931F93CF93DF937C017F
:10095000CB018A0120914303222389F0EB016B0133
:10096000C40ED51ECC15DD0569F06991D701ED9156
:10097000FC910190F081E02DC7010995F3CF642F20
:100980000E941E03C801DF91CF911F910F91FF902C
:10099000EF90DF90CF900895CF93DF931F92CDB764
:1009A000DEB76983209143032223D1F020914403D1
:1009B000203240F021E030E0FC013383228380E0EC
:1009C00090E015C080914503E82FF0E0EA5BFC4F12
:1009D000998190838F5F809345038093440305C082
:1009E00061E0CE0101960E941E0381E090E00F902D
:1009F000DF91CF910895FC011382128248EE53E0FB
:100A000060E070E0448355836683778385E392E0FA
:100A100091838083089587E393E00C94FB04CF9344
:100A2000CFB7F89480918803811127C0E4E6F1E004
:100A30008491E0E5F1E09491E82FF0E0EE0FFF1FE4
:100A4000EE57FE4FA591B4918C91892321F461E07A
:100A50008AE00E941E1061E08AE00E94E50F8CB5DA
:100A600080618CBD8CB580648CBD61E08DE00E949E
:100A7000E50F61E08BE00E94E50F809188038F5FB6
:100A800080938803CFBFCF9108958EBD00000DB431
:100A900007FEFDCF8EB508952CB52F7D2CBD2CB54E
:100AA000237F2CBD2CB52C7F2CBD2DB521602DBDF9
:100AB000FC0181810E941E1085E090E00C94760F6D
:100AC000FC018081918189130C941E10089560E0CF
:100AD0000C944C0561E00C944C05EF92FF921F932F
:100AE000CF93DF931F92CDB7DEB77C0169830E945D
:100AF00067056981862F8F710E9445058FEF0E94DF
:100B00004505182FC7010E946A05812F0F90DF91BC
:100B1000CF911F91FF90EF900895CF92DF92EF92C7
:100B2000FF920F931F93CF93DF9300D01F92CDB707
:100B3000DEB78C01F22E4A835B8369830E946705CE
:100B40006981862F8F7180620E944505E82E4A8157
:100B5000C42E5B81D52EF40EFC1431F0F601819188
:100B60006F010E944505F8CFC8010E946A058E2DCD
:100B70000F900F900F90DF91CF911F910F91FF90E9
:100B8000EF90DF90CF900895EF92FF921F93CF9355
:100B9000DF9300D0CDB7DEB77C011F924F931F9239
:100BA0006F9320E131E03F932F934A8369830E9442
:100BB000E114C7010E9467056981862F8F718062E9
:100BC0000E944505182F4A81842F0E944505C701C0
:100BD0000E946A050F900F900F900F900F900F904A
:100BE000812F0F900F90DF91CF911F91FF90EF9089
:100BF0000895AF92BF92DF92EF92FF920F931F93EF
:100C0000CF93DF9300D01F92CDB7DEB78C01FC01EC
:100C1000E580F42EE41608F4FE2CF801868181119B
:100C200002C0EF1801C0E12C1F92EF921F92FF92B9
:100C3000E1E4F2E0FF93EF9329836A837B830E94D0
:100C4000CD14C8010E9467052981822F0E944505A5
:100C5000D82E0F900F900F900F900F900F906A81E9
:100C6000A62E7B81B72EF60EFA1431F0F501819194
:100C70005F010E944505F8CFEE2029F080E00E9438
:100C80004505EA94F9CFC8010E946A058D2D0F90A1
:100C90000F900F90DF91CF911F910F91FF90EF90E8
:100CA000DF90BF90AF900895EF92FF921F93CF9384
:100CB000DF931F92CDB7DEB77C0169830E94670581
:100CC0006981862F0E944505182FC7010E946A0579
:100CD000812F0F90DF91CF911F91FF90EF9008959A
:100CE00062EE0C94540661EE0C9454066FEF0C9473
:100CF0005406FC0160834183148280E2858316825E
:100D000085E0848717820895462F6E3708F04DE7F7
:100D100065E00C94C405CF93DF93EC0160E00E9482
:100D200060058D859E850E94760F6DE1CE010E9443
:100D30006D0581FF07C08D859E850E94760FCE01CF
:100D40000E94730660E0CE010E946D05482F4E7F21
:100D500060E0CE010E94C40562E0CE010E946D05F4
:100D6000ECE2F1E0E49121E030E001C0220FEA95ED
:100D7000EAF7822B482F62E0CE01DF91CF910C94ED
:100D8000C405CF93DF93EC0160E00E946D0581FD07
:100D900012C060E0CE010E946D05482F426060E005
:100DA000CE010E94C40565E070E080E090E0DF9134
:100DB000CF910C944E0FDF91CF910895CF93DF9395
:100DC000EC012FEB30E03F932F930E94E11481E080
:100DD000898B0F900F90DF91CF9108950F93CF9350
:100DE000DF93EC01222311F020EB01C020EACE01B9
:100DF0000E94F905002339F061E0CE01DF91CF9127
:100E00000F910C946005DF91CF910F910895CF92CF
:100E1000DF92EF92FF920F93CF93DF93EC0101E00B
:100E20000E94EE060E941F0F6B017C01CE010E9402
:100E30007606807379F40E941F0F6C197D098E0964
:100E40009F09663571058105910580F3CE010E94E9
:100E5000DE060EC060E0CE010E94600540E767E05C
:100E6000CE010E94C40584FF05C0CE010E94730616
:100E700080E001C081E0DF91CF910F91FF90EF9072
:100E8000DF90CF90089520E00C9407070F931F93F5
:100E9000CF93DF93EC018B012C85AB016AE00E94BC
:100EA0008D052C85A80160E1CE010E948D054D8144
:100EB00061E1CE01DF91CF911F910F910C94C40598
:100EC0001F93CF93DF93EC01162F62E00E946D0514
:100ED000E12FF0E0E45DFE4FE49141E050E001C01D
:100EE000440FEA95EAF74095482362E0CE01DF918E
:100EF000CF911F910C94C405CF93DF93EC010E9416
:100F0000C10660E0CE010E946D05482F416060E09F
:100F1000CE010E94C40540E767E0CE010E94C405EF
:100F200061E0CE010E9460058F81882349F02C8505
:100F3000AE01495F5F4F6AE0CE010E948D0504C09B
:100F400060E0CE010E9460076DE1CE010E946D0558
:100F500081FF05C0CE01DF91CF910C947306DF9124
:100F6000CF910895CF93DF93EC010E94670580E550
:100F70000E94450583E70E944505CE01DF91CF9190
:100F80000C946A051F93CF93DF93EC01162F66E054
:100F90000E946D05887F143020F4612F660F6F5F0B
:100FA00001C067E0462F482B66E0CE01DF91CF916C
:100FB0001F910C94C405EF92FF920F931F93CF9350
:100FC000DF931F92CDB7DEB77C018B0166E00E94F4
:100FD0006D05582F577D0230110531F450620BE931
:100FE00010E020E030E00DC00130110529F005E5EA
:100FF00010E020E030E005C0586001E410E020E09F
:1010000030E0F701058716872787308B452F66E08C
:10101000C70159830E94C40566E0C7010E946D059F
:1010200091E05981851390E0892F0F90DF91CF9146
:101030001F910F91FF90EF900895CF93DF93EC01F4
:1010400088819981891719F061E00E94E50F8981F3
:101050009881981719F061E00E94E50F0E940F0532
:1010600060E0CE010E94600561E0CE010E944C0567
:1010700065E070E080E090E00E944E0F4CE060E0A0
:10108000CE010E94C4054FE564E0CE010E94C40574
:1010900062E070E0CE010E94DB07882311F081E05E
:1010A0008C8360E070E0CE010E94DB07CE010E94DD
:1010B000B20740E06DE1CE010E94C40540E06CE162
:1010C000CE010E94C40540E767E0CE010E94C4053E
:1010D0006CE4CE010E948406CE010E947006CE010F
:1010E0000E947306CE010E94C10660E0CE010E94FC
:1010F0006D05482F4E7F60E0CE010E94C40580E060
:10110000DF91CF9108954F925F926F927F928F926D
:101110009F92AF92BF92CF92DF92EF92FF920F9386
:101120001F93CF93DF9300D0CDB7DEB77C01D62ECF
:1011300070E0FB01EA5BFE4FC490FB01E65AFE4FF4
:10114000E491F0E0EE0FFF1FE259FE4F45905490FE
:1011500061E08D2D2A8349830E94E50F60E08D2D8B
:101160000E941E1088EE93E04981BC01469FC00199
:10117000479F900D11240E94760F61E08D2D0E94F3
:101180001E1060E08D2D0E94E50F80E293E02A8121
:10119000F20130813C2121F00197D1F78DEF66C03B
:1011A00080E991E0F20130813C2121F40197D1F7EF
:1011B0008CEF5CC080E991E0F20130813C2121F0AC
:1011C0000197D1F78BEF52C0F8E2BF2EA0E9B1E052
:1011D00040E050E080E991E060E0912C812C10E843
:1011E000612E7B2C721A00E911E020E030E0F20160
:1011F000A080AC2051F5662341F17B1490F4A81730
:10120000B90708F4CD01B901A801481B590B6109C0
:101210007109E2E07595679557954795EA95D1F77D
:1012200007C0BC01641B750B6A177B0708F0962882
:10123000669441F4F701E80DF11D90868394912C9A
:1012400060E8662EBA94A0E9B1E0119771F0BB2076
:1012500011F06A2DCCCF61E08D2D0E94E50F61E089
:101260008D2D0E941E1080E001C08EEF0F900F9018
:10127000DF91CF911F910F91FF90EF90DF90CF9072
:10128000BF90AF909F908F907F906F905F904F90A6
:101290000895CF92DF92EF92FF920F931F93CF9317
:1012A000DF93EC0126E041E00E948308E82E1885D8
:1012B00013701887CA840C2D03780A87F984612F6C
:1012C00070E0762F66276F0D711D882777FD80955A
:1012D000982F0E9459112DEC3CEC4CEC5DE30E94E0
:1012E0000D12688379838A839B83DB846C2D637002
:1012F00070E0762F66276D0D711D882777FD80952C
:10130000982F0E9459112DEC3CEC4CEC5DE30E94AF
:101310000D1207FD05C06C837D838E839F8307C0FC
:10132000DC01CB01B0588C839D83AE83BF83FD0C61
:10133000F10EF00E8C858F1511F08FEF01C08E2D00
:10134000DF91CF911F910F91FF90EF90DF90CF90A1
:101350000895FC01818D228D90E0805C9F4F821B5F
:1013600091098F7399270895FC01918D828D9817AB
:1013700031F0828DE80FF11D858D90E008958FEF9B
:101380009FEF0895FC01918D828D981761F0828DF9
:10139000DF01A80FB11D5D968C91928D9F5F9F73A9
:1013A000928F90E008958FEF9FEF089586E49BE081
:1013B000892B49F080E090E0892B29F00E94460BB0
:1013C00081110C9400000895FC01848DDF01A80FA9
:1013D000B11DA35ABF4F2C91848D90E001968F735D
:1013E0009927848FA689B7892C93A089B1898C917C
:1013F00080648C93938D848D981306C00288F38942
:10140000E02D80818F7D80830895CF93DF93EC0161
:10141000888D8823C9F0EA89FB89808185FD05C014
:10142000A889B9898C9186FD0FC00FB607FCF5CF4E
:10143000808185FFF2CFA889B9898C9185FFEDCF96
:10144000CE010E94E409E7CFDF91CF910895CF92BA
:10145000DF92FF920F931F93CF93DF931F92CDB72D
:10146000DEB76C0181E0D60158968C9358975B9655
:101470009C915B975C968C915C97981307C05096F3
:10148000ED91FC915197808185FD2EC0F601038D71
:1014900010E00F5F1F4F0F731127F02EF601848DA0
:1014A000F81211C00FB607FCF9CFD6015096ED9196
:1014B000FC915197808185FFF1CFC60169830E941D
:1014C000E4096981EBCF838DE80FF11DE35AFF4FEB
:1014D0006083D6015B960C935B975296ED91FC91DD
:1014E0005397808180620CC0D6015696ED91FC9195
:1014F000579760835096ED91FC915197808180645D
:10150000808381E090E00F90DF91CF911F910F9148
:10151000FF90DF90CF900895BF92CF92DF92EF922D
:10152000FF92CF93DF93EC016A017B01B22EE88931
:10153000F98982E08083411581EE580761057105C4
:10154000A1F060E079E08DE390E0A70196010E94B0
:101550007412215031094109510956954795379523
:101560002795211580E1380798F0E889F9891082DC
:1015700060E874E88EE190E0A70196010E94741281
:1015800021503109410951095695479537952795BD
:10159000EC85FD853083EE85FF852083188EEC89F0
:1015A000FD89B082EA89FB89808180618083EA8934
:1015B000FB89808188608083EA89FB8980818068DB
:1015C0008083EA89FB8980818F7D8083DF91CF9141
:1015D000FF90EF90DF90CF90BF9008951F920F92F1
:1015E0000FB60F9211242F938F939F93EF93FF9336
:1015F000E0919903F0919A038081E0919F03F0912B
:10160000A00382FD12C090818091A2038F5F8F732F
:101610002091A303821751F0E091A203F0E0E75775
:10162000FC4F958F8093A20301C08081FF91EF91C1
:101630009F918F912F910F900FBE0F901F90189533
:101640001F920F920FB60F9211242F933F934F9337
:101650005F936F937F938F939F93AF93BF93EF931A
:10166000FF9389E893E00E94E409FF91EF91BF9115
:10167000AF919F918F917F916F915F914F913F912A
:101680002F910F900FBE0F901F90189589E893E04F
:101690000E94A90921E0892B09F420E0822F0895F6
:1016A00010928C0310928B0388EE93E0A0E0B0E0E0
:1016B00080938D0390938E03A0938F03B093900338
:1016C0008EE892E090938A038093890385EC90E002
:1016D000909396038093950384EC90E09093980305
:1016E0008093970380EC90E090939A038093990302
:1016F00081EC90E090939C0380939B0382EC90E0BC
:1017000090939E0380939D0386EC90E09093A003BA
:1017100080939F031092A2031092A3031092A4033C
:101720001092A5030895CF92DF92EF92FF920F934C
:101730001F93CF93DF936C017A01EB01E60EF71E46
:1017400000E010E0CE15DF0561F06991D601ED9162
:10175000FC910190F081E02DC6010995080F191F39
:10176000F1CFC801DF91CF911F910F91FF90EF90C2
:10177000DF90CF9008956115710581F0DB010D9028
:101780000020E9F7AD0141505109461B570BDC0120
:10179000ED91FC910280F381E02D099480E090E0CE
:1017A0000895EF92FF920F931F93CF93DF938C01D5
:1017B000FB01C0E0D0E064917F018FEFE81AF80AE6
:1017C000662361F0D801ED91FC910190F081E02D4C
:1017D000C8010995C80FD91FF701EDCFCE01DF91E0
:1017E000CF911F910F91FF90EF900895DC01ED9143
:1017F000FC91DB0114964D915C9115976D917C9154
:101800000280F381E02D0994DC01ED91FC910190BF
:10181000F081E02D099467E872E00C94BB0B0F9304
:101820001F93CF93DF93EC010E94D10B8C01CE016B
:101830000E940B0C800F911FDF91CF911F910F9190
:1018400008950F931F93CF93DF93EC010E94F60B43
:101850008C01CE010E940B0C800F911FDF91CF9164
:101860001F910F9108950F931F93CF93DF93EC0176
:101870000E94BB0B8C01CE010E940B0C800F911FAC
:10188000DF91CF911F910F9108958F929F92AF9208
:10189000BF92CF92DF92EF92FF920F931F93CF935D
:1018A000DF93CDB7DEB7A1970FB6F894DEBF0FBEBA
:1018B000CDBF7C01C42EE52FCB01D22E19A221E091
:1018C0002D1510F02AE0D22E8E010F5D1F4F8D2CAA
:1018D000912CA12CB12C6C2D7E2FA50194010E947E
:1018E00074128C2DD29E80191124015011098A3056
:1018F00014F4805D01C0895CF801808321153105F5
:101900004105510521F0C22EE32FCA01E4CFB801F1
:10191000C7010E94BB0BA1960FB6F894DEBF0FBEA5
:10192000CDBFDF91CF911F910F91FF90EF90DF908E
:10193000CF90BF90AF909F908F900895CF92DF92FD
:10194000EF92FF920F931F93CF93DF93EC016A0105
:101950007B012115310579F4E881F9810190F0814D
:10196000E02D642FDF91CF911F910F91FF90EF90A9
:10197000DF90CF9009942A303105E9F477FF1AC03F
:101980006DE20E94040C8C0144275527BA014C19C2
:101990005D096E097F092AE0CE010E94450C800F87
:1019A000911FDF91CF911F910F91FF90EF90DF90EA
:1019B000CF9008952AE0B701A601CE01DF91CF9123
:1019C0001F910F91FF90EF90DF90CF900C94450CFA
:1019D0004F925F926F927F928F929F92AF92BF923F
:1019E000CF92DF92EF92FF920F931F93CF93DF93EB
:1019F000EC016A017B01B22E9A01AB01C701B6016D
:101A00000E947012882319F06AE972E027C026014B
:101A10003701E89477F82FEF3FEF4FE75FE7C30117
:101A2000B2010E94701281110DC02FEF3FEF4FE7FE
:101A30005FE7C301B2010E94BA1018161CF46EE9E8
:101A400072E00CC02FEF3FEF4FE75FE4C701B60134
:101A50000E9409121816ACF462EA72E0CE01DF911E
:101A6000CF911F910F91FF90EF90DF90CF90BF909B
:101A7000AF909F908F907F906F905F904F900C945D
:101A8000BB0B2FEF3FEF4FE75FECC701B6010E94A2
:101A9000BA1087FDE1CF20E030E0A901C701B6010F
:101AA0000E94BA1087FF0AC06DE2CE010E94040CAA
:101AB0008C01F7FAF094F7F8F09402C000E010E01F
:101AC000A12C60E070E080E09FE3AB1441F020E0E7
:101AD00030E040E251E40E94BE10A394F6CF9B0197
:101AE000AC01C701B6010E9456106B017C010E9437
:101AF0002B112B013C010E9457119B01AC01C70126
:101B0000B6010E9455106B017C012AE0B301A201CD
:101B1000CE010E94450C080F191FBB2039F066EA60
:101B200072E0CE010E94BB0B080F191F7B2C77209F
:101B300041F120E030E040E251E4C701B6010E94EB
:101B40000D126B017C010E9426114B01AA2497FC07
:101B5000A094BA2C2AE030E0B501A401CE010E9485
:101B60009E0C080F191FC501B4010E9459119B0159
:101B7000AC01C701B6010E9455106B017C017A943B
:101B8000D6CFC801DF91CF911F910F91FF90EF90B9
:101B9000DF90CF90BF90AF909F908F907F906F908D
:101BA0005F904F9008950F931F93CF93DF93EC01B5
:101BB0000E94E80C8C01CE010E940B0C800F911F3B
:101BC000DF91CF911F910F910895FC018081918148
:101BD0000C945513CF93DF93EC0188819981009782
:101BE00011F00E945513198218821D821C821B82DB
:101BF0001A82DF91CF9108950F931F93CF93DF93B4
:101C0000EC018B016F5F7F4F888199810E94E41303
:101C1000009731F0998388831B830A8381E001C098
:101C200080E0DF91CF911F910F910895CF93DF93C3
:101C3000EC0188819981892B29F08A819B81861703
:101C4000970760F4CE010E94FC0D882341F08C813F
:101C50009D81892B19F4E881F981108281E0DF915F
:101C6000CF910895EF92FF920F931F93CF93DF933D
:101C7000EC017B018A01BA010E94160E811104C099
:101C8000CE010E94EA0D07C01D830C83B701888135
:101C900099810E94B714CE01DF91CF911F910F91CE
:101CA000FF90EF900895CF93DF93EC0161157105DC
:101CB00061F0FB0101900020E9F7AF0141505109AB
:101CC000461B570B0E94320E02C00E94EA0DCE0145
:101CD000DF91CF910895EF92FF920F931F93CF93CF
:101CE000DF93CDB7DEB7A1970FB6F894DEBF0FBE76
:101CF000CDBF7C01CB01BA01F701118210821382A2
:101D000012821582148242E0420F8E010F5F1F4F34
:101D10000E949C12BC01C7010E94530EA1960FB6EF
:101D2000F894DEBF0FBECDBFDF91CF911F910F9111
:101D3000FF90EF9008950F931F93CF93DF93EB01E4
:101D400041155105E9F02097D9F0FC0164817581B6
:101D500026173707A0F4621B730B8A010150110983
:101D60006017710708F48B01FC0160817181620FBB
:101D7000731FA801CE010E94BE14C00FD11F18828C
:101D8000DF91CF911F910F91089508950E94810FC7
:101D90000E94C50E0E947001C6EDD9E00E94AF01FD
:101DA0002097E1F30E94D609F9CF1F920F920FB648
:101DB0000F9211242F933F938F939F93AF93BF93D1
:101DC0008091270490912804A0912904B0912A04BD
:101DD0003091260423E0230F2D3720F40196A11D16
:101DE000B11D05C026E8230F0296A11DB11D209349
:101DF00026048093270490932804A0932904B09389
:101E00002A0480912B0490912C04A0912D04B09170
:101E10002E040196A11DB11D80932B0490932C04D8
:101E2000A0932D04B0932E04BF91AF919F918F91F9
:101E30003F912F910F900FBE0F901F9018952FB7C5
:101E4000F89460912704709128048091290490915E
:101E50002A042FBF08953FB7F89480912B049091E6
:101E60002C04A0912D04B0912E0426B5A89B05C08A
:101E70002F3F19F00196A11DB11D3FBF6627782F96
:101E8000892F9A2F620F711D811D911D42E0660FEF
:101E9000771F881F991F4A95D1F70895CF92DF9237
:101EA000EF92FF92CF93DF936B017C010E942B0F87
:101EB000EB01C114D104E104F10489F00E94541033
:101EC0000E942B0F6C1B7D0B683E734090F381E0EA
:101ED000C81AD108E108F108C851DC4FEACFDF91F8
:101EE000CF91FF90EF90DF90CF90089582309105D1
:101EF00038F0880F991F880F991F05970197F1F700
:101F00000895789484B5826084BD84B5816084BD71
:101F100085B5826085BD85B5816085BDEEE6F0E062
:101F2000808181608083E1E8F0E0108280818260BE
:101F30008083808181608083E0E8F0E0808181603F
:101F40008083E1EBF0E0808184608083E0EBF0E06F
:101F5000808181608083EAE7F0E080818460808313
:101F600080818260808380818160808380818068BD
:101F700080831092C1000895833081F028F481306D
:101F800099F08230A1F008958730A9F08830B9F037
:101F90008430D1F4809180008F7D03C080918000D7
:101FA0008F7780938000089584B58F7702C084B5C1
:101FB0008F7D84BD08958091B0008F7703C080919C
:101FC000B0008F7D8093B0000895CF93DF9390E0B1
:101FD000FC01EA5BFE4F2491FC01E65AFE4F84911E
:101FE000882349F190E0880F991FFC01EE57FE4FBE
:101FF000A591B49188589E4FFC01C591D4919FB78B
:10200000611108C0F8948C91209582238C9388816B
:1020100082230AC0623051F4F8948C91322F3095AB
:1020200083238C938881822B888304C0F8948C91BD
:10203000822B8C939FBFDF91CF9108950F931F93B5
:10204000CF93DF931F92CDB7DEB7282F30E0F90191
:10205000EE5CFE4F8491F901EA5BFE4F1491F901A9
:10206000E65AFE4F04910023C9F0882321F06983CA
:102070000E94BC0F6981E02FF0E0EE0FFF1FE858CF
:10208000FE4FA591B4919FB7F8948C91611103C054
:102090001095812301C0812B8C939FBF0F90DF91FE
:1020A000CF911F910F91089508955058BB27AA27EB
:1020B0000ED075C166D130F06BD120F031F49F3F66
:1020C00011F41EF45BC10EF4E095E7FB51C1E92F5A
:1020D00077D180F3BA17620773078407950718F062
:1020E00071F49EF58FC10EF4E0950B2EBA2FA02D42
:1020F0000B01B90190010C01CA01A0011124FF27B5
:10210000591B99F0593F50F4503E68F11A16F040AF
:10211000A22F232F342F4427585FF3CF46953795AE
:102120002795A795F0405395C9F77EF41F16BA0B73
:10213000620B730B840BBAF09150A1F0FF0FBB1F21
:10214000661F771F881FC2F70EC0BA0F621F731F6A
:10215000841F48F4879577956795B795F7959E3FC7
:1021600008F0B3CF9395880F08F09927EE0F979555
:1021700087950895D9D008F481E008950CD00FC157
:1021800007D140F0FED030F021F45F3F19F0F0C0ED
:10219000511139C1F3C014D198F39923C9F35523D0
:1021A000B1F3951B550BBB27AA276217730784074A
:1021B00038F09F5F5F4F220F331F441FAA1FA9F300
:1021C00033D00E2E3AF0E0E830D091505040E695F2
:1021D000001CCAF729D0FE2F27D0660F771F881F53
:1021E000BB1F261737074807AB07B0E809F0BB0B42
:1021F000802DBF01FF2793585F4F2AF09E3F510566
:1022000068F0B6C000C15F3FECF3983EDCF3869502
:1022100077956795B795F7959F5FC9F7880F911DDB
:102220009695879597F90895E1E0660F771F881FC7
:10223000BB1F621773078407BA0720F0621B730B7A
:10224000840BBA0BEE1F88F7E095089504D06894CC
:10225000B111D9C00895BCD088F09F5790F0B92F24
:102260009927B751A0F0D1F0660F771F881F991FEB
:102270001AF0BA95C9F712C0B13081F0C3D0B1E0FD
:102280000895C0C0672F782F8827B85F39F0B93F0D
:10229000CCF3869577956795B395D9F73EF49095ED
:1022A0008095709561957F4F8F4F9F4F0895E8946B
:1022B00009C097FB3EF490958095709561957F4F8E
:1022C0008F4F9F4F9923A9F0F92F96E9BB2793953C
:1022D000F695879577956795B795F111F8CFFAF44C
:1022E000BB0F11F460FF1BC06F5F7F4F8F4F9F4F7D
:1022F00016C0882311F096E911C0772321F09EE8DB
:10230000872F762F05C0662371F096E8862F70E040
:1023100060E02AF09A95660F771F881FDAF7880F1A
:102320009695879597F90895990F0008550FAA0B70
:10233000E0E8FEEF16161706E807F907C0F01216D8
:102340001306E407F50798F0621B730B840B950BDB
:1023500039F40A2661F0232B242B252B21F4089530
:102360000A2609F4A140A6958FEF811D811D0895CD
:1023700097F99F6780E870E060E008959FEF80EC38
:10238000089500240A9416161706180609060895DB
:1023900000240A9412161306140605060895092E41
:1023A0000394000C11F4882352F0BB0F40F4BF2BB0
:1023B00011F460FF04C06F5F7F4F8F4F9F4F0895F0
:1023C00057FD9058440F551F59F05F3F71F04795E6
:1023D000880F97FB991F61F09F3F79F087950895CB
:1023E000121613061406551FF2CF4695F1DF08C0EA
:1023F000161617061806991FF1CF86957105610507
:1024000008940895E894BB2766277727CB0197F9AE
:1024100008958ADF08F48FEF08950BD0C0CFB1DFA5
:1024200028F0B6DF18F0952309F0A2CFA7CF11242A
:10243000EACFC6DFA0F3959FD1F3950F50E0551F6B
:10244000629FF001729FBB27F00DB11D639FAA2709
:10245000F00DB11DAA1F649F6627B00DA11D661F58
:10246000829F2227B00DA11D621F739FB00DA11D79
:10247000621F839FA00D611D221F749F3327A00D33
:10248000611D231F849F600D211D822F762F6A2FCF
:1024900011249F5750408AF0E1F088234AF0EE0F54
:1024A000FF1FBB1F661F771F881F91505040A9F761
:1024B0009E3F510570F05CCFA6CF5F3FECF3983E96
:1024C000DCF3869577956795B795F795E7959F5FC8
:1024D000C1F7FE2B880F911D9695879597F9089562
:1024E00023DF880B990B0895A1E21A2EAA1BBB1BB0
:1024F000FD010DC0AA1FBB1FEE1FFF1FA217B307D0
:10250000E407F50720F0A21BB30BE40BF50B661FE5
:10251000771F881F991F1A9469F7609570958095A9
:1025200090959B01AC01BD01CF010895EE0FFF1FF7
:102530000590F491E02D0994EF920F931F93CF93A0
:10254000DF93E80147FF02C034E101C034E0E42F2B
:10255000FF27E7FDF095F7FF03C0F195E195F1093D
:10256000E32E022F2E2FAE010E94D516CE01DF9151
:10257000CF911F910F91EF900895CF93DF93823009
:10258000910510F482E090E0E0913104F091320482
:1025900020E030E0A0E0B0E0309739F14081518197
:1025A00048175907B8F04817590771F48281938189
:1025B000109729F013969C938E9312972CC09093AA
:1025C00032048093310427C02115310531F04217C0
:1025D000530718F0A901DB0101C0EF019A01BD0109
:1025E000DF010280F381E02DD7CF21153105F9F00D
:1025F000281B390B2430310580F48A819B816115B9
:10260000710521F0FB019383828304C0909332040F
:1026100080933104FE01329644C0FE01E20FF31FA5
:102620008193919322503109398328833AC02091B4
:102630002F0430913004232B41F42091020130917A
:1026400003013093300420932F0420910001309136
:1026500001012115310541F42DB73EB74091040128
:1026600050910501241B350BE0912F04F0913004AB
:10267000E217F307A0F42E1B3F0B2817390778F059
:10268000AC014E5F5F4F2417350748F04E0F5F1FB8
:102690005093300440932F048193919302C0E0E063
:1026A000F0E0CF01DF91CF910895CF93DF930097B2
:1026B00009F487C0FC01329713821282C091310461
:1026C000D0913204209781F420813181280F391F65
:1026D00080912F04909130048217930779F5F0933D
:1026E0003004E0932F046DC0DE0120E030E0AE172F
:1026F000BF0750F412964D915C9113979D014115BF
:10270000510509F1DA01F3CFB383A28340815181EE
:10271000840F951F8A179B0771F48D919C911197D7
:10272000840F951F02969183808312968D919C91C0
:102730001397938382832115310529F4F093320492
:10274000E09331043EC0D9011396FC93EE931297A7
:102750004D915D91A40FB51FEA17FB0779F48081B5
:102760009181840F951F0296D90111969C938E93A7
:102770008281938113969C938E931297E0E0F0E010
:102780008A819B81009719F0FE01EC01F9CFCE01FF
:10279000029628813981820F931F20912F04309156
:1027A00030042817390769F4309729F4109232045D
:1027B0001092310402C013821282D0933004C0936D
:1027C0002F04DF91CF910895A0E0B0E0EAEEF3E1AD
:1027D0000C94D519EC01CB01209719F40E94BD127D
:1027E000B8C0FE01E60FF71F9E0122503109E21723
:1027F000F30708F4ACC0D9010D911C91119706178D
:102800001707B8F00530110508F49FC0A80144501F
:1028100051094617570708F498C002501109061BC2
:10282000170B019311936D937C93CF010E94551365
:102830008CC05B01A01AB10A4E01800E911EA091BE
:102840003104B0913204612C712C60E070E010977B
:1028500009F449C0A815B905C9F5ED90FC90119788
:10286000670142E0C40ED11CCA14DB0478F14701B1
:102870008A189B08640142E0C40ED11C1296BC90D9
:1028800012971396AC91B5E0CB16D10440F0B2820A
:10289000A38391828082D9018D939C9309C00E5F9E
:1028A0001F4F0E0D1F1DF90111830083EB2DFA2F11
:1028B0006115710531F0DB011396FC93EE931297CD
:1028C00044C0F0933204E09331043FC06D917C9199
:1028D00011976616770608F43B01BD0112960D901C
:1028E000BC91A02DB4CF60912F0470913004681575
:1028F0007905E9F468167906D0F440910001509109
:1029000001014115510541F44DB75EB760910401D5
:1029100070910501461B570BE417F507C0F4F093BF
:102920003004E0932F04F901918380830EC00E944C
:10293000BD127C01009759F0A801BE010E94AE149F
:10294000CE010E945513C70104C0CE0102C080E031
:1029500090E0CDB7DEB7EEE00C94F119FB01DC019D
:1029600002C001900D9241505040D8F70895FB01EC
:10297000DC0101900D920020E1F70895FB01DC01DC
:102980004150504048F001900D920020C9F701C01D
:102990001D9241505040E0F70895A0E0B0E0E3ED13
:1029A000F4E10C94E119FE01359661917191AF014A
:1029B00080913504909136040E940315E2E00C9456
:1029C000FD19A0E0B0E0E7EEF4E10C94DF19FE01A0
:1029D00037966191719105E314E0D8018D919C9136
:1029E000DC0113962C911397286013962C93AF015A
:1029F0000E940315D801ED91FC912381277F238349
:102A0000E4E00C94FB19ACE0B0E0E9E0F5E10C94F3
:102A1000D1197C016B018A01FC0117821682838126
:102A200081FFBDC1CE0101964C01F7019381F601F2
:102A300093FD859193FF81916F01882309F4ABC1C8
:102A4000853239F493FD859193FF81916F01853231
:102A500029F4B70190E00E944119E7CF512C312CA5
:102A600020E02032A0F48B3269F030F4803259F04B
:102A7000833269F420612CC08D3239F0803339F40F
:102A8000216026C02260246023C0286021C027FD69
:102A900027C030ED380F3A3078F426FF06C0FAE050
:102AA0005F9E300D1124532E13C08AE0389E300DE6
:102AB0001124332E20620CC08E3221F426FD6BC10E
:102AC000206406C08C3611F4206802C0883641F4B8
:102AD000F60193FD859193FF81916F018111C1CF23
:102AE000982F9F7D9554933028F40C5F1F4FFFE380
:102AF000F9830DC0833631F0833771F0833509F0E7
:102B00005BC022C0F801808189830E5F1F4F44247F
:102B10004394512C540115C03801F2E06F0E711C22
:102B2000F801A080B18026FF03C0652D70E002C0CF
:102B30006FEF7FEFC5012C870E9436192C018301AE
:102B40002C852F77222E17C03801F2E06F0E711CF2
:102B5000F801A080B18026FF03C0652D70E002C09F
:102B60006FEF7FEFC5012C870E942B192C012C855C
:102B70002068222E830123FC1BC0832D90E0481681
:102B80005906B0F4B70180E290E00E9441193A94EE
:102B9000F4CFF50127FC859127FE81915F01B701F4
:102BA00090E00E94411931103A94F1E04F1A510817
:102BB0004114510471F7E5C0843611F0893639F5B6
:102BC000F80127FF07C060817181828193810C5FCA
:102BD0001F4F08C060817181882777FD8095982FED
:102BE0000E5F1F4F2F76B22E97FF09C090958095EC
:102BF000709561957F4F8F4F9F4F2068B22E2AE0CE
:102C000030E0A4010E947319A82EA81844C085378B
:102C100029F42F7EB22E2AE030E025C0F22FF97F72
:102C2000BF2E8F36C1F018F4883579F0B4C08037E4
:102C300019F0883721F0AFC02F2F2061B22EB4FEDB
:102C40000DC08B2D8460B82E09C024FF0AC09F2FB1
:102C50009660B92E06C028E030E005C020E130E0E3
:102C600002C020E132E0F801B7FE07C06081718147
:102C7000828193810C5F1F4F06C06081718180E06B
:102C800090E00E5F1F4FA4010E947319A82EA81890
:102C9000FB2DFF77BF2EB6FE0BC02B2D2E7FA5146C
:102CA00050F4B4FE0AC0B2FC08C02B2D2E7E05C025
:102CB0007A2C2B2D03C07A2C01C0752C24FF0DC05B
:102CC000FE01EA0DF11D8081803311F4297E09C0D7
:102CD00022FF06C07394739404C0822F867809F093
:102CE000739423FD13C020FF06C05A2C731418F4EC
:102CF000530C5718732C731468F4B70180E290E0FA
:102D00002C870E94411973942C85F5CF731410F40D
:102D1000371801C0312C24FF12C0B70180E390E0C6
:102D20002C870E9441192C8522FF17C021FF03C068
:102D300088E590E002C088E790E0B7010CC0822FE0
:102D4000867859F021FD02C080E201C08BE227FDA8
:102D50008DE2B70190E00E944119A51438F4B70143
:102D600080E390E00E9441195A94F7CFAA94F401AD
:102D7000EA0DF11D8081B70190E00E944119A11078
:102D8000F5CF332009F451CEB70180E290E00E94E4
:102D900041193A94F6CFF7018681978102C08FEFEF
:102DA0009FEF2C96E2E10C94ED196F927F929F9227
:102DB000AF92BF92CF92DF92EF92FF920F931F9349
:102DC000CF93DF93CDB7DEB729970FB6F894DEBF68
:102DD0000FBECDBF6A01B22E102F0C3320F4FF249A
:102DE000F394F00E02C04CE3F42E0F2D27E0AE0159
:102DF0004F5F5F4F0E9453187981272F2970213030
:102E000031F0E1FC06C0E0FC06C060E005C06DE208
:102E100003C06BE201C060E2AE2DA07173FF36C04B
:102E2000662311F084E001C083E08B1510F4B81A1A
:102E300001C0B12CA1110BC0F6018B2D90E28823AB
:102E400019F091938150FBCFCB0CD11CB12C662390
:102E500031F0F601608396012F5F3F4F6901C60193
:102E60000396E2FE05C02EE4F601208331E404C09F
:102E70002EE6F601208331E631832283FC012B2DDF
:102E800030E22223F1F131932150FBCF72FF40C099
:102E9000662311F084E001C083E08B1510F4B81AAA
:102EA00001C0B12CA1110BC0F6018B2D90E288233B
:102EB00019F091938150FBCFCB0CD11CB12C662320
:102EC00031F0F601608396012F5F3F4F6901C60123
:102ED0000396E2FE07C029E4F60120832EE4218355
:102EE00026E406C029E6F60120832EE6218326E6A5
:102EF0002283FC012B2D30E2222319F03193215043
:102F0000FBCFFC01EB0DF11D10828EEF9FEFB7C0E0
:102F1000B1E0611101C0B0E04B2F50E01816190666
:102F200024F49C012F5F3F4F02C021E030E0240FCA
:102F3000351F112329F0412F50E04F5F5F4F02C032
:102F400040E050E0420F531F2B2D30E04217530753
:102F500014F4B41A01C0B12C2E2D287159F4F601C5
:102F60002B2D30E2222319F031932150FBCFCB0CD3
:102F7000D11CB12CBB2331F0F601608396012F5F89
:102F80003F4F6901A1110BC0F6012B2D30E3222325
:102F900019F031932150FBCFCB0CD11CB12CF80E82
:102FA0000A81372F3071A32E74FF03C0013309F457
:102FB000FA941F142CF42F2D293018F028E001C0AA
:102FC00021E0682F392F97FF02C060E030E0462FE4
:102FD000532F612C712C3EE2932EBC01621B7109B0
:102FE0009B01DC01A41BB50BE1E0F0E0EC0FFD1F41
:102FF000AE0FBF1FE12EF12CF194E194F1084F3F89
:10300000FFEF5F0731F4F6019082B6016F5F7F4FEB
:103010006B01841795074CF02417350734F4BD0174
:10302000660D771DFB01118101C010E3415051096C
:10303000FFEF6F1A7F0AB6016F5F7F4F4E155F0576
:1030400024F0F60110836B01DACF4817590739F4E1
:10305000063320F4053319F4A11001C011E3F60181
:103060001083FB018B2D90E2882319F091938150FE
:10307000FBCFFB01EB0DF11D108280E090E0299663
:103080000FB6F894DEBF0FBECDBFDF91CF911F9179
:103090000F91FF90EF90DF90CF90BF90AF909F90F7
:1030A0007F906F900895283008F027E03327DA01E9
:1030B000990F311D87FD916000966105710539F406
:1030C00032602E5F3D9330E32A95E1F708959F3FEC
:1030D00030F080387105610509F03C5F3C5F3D933D
:1030E000913008F08068911DDF93CF931F930F9369
:1030F000FF92EF92192F987F9695E92F96959695C6
:10310000E90FFF27EA51FE4F99273327EE24FF24CA
:10311000A701E70105900894079428F4360FE71EED
:10312000F81E491F511D660F771F881F991F0694AF
:10313000A1F70590079428F4E70EF81E491F561FC3
:10314000C11D770F881F991F661F0694A1F7059070
:10315000079428F4F80E491F561FC71FD11D880F6A
:10316000991F661F771F0694A1F70590079420F416
:10317000490F561FC71FD81F990F661F771F881F3B
:103180000694A9F784911095177041F0D695C795CC
:1031900057954795F794E7941A95C1F7ECE8F1E055
:1031A00068941590159135916591959105907FE200
:1031B0007395E118F10A430B560BC90BD009C0F700
:1031C000E10CF11E431F561FC91FD01D7EF4703342
:1031D00011F48A95E6CFE894015030F0080F0AF414
:1031E0000027021708F4202F2395022F7A3328F0A6
:1031F00079E37D932A95E9F710C07D932A9589F6A6
:10320000069497956795379517951794E118F10AE5
:10321000430B560BC90BD00998F023957E917395FB
:103220007A3308F070E37C932013B8F77E917061D5
:103230007D9330F0839571E37D9370E32A95E1F7F8
:103240001124EF90FF900F911F91CF91DF9199275B
:1032500087FD90950895FC01059061507040011024
:10326000D8F7809590958E0F9F1F0895FC016150AF
:10327000704001900110D8F7809590958E0F9F1F98
:1032800008950F931F93CF93DF93182F092FEB010E
:103290008B8181FD03C08FEF9FEF20C082FF10C0A4
:1032A0004E815F812C813D81421753077CF4E88178
:1032B000F9819F012F5F3F4F39832883108306C018
:1032C000E885F985812F0995892B29F72E813F8182
:1032D0002F5F3F4F3F832E83812F902FDF91CF9120
:1032E0001F910F910895FA01AA27283051F120313A
:1032F00081F1E8946F936E7F6E5F7F4F8F4F9F4F8A
:10330000AF4FB1E03ED0B4E03CD0670F781F891FCB
:103310009A1FA11D680F791F8A1F911DA11D6A0F99
:10332000711D811D911DA11D20D009F468943F914C
:103330002AE0269F11243019305D3193DEF6CF014B
:103340000895462F4770405D4193B3E00FD0C9F711
:10335000F6CF462F4F70405D4A3318F0495D31FD7E
:103360004052419302D0A9F7EACFB4E0A6959795D1
:10337000879577956795BA95C9F7009761057105A7
:1033800008959B01AC010A2E0694579547953795F1
:103390002795BA95C9F7620F731F841F951FA01D4B
:1033A00008952F923F924F925F926F927F928F92E9
:1033B0009F92AF92BF92CF92DF92EF92FF920F93C4
:1033C0001F93CF93DF93CDB7DEB7CA1BDB0B0FB6CE
:1033D000F894DEBF0FBECDBF09942A88398848888B
:1033E0005F846E847D848C849B84AA84B984C88421
:1033F000DF80EE80FD800C811B81AA81B981CE0F18
:10340000D11D0FB6F894DEBF0FBECDBFED010895FC
:04341000F894FFCF5E
:10341400000039048000314E6F646500324E6F64E1
:103424006500456E746572696E67207365747570A6
:103434000053657474696E6720706F776572206CD1
:103444006576656C004F70656E696E67207772698A
:1034540074652070697065005374617274696E6775
:1034640020746F206C697374656E004765747469A9
:103474006E672073656E736F7220737461747573F5
:1034840000476F742073656E736F72207374617478
:10349400757300476F742074656D7020696E666F74
:1034A400726D6174696F6E0053746F7070696E67CA
:1034B400206C697374656E696E6700436F6E766520
:1034C4007274696E672074656D7020746F207374F4
:1034D40072696E6700436F6E76657274696E6720F9
:1034E40068756D20746F20737472696E6700436F22
:1034F4006E76657274656420746F206368617220EF
:1035040061727261790044656C6179696E6720311A
:10351400307300456E64206F66206C6F6F7020619D
:103524006E64207374617274206C697374656E695F
:103534006E670A0A0073656E736F72206661696C48
:103544000000000000CC049F0474047C048F049EDB
:10355400045B57726974696E6720257520627974FB
:10356400657320257520626C616E6B735D0A005B68
:1035740052656164696E672025752062797465738C
:1035840020257520626C616E6B735D0A00464541AF
:10359400545552453D25690D0A0000000000270AD4
:1035A400930BA909C209B409050A6E616E00696E1C
:0835B40066006F7666002E0030
:00000001FF
