:100000000C9483000C94AB000C94AB000C94AB00EC
:100010000C94AB000C94AB000C94AB000C94AB00B4
:100020000C94AB000C94AB000C94AB000C94AB00A4
:100030000C94AB000C94AB000C94AB000C94AB0094
:100040000C94BF080C94AB000C9491070C94C3075C
:100050000C94AB000C94AB000C94AB000C94AB0074
:100060000C9429010C94AB006661696C6564207482
:100070006F2073656E642074656D70006661696CD5
:10008000656420746F2073656E642068756D6964A3
:10009000697479001112131415160A0B0C0D0E0F4A
:1000A0000001020304050000000800020100000333
:1000B00004070000000000000000010204081020F6
:1000C00040800102040810200102040810200404EA
:1000D00004040404040402020202020203030303F0
:1000E0000303000000002300260029000000000098
:1000F000250028002B0000000000240027002A0013
:10010000FA00ED02F30711241FBECFEFD8E0DEBFE7
:10011000CDBF11E0A0E0B1E0E0E3F8E102C005905E
:100120000D92AE33B107D9F722E0AEE3B1E001C0E2
:100130001D92A33CB207E1F711E0C6E0D1E004C094
:100140002297FE010E94090CC030D107C9F70E9416
:10015000B0080C94160C0C9400008EE391E00E9401
:10016000050661E08EE391E00E94AA0566E071E079
:100170008EE391E00E94DC0440E051E061E08EE318
:1001800091E00E94F6048EE391E00C94640562E035
:1001900080E591E00E943107811122C08EE391E059
:1001A0000E944C0444E060E571E08EE391E00E941F
:1001B000D904811106C06CE770E08DE192E00E94E5
:1001C0009D0844E064E571E08EE391E00E94D9046B
:1001D000811106C068E670E08DE192E00E949D0802
:1001E0008EE391E00E94640560ED77E080E090E0AE
:1001F0000C942C0948E067E08EE391E00C943A04FB
:10020000613298F42091CA01243089F460937F010F
:10021000FC0181E891E0DC012A2F281B261718F445
:1002200021912D93F9CF80E0089581E0089582E037
:10023000089585ED8093BC008091BC0084FDFCCFC7
:100240001092CA01089585EC8093BC001092CA01F7
:1002500008951F920F920FB60F9211242F933F9380
:100260004F935F936F937F938F939F93AF93BF93BE
:10027000EF93FF938091B900887F803609F49CC08A
:1002800068F5883209F45BC090F4803109F454C0F9
:1002900038F4882309F4F5C0883009F44DC0F5C05E
:1002A000883109F44CC0803209F45DC0EEC080345E
:1002B00009F468C048F4803309F455C0883309F064
:1002C000E4C080935D01A8C0803509F44FC0883533
:1002D00009F45DC0883409F0D8C0D5C0883909F464
:1002E000C6C0A8F4883709F467C038F4883609F422
:1002F00063C0803709F460C0C8C0883809F4B7C04B
:10030000803909F45FC0803809F0BFC05BC0803B12
:1003100009F485C038F4803A09F466C0883A09F4D3
:100320007EC0B3C0803C09F4A6C0883C09F4A3C0D9
:10033000883B09F489C0A9C08091C90110C090917F
:10034000A2018091A101981770F5E091A20181E0CE
:100350008E0F8093A201F0E0ED55FE4F80818093D7
:10036000BB0085EC85C080935D018DC0E091A2014A
:1003700081E08E0F8093A2018091BB00F0E0ED55EB
:10038000FE4F80839091A2018091A1016DC0E09108
:10039000A20181E08E0F8093A2018091BB00F0E06A
:1003A000ED55FE4F80838091C80181116CC081E0C2
:1003B0008093C70184EA60C083E08093CA011092F1
:1003C0005E01CFCF80915E01803208F050C0E09195
:1003D0005E0181E08E0F80935E018091BB00F0E0B2
:1003E000E15AFE4F8083BDCF80915E01803230F4B0
:1003F000E0915E01F0E0E15AFE4F10820E94190187
:1004000060915E0170E0E091C301F091C4018FE55D
:1004100091E0099510925E010E94230136C084E0AC
:100420008093CA011092800110927F01E091C50172
:10043000F091C601099580917F01811105C081E08D
:1004400080937F0110928101E091800181E08E0F05
:1004500080938001F0E0EF57FE4F80818093BB00D6
:100460009091800180917F01981708F47ACF85E8F8
:100470008093BC000AC085EC8093BC001092CA0136
:1004800004C010925D010E941901FF91EF91BF918C
:10049000AF919F918F917F916F915F914F913F911C
:1004A0002F910F900FBE0F901F9018958091FA0119
:1004B00090E02091FB01821B910908952091FB019E
:1004C0008091FA01281750F4E22FF0E0E450FE4F3B
:1004D000808190E02F5F2093FB0108958FEF9FEFC5
:1004E0000895E091FB018091FA01E81730F4F0E003
:1004F000E450FE4F808190E008958FEF9FEF0895C4
:100500000895CF92DF92EF92FF920F931F93CF93B4
:10051000DF937C01CB018A012091D701222389F04E
:10052000EB016B01C40ED51ECC15DD0569F0699198
:10053000D701ED91FC910190F081E02DC701099563
:10054000F3CF642F0E940001C801DF91CF911F916A
:100550000F91FF90EF90DF90CF900895CF93DF93AE
:100560001F92CDB7DEB769832091D7012223D1F046
:100570002091D801203240F021E030E0FC013383AB
:10058000228380E090E015C08091D901E82FF0E04F
:10059000E652FE4F998190838F5F8093D9018093BB
:1005A000D80105C061E0CE0101960E94000181E002
:1005B00090E00F90DF91CF910895FC011382128299
:1005C00048EE53E060E070E04483558366837783B0
:1005D00080E191E09183808308958BEC91E00C940D
:1005E000DD02CF93CFB7F89480911C02811127C010
:1005F000E8EDF0E08491E4ECF0E09491E82FF0E095
:10060000EE0FFF1FEA50FF4FA591B4918C91892303
:1006100021F461E08AE00E94FC0961E08AE00E9426
:10062000C3098CB580618CBD8CB580648CBD61E0E4
:100630008DE00E94C30961E08BE00E94C3098091B4
:100640001C028F5F80931C02CFBFCF9108958EBD97
:1006500000000DB407FEFDCF8EB508952CB52F7D9B
:100660002CBD2CB5237F2CBD2CB52C7F2CBD2DB5DE
:1006700021602DBDFC0181810E94FC0985E090E094
:100680000C945409FC018081918189130C94FC091C
:10069000089560E00C942E0361E00C942E03EF9219
:1006A000FF921F93CF93DF931F92CDB7DEB77C01EC
:1006B00069830E9449036981862F8F710E942703F5
:1006C0008FEF0E942703182FC7010E944C03812F30
:1006D0000F90DF91CF911F91FF90EF900895CF92EF
:1006E000DF92EF92FF920F931F93CF93DF9300D08F
:1006F0001F92CDB7DEB78C01F22E4A835B836983EC
:100700000E9449036981862F8F7180620E942703AE
:10071000E82E4A81C42E5B81D52EF40EFC1431F0F4
:10072000F60181916F010E942703F8CFC8010E9452
:100730004C038E2D0F900F900F90DF91CF911F9152
:100740000F91FF90EF90DF90CF900895EF92FF927E
:100750001F93CF93DF9300D0CDB7DEB77C014A83E0
:1007600069830E9449036981862F8F7180620E948C
:100770002703182F4A81842F0E942703C7010E9454
:100780004C03812F0F900F90DF91CF911F91FF901D
:10079000EF900895AF92BF92DF92EF92FF920F9386
:1007A0001F93CF93DF9300D01F92CDB7DEB78C019C
:1007B000FC01E580F42EE41608F4FE2CF801868195
:1007C000811102C0EF1801C0E12CC80129836A839E
:1007D0007B830E9449032981822F0E942703D82E00
:1007E0006A81A62E7B81B72EF60EFA1431F0F50140
:1007F00081915F010E942703F8CFEE2029F080E06D
:100800000E942703EA94F9CFC8010E944C038D2D62
:100810000F900F900F90DF91CF911F910F91FF904C
:10082000EF90DF90BF90AF900895EF92FF921F93EB
:10083000CF93DF931F92CDB7DEB77C0169830E940F
:1008400049036981862F0E942703182FC7010E9440
:100850004C03812F0F90DF91CF911F91FF90EF906C
:10086000089562EE0C94150461EE0C9415046FEF7C
:100870000C941504FC0160834183148280E285831B
:10088000168285E0848717820895462F6E3708F018
:100890004DE765E00C94A603CF93DF93EC0160E095
:1008A0000E9442038D859E850E9454096DE1CE0110
:1008B0000E944F0381FF07C08D859E850E945409C9
:1008C000CE010E94340460E0CE010E944F03482F05
:1008D0004E7F60E0CE010E94A60362E0CE010E943E
:1008E0004F03E0EAF0E0E49121E030E001C0220FA4
:1008F000EA95EAF7822B482F62E0CE01DF91CF9193
:100900000C94A603CF93DF93EC0160E00E944F03A9
:1009100081FD12C060E0CE010E944F03482F42606B
:1009200060E0CE010E94A60365E070E080E090E008
:10093000DF91CF910C942C09DF91CF9108950F9303
:10094000CF93DF93EC01222311F020EB01C020EACA
:10095000CE010E94CA03002339F061E0CE01DF918D
:10096000CF910F910C944203DF91CF910F91089595
:100970000F93CF93DF93EC0101E00E949F04CE011F
:100980000E9437048073D9F360E0CE010E944203D5
:1009900040E767E0CE010E94A60384FF05C0CE01B8
:1009A0000E94340480E001C081E0DF91CF910F917B
:1009B000089520E00C94B8040F931F93CF93DF9316
:1009C000EC018B012C85AB016AE00E946F032C8542
:1009D000A80160E1CE010E946F034D8161E1CE016B
:1009E000DF91CF911F910F910C94A603FF920F936B
:1009F0001F93CF93DF93EC01F62E8A01611107C09C
:100A00004C8550E0B80107960E940D0C07C086E0A7
:100A1000861708F437C081E0681307C0EF2DF0E0B7
:100A2000E656FF4F64912C8506C0E62FF0E0E656AF
:100A3000FF4F649121E0A801CE010E946F030F2DAA
:100A400010E0F801EC56FF4F64914D81CE010E94F9
:100A5000A60362E0CE010E944F03F801E056FF4F6B
:100A6000049121E030E001C0220F0A95EAF7822BC1
:100A7000482F62E0CE01DF91CF911F910F91FF903F
:100A80000C94A603DF91CF911F910F91FF900895D1
:100A90001F93CF93DF93EC01162F62E00E944F0368
:100AA000E12FF0E0E056FF4FE49141E050E001C05B
:100AB000440FEA95EAF74095482362E0CE01DF91C2
:100AC000CF911F910C94A603CF93DF93EC010E946A
:100AD000820460E0CE010E944F03482F416060E035
:100AE000CE010E94A60340E767E0CE010E94A60364
:100AF00061E0CE010E9442038F81882349F02C855A
:100B0000AE01495F5F4F6AE0CE010E946F0304C0EF
:100B100060E0CE010E9448056DE1CE010E944F03C6
:100B200081FF05C0CE01DF91CF910C943404DF9199
:100B3000CF910895CF93DF93EC010E94490380E5A4
:100B40000E94270383E70E942703CE01DF91CF9104
:100B50000C944C031F93CF93DF93EC01162F66E0A8
:100B60000E944F03887F143020F4612F660F6F5F5F
:100B700001C067E0462F482B66E0CE01DF91CF91A0
:100B80001F910C94A603EF92FF920F931F93CF93A4
:100B9000DF931F92CDB7DEB77C018B0166E00E9428
:100BA0004F03582F577D0230110531F450620BE985
:100BB00010E020E030E00DC00130110529F005E51E
:100BC00010E020E030E005C0586001E410E020E0D3
:100BD00030E0F701058716872787308B452F66E0C1
:100BE000C70159830E94A60366E0C7010E944F0314
:100BF00091E05981851390E0892F0F90DF91CF917B
:100C00001F910F91FF90EF900895CF93DF93EC0128
:100C100088819981891719F061E00E94C30989814F
:100C20009881981719F061E00E94C3090E94F102AF
:100C300060E0CE010E94420361E0CE010E942E03DB
:100C400065E070E080E090E00E942C094CE060E0FC
:100C5000CE010E94A6034FE564E0CE010E94A603E8
:100C600062E070E0CE010E94C305882311F081E0AC
:100C70008C8360E070E0CE010E94C305CE010E942B
:100C80009A0540E06DE1CE010E94A60340E06CE1D0
:100C9000CE010E94A60340E767E0CE010E94A603B2
:100CA0006CE4CE010E944504CE010E943104CE01C5
:100CB0000E943404CE010E94820460E0CE010E94B2
:100CC0004F03482F4E7F60E0CE010E94A60380E0D4
:100CD000DF91CF9108954F925F926F927F928F92A2
:100CE0009F92AF92BF92CF92DF92EF92FF920F93BB
:100CF0001F93CF93DF9300D0CDB7DEB77C01D62E04
:100D000070E0FB01E654FF4FC490FB01E253FF4F3C
:100D1000E491F0E0EE0FFF1FEE51FF4F459054902D
:100D200061E08D2D2A8349830E94C30960E08D2DE7
:100D30000E94FC0988EE93E04981BC01469FC001F6
:100D4000479F900D11240E94540961E08D2D0E944F
:100D5000FC0960E08D2D0E94C30980E293E02A81A6
:100D6000F20130813C2121F00197D1F78DEF66C06F
:100D700080E991E0F20130813C2121F40197D1F723
:100D80008CEF5CC080E991E0F20130813C2121F0E0
:100D90000197D1F78BEF52C0F8E2BF2EA0E9B1E086
:100DA00040E050E080E991E060E0912C812C10E877
:100DB000612E7B2C721A00E911E020E030E0F20194
:100DC000A080AC2051F5662341F17B1490F4A81764
:100DD000B90708F4CD01B901A801481B590B6109F5
:100DE0007109E2E07595679557954795EA95D1F7B2
:100DF00007C0BC01641B750B6A177B0708F09628B7
:100E0000669441F4F701E80DF11D90868394912CCE
:100E100060E8662EBA94A0E9B1E0119771F0BB20AA
:100E200011F06A2DCCCF61E08D2D0E94C30961E0E5
:100E30008D2D0E94FC0980E001C08EEF0F900F9075
:100E4000DF91CF911F910F91FF90EF90DF90CF90A6
:100E5000BF90AF909F908F907F906F905F904F90DA
:100E60000895CF92DF92EF92FF920F931F93CF934B
:100E7000DF93EC0126E041E00E946B06E82E188526
:100E800013701887CA840C2D03780A87F984612FA0
:100E900070E0762F66276F0D711D882777FD80958E
:100EA000982F0E94180B2DEC3CEC4CEC5DE30E945B
:100EB000A40B688379838A839B83DB846C2D6370A6
:100EC00070E0762F66276D0D711D882777FD809560
:100ED000982F0E94180B2DEC3CEC4CEC5DE30E942B
:100EE000A40B07FD05C06C837D838E839F8307C0A1
:100EF000DC01CB01B0588C839D83AE83BF83FD0C96
:100F0000F10EF00E8C858F1511F08FEF01C08E2D34
:100F1000DF91CF911F910F91FF90EF90DF90CF90D5
:100F200008951F920F920FB60F9211242F938F9353
:100F30009F93EF93FF93E0912D02F0912E02808119
:100F4000E0913302F091340282FD12C090818091D1
:100F500036028F5F8F7320913702821751F0E09134
:100F60003602F0E0E35EFD4F958F8093360201C0BC
:100F70008081FF91EF919F918F912F910F900FBEE4
:100F80000F901F9018951F920F920FB60F92112479
:100F90002F933F934F935F936F937F938F939F9381
:100FA000AF93BF93EF93FF938DE192E00E946D0AA0
:100FB000FF91EF91BF91AF919F918F917F916F9131
:100FC0005F914F913F912F910F900FBE0F901F9007
:100FD00018958DE192E00E94320A21E0892B09F4F4
:100FE00020E0822F08951092200210921F0288EEB6
:100FF00093E0A0E0B0E08093210290932202A093BE
:101000002302B093240281E391E090931E02809327
:101010001D0285EC90E090932A028093290284ECD3
:1010200090E090932C0280932B0280EC90E09093C0
:101030002E0280932D0281EC90E0909330028093F9
:101040002F0282EC90E0909332028093310286EC82
:1010500090E0909334028093330210923602109203
:10106000370210923802109239020895CF92DF921F
:10107000EF92FF920F931F93CF93DF936C017A014E
:10108000EB01E60EF71E00E010E0CE15DF0561F083
:101090006991D601ED91FC910190F081E02DC6019E
:1010A0000995080F191FF1CFC801DF91CF911F914A
:1010B0000F91FF90EF90DF90CF900895611571052B
:1010C00081F0DB010D900020E9F7AD01415051099D
:1010D000461B570BDC01ED91FC910280F381E02D62
:1010E000099480E090E00895EF92FF920F931F9390
:1010F000CF93DF938C01FB01C0E0D0E064917F01CE
:101100008FEFE81AF80A662361F0D801ED91FC919F
:101110000190F081E02DC8010995C80FD91FF70192
:10112000EDCFCE01DF91CF911F910F91FF90EF9006
:1011300008956CE171E00C945E080F931F93CF93B8
:10114000DF93EC010E9474088C01CE010E94990883
:10115000800F911FDF91CF911F910F9108950895F6
:101160000E945F090E94AF080E94AD00CFE5DAE05F
:101170000E94C7002097E1F30E945F0AF9CF1F92F7
:101180000F920FB60F9211242F933F938F939F933B
:10119000AF93BF938091BB029091BC02A091BD021E
:1011A000B091BE023091BA0223E0230F2D3720F414
:1011B0000196A11DB11D05C026E8230F0296A11DB1
:1011C000B11D2093BA028093BB029093BC02A093FE
:1011D000BD02B093BE028091BF029091C002A09167
:1011E000C102B091C2020196A11DB11D8093BF0240
:1011F0009093C002A093C102B093C202BF91AF917D
:101200009F918F913F912F910F900FBE0F901F9044
:1012100018953FB7F8948091BF029091C002A091B9
:10122000C102B091C20226B5A89B05C02F3F19F09C
:101230000196A11DB11D3FBF6627782F892F9A2FD8
:10124000620F711D811D911D42E0660F771F881F7F
:10125000991F4A95D1F70895CF92DF92EF92FF92AE
:10126000CF93DF936B017C010E940909EB01C1144C
:10127000D104E104F10489F00E94150B0E940909D0
:101280006C1B7D0B683E734090F381E0C81AD10857
:10129000E108F108C851DC4FEACFDF91CF91FF9010
:1012A000EF90DF90CF9008958230910538F0880F4D
:1012B000991F880F991F05970197F1F70895789462
:1012C00084B5826084BD84B5816084BD85B582604B
:1012D00085BD85B5816085BDEEE6F0E080818160E9
:1012E0008083E1E8F0E010828081826080838081E9
:1012F00081608083E0E8F0E0808181608083E1EBC1
:10130000F0E0808184608083E0EBF0E080818160A8
:101310008083EAE7F0E0808184608083808182605E
:101320008083808181608083808180688083109247
:10133000C1000895833081F028F4813099F0823023
:10134000A1F008958730A9F08830B9F08430D1F445
:10135000809180008F7D03C0809180008F77809383
:101360008000089584B58F7702C084B58F7D84BDD9
:1013700008958091B0008F7703C08091B0008F7D79
:101380008093B0000895CF93DF9390E0FC01E65482
:10139000FF4F2491FC01E253FF4F8491882349F1D0
:1013A00090E0880F991FFC01EA50FF4FA591B4917E
:1013B00084519F4FFC01C591D4919FB7611108C022
:1013C000F8948C91209582238C93888182230AC083
:1013D000623051F4F8948C91322F309583238C93A2
:1013E0008881822B888304C0F8948C91822B8C9303
:1013F0009FBFDF91CF9108950F931F93CF93DF93FA
:101400001F92CDB7DEB7282F30E0F901EA55FF4F24
:101410008491F901E654FF4F1491F901E253FF4F13
:1014200004910023C9F0882321F069830E949A095E
:101430006981E02FF0E0EE0FFF1FE451FF4FA5910F
:10144000B4919FB7F8948C91611103C010958123DA
:1014500001C0812B8C939FBF0F90DF91CF911F9183
:101460000F910895FC01818D228D90E0805C9F4F4B
:10147000821B91098F7399270895FC01918D828DAC
:10148000981731F0828DE80FF11D858D90E0089559
:101490008FEF9FEF0895FC01918D828D981761F079
:1014A000828DDF01A80FB11D5D968C91928D9F5F9B
:1014B0009F73928F90E008958FEF9FEF089589EECC
:1014C00097E0892B49F080E090E0892B29F00E9479
:1014D000E90781110C9400000895FC01848DDF015F
:1014E000A80FB11DA35ABF4F2C91848D90E0019697
:1014F0008F739927848FA689B7892C93A089B18986
:101500008C9180648C93938D848D981306C002888F
:10151000F389E02D80818F7D80830895CF93DF93C1
:10152000EC01888D8823C9F0EA89FB89808185FDDB
:1015300005C0A889B9898C9186FD0FC00FB607FC3C
:10154000F5CF808185FFF2CFA889B9898C9185FF7D
:10155000EDCFCE010E946D0AE7CFDF91CF910895C4
:10156000CF92DF92FF920F931F93CF93DF931F923F
:10157000CDB7DEB76C0181E0D60158968C935897B1
:101580005B969C915B975C968C915C97981307C0D7
:101590005096ED91FC915197808185FD2EC0F6010A
:1015A000038D10E00F5F1F4F0F731127F02EF60110
:1015B000848DF81211C00FB607FCF9CFD6015096F2
:1015C000ED91FC915197808185FFF1CFC601698330
:1015D0000E946D0A6981EBCF838DE80FF11DE35AFC
:1015E000FF4F6083D6015B960C935B975296ED910B
:1015F000FC915397808180620CC0D6015696ED9184
:10160000FC91579760835096ED91FC9151978081A2
:101610008064808381E090E00F90DF91CF911F91F3
:101620000F91FF90DF90CF9008950895E89409C03E
:1016300097FB3EF490958095709561957F4F8F4F05
:101640009F4F9923A9F0F92F96E9BB279395F6951B
:10165000879577956795B795F111F8CFFAF4BB0F99
:1016600011F460FF1BC06F5F7F4F8F4F9F4F16C0FD
:10167000882311F096E911C0772321F09EE8872F87
:10168000762F05C0662371F096E8862F70E060E043
:101690002AF09A95660F771F881FDAF7880F9695BC
:1016A000879597F9089597F99F6780E870E060E063
:1016B00008959FEF80EC089500240A9416161706EB
:1016C00018060906089500240A9412161306140633
:1016D00005060895092E0394000C11F4882352F096
:1016E000BB0F40F4BF2B11F460FF04C06F5F7F4F4E
:1016F0008F4F9F4F089557FD9058440F551F59F035
:101700005F3F71F04795880F97FB991F61F09F3FEE
:1017100079F087950895121613061406551FF2CF17
:101720004695F1DF08C0161617061806991FF1CF67
:1017300086957105610508940895E894BB2766278E
:101740007727CB0197F908950BD0C4CFB5DF28F0E8
:10175000BADF18F0952309F0A6CFABCF1124EECF56
:10176000CADFA0F3959FD1F3950F50E0551F629FFC
:10177000F001729FBB27F00DB11D639FAA27F00DEA
:10178000B11DAA1F649F6627B00DA11D661F829F11
:101790002227B00DA11D621F739FB00DA11D621FF6
:1017A000839FA00D611D221F749F3327A00D611D13
:1017B000231F849F600D211D822F762F6A2F1124F5
:1017C0009F5750408AF0E1F088234AF0EE0FFF1F48
:1017D000BB1F661F771F881F91505040A9F79E3F7F
:1017E000510570F060CFAACF5F3FECF3983EDCF379
:1017F000869577956795B795F795E7959F5FC1F7BC
:10180000FE2B880F911D9695879597F90895EE0FF9
:10181000FF1F0590F491E02D0994FB01DC0102C04B
:1018200001900D9241505040D8F70895F894FFCFA1
:10183000314E6F646500324E6F6465000000000039
:10184000AE02810256025E02710280020D0A006E33
:10185000616E00696E66006F7666002E0000000003
:0E18600000B00A3608320A4B0A3D0A8E0A0012
:00000001FF
