:100000000C9493000C94BB000C94BB000C94BB00AC
:100010000C94BB000C94BB000C94BB000C94BB0074
:100020000C94BB000C94BB000C94BB000C94BB0064
:100030000C94BB000C94BB000C94BB000C94BB0054
:100040000C94200C0C94BB000C9439090C946B0993
:100050000C94BB000C94BB000C94BB000C94BB0034
:100060000C94DE010C94BB0073656E736F72206696
:1000700061696C0073656E736F72206661696C00F4
:1000800073656E736F72206661696C006661696C7E
:10009000656420746F2073656E642074656D70658F
:1000A000726174757265006661696C656420746F55
:1000B0002073656E642068756D69646974790000E9
:1000C000010203040500000008000201000003040F
:1000D000070000000000000000010204081020409A
:1000E0008001020408102001020408102004040406
:1000F00004040404040202020202020303030303D1
:100100000300000000230026002900000000002555
:100110000028002B0000000000240027002A000017
:10012000AF01A2039B0911241FBECFEFD8E0DEBFB1
:10013000CDBF12E0A0E0B1E0EAEBFFE102C0059024
:100140000D92A232B107D9F723E0A2E2B2E001C0DA
:100150001D92A93AB207E1F711E0C6E2D1E004C06E
:100160002297FE010E94D70FC032D107C9F70E9423
:10017000110C0C94DB0F0C94000060ED77E080E034
:1001800090E00E948D0C26E040E052EC61E070E0CF
:1001900083E093E00E94D7086CE071E083E093E095
:1001A0000E945E0A84E292E00E94680664E684E2AD
:1001B00092E00E94FA046DE171E083E093E00E9416
:1001C0005E0A60E084E292E00E940D0663E371E063
:1001D00083E093E00E945E0A60E071E084E292E0D6
:1001E0000E94910568E471E083E093E00E945E0A5A
:1001F00084E292E00C94C7056DE571E083E093E042
:100200000E945E0A62E086E392E00E9494079927CA
:1002100087FD9095909323028093220265E771E019
:1002200083E093E00E945E0A809122029091230273
:100230008F3F2FEF920709F44DC0009721F00296EF
:1002400009F068C057C069E871E083E093E00E945C
:100250005E0A4091360250913702609138027091E7
:10026000390222E030E083E093E00E94FE0B4091EF
:100270003A0250913B0260913C0270913D0222E0B3
:1002800030E083E093E00E94FE0B60EA71E083E0DF
:1002900093E00E945E0A84E292E00E94010544E03D
:1002A00066E372E084E292E00E948E05811106C04E
:1002B00067EA70E083E093E00E944C0A44E06AE35E
:1002C00072E084E292E00E948E05811136C06CE8F3
:1002D00070E02FC084E292E00E9401054CE065EEE0
:1002E00071E084E292E00E948E05811126C060E8F0
:1002F00070E01FC084E292E00E9401054CE065EED0
:1003000071E084E292E00E948E05811116C064E7DC
:1003100070E00FC084E292E00E9401054CE065EEBF
:1003200071E084E292E00E948E05811106C068E6C9
:1003300070E083E093E00E944C0A65EB71E083E09B
:1003400093E00E945E0A68EB7BE080E090E00E9410
:100350008D0C63EC71E083E093E00C945E0A48E05E
:1003600067E084E292E00C94EF04613298F420910B
:10037000B002243089F460936502FC0187E692E0C4
:10038000DC012A2F281B261718F421912D93F9CF71
:1003900080E0089581E0089582E0089585ED8093DE
:1003A000BC008091BC0084FDFCCF1092B002089587
:1003B00085EC8093BC001092B00208951F920F92BA
:1003C0000FB60F9211242F933F934F935F936F9328
:1003D0007F938F939F93AF93BF93EF93FF938091FE
:1003E000B900887F803609F49CC068F5883209F42A
:1003F0005BC090F4803109F454C038F4882309F4C8
:10040000F5C0883009F44DC0F5C0883109F44CC0FE
:10041000803209F45DC0EEC0803409F468C048F44D
:10042000803309F455C0883309F0E4C08093430257
:10043000A8C0803509F44FC0883509F45DC0883400
:1004400009F0D8C0D5C0883909F4C6C0A8F48837E7
:1004500009F467C038F4883609F463C0803709F4BA
:1004600060C0C8C0883809F4B7C0803909F45FC0DB
:10047000803809F0BFC05BC0803B09F485C038F408
:10048000803A09F466C0883A09F47EC0B3C0803C63
:1004900009F4A6C0883C09F4A3C0883B09F489C0CC
:1004A000A9C08091AF0210C090918802809187020C
:1004B000981770F5E091880281E08E0F8093880292
:1004C000F0E0E757FD4F80818093BB0085EC85C04D
:1004D000809343028DC0E091880281E08E0F80936B
:1004E00088028091BB00F0E0E757FD4F8083909138
:1004F0008802809187026DC0E091880281E08E0FB2
:10050000809388028091BB00F0E0E757FD4F808325
:100510008091AE0281116CC081E08093AD0284EACB
:1005200060C083E08093B00210924402CFCF8091EC
:100530004402803208F050C0E091440281E08E0F06
:10054000809344028091BB00F0E0EB5BFD4F808321
:10055000BDCF80914402803230F4E0914402F0E05B
:10056000EB5BFD4F10820E94CE016091440270E06F
:10057000E091A902F091AA0285E492E00995109217
:1005800044020E94D80136C084E08093B0021092E9
:10059000660210926502E091AB02F091AC020995FF
:1005A00080916502811105C081E0809365021092FF
:1005B0006702E091660281E08E0F80936602F0E0B0
:1005C000E959FD4F80818093BB0090916602809134
:1005D0006502981708F47ACF85E88093BC000AC0BA
:1005E00085EC8093BC001092B00204C010924302CC
:1005F0000E94CE01FF91EF91BF91AF919F918F919A
:100600007F916F915F914F913F912F910F900FBE0E
:100610000F901F9018958091E00290E02091E102E8
:10062000821B910908952091E1028091E002281730
:1006300050F4E22FF0E0EE51FD4F808190E02F5F0B
:100640002093E10208958FEF9FEF0895E091E1027A
:100650008091E002E81730F4F0E0EE51FD4F808128
:1006600090E008958FEF9FEF08950895CF92DF9265
:10067000EF92FF920F931F93CF93DF937C01CB01F7
:100680008A012091BD02222389F0EB016B01C40E87
:10069000D51ECC15DD0569F06991D701ED91FC916E
:1006A0000190F081E02DC7010995F3CF642F0E94DE
:1006B000B501C801DF91CF911F910F91FF90EF908D
:1006C000DF90CF900895CF93DF931F92CDB7DEB721
:1006D00069832091BD022223D1F02091BE022032F5
:1006E00040F021E030E0FC013383228380E090E0A1
:1006F00015C08091BF02E82FF0E0E054FD4F9981D2
:1007000090838F5F8093BF028093BE0205C061E03B
:10071000CE0101960E94B50181E090E00F90DF913B
:10072000CF910895FC011382128248EE53E060E0FD
:1007300070E0448355836683778385EF91E09183EE
:100740008083089581EB92E00C949203CF93CFB70E
:10075000F89480910203811127C0E7EFF0E08491C3
:10076000E3EEF0E09491E82FF0E0EE0FFF1FEB5E78
:10077000FE4FA591B4918C91892321F461E08AE028
:100780000E945D0D61E08AE00E94240D8CB58061BD
:100790008CBD8CB580648CBD61E08DE00E94240D21
:1007A00061E08BE00E94240D809102038F5F8093B3
:1007B0000203CFBFCF9108958EBD00000DB407FE98
:1007C000FDCF8EB508952CB52F7D2CBD2CB5237F84
:1007D0002CBD2CB52C7F2CBD2DB521602DBDFC0171
:1007E00081810E945D0D85E090E00C94B50CFC01C8
:1007F0008081918189130C945D0D089560E00C94C3
:10080000E30361E00C94E303EF92FF921F93CF9315
:10081000DF931F92CDB7DEB77C0169830E94FE0390
:100820006981862F8F710E94DC038FEF0E94DC03A9
:10083000182FC7010E940104812F0F90DF91CF91E3
:100840001F91FF90EF900895CF92DF92EF92FF9269
:100850000F931F93CF93DF9300D01F92CDB7DEB7D6
:100860008C01F22E4A835B8369830E94FE036981B7
:10087000862F8F7180620E94DC03E82E4A81C42E8D
:100880005B81D52EF40EFC1431F0F60181916F01DD
:100890000E94DC03F8CFC8010E9401048E2D0F9046
:1008A0000F900F90DF91CF911F910F91FF90EF90DC
:1008B000DF90CF900895EF92FF921F93CF93DF9335
:1008C00000D0CDB7DEB77C014A8369830E94FE0366
:1008D0006981862F8F7180620E94DC03182F4A8104
:1008E000842F0E94DC03C7010E940104812F0F9016
:1008F0000F90DF91CF911F91FF90EF900895AF92ED
:10090000BF92DF92EF92FF920F931F93CF93DF93EB
:1009100000D01F92CDB7DEB78C01FC01E580F42E2C
:10092000E41608F4FE2CF8018681811102C0EF184C
:1009300001C0E12CC80129836A837B830E94FE03E6
:100940002981822F0E94DC03D82E6A81A62E7B810A
:10095000B72EF60EFA1431F0F50181915F010E9475
:10096000DC03F8CFEE2029F080E00E94DC03EA945B
:10097000F9CFC8010E9401048D2D0F900F900F90A8
:10098000DF91CF911F910F91FF90EF90DF90BF907B
:10099000AF900895EF92FF921F93CF93DF931F9232
:1009A000CDB7DEB77C0169830E94FE036981862F83
:1009B0000E94DC03182FC7010E940104812F0F90B1
:1009C000DF91CF911F91FF90EF90089562EE0C940C
:1009D000CA0461EE0C94CA046FEF0C94CA04FC01C3
:1009E00060834183148280E28583168285E0848758
:1009F00017820895462F6E3708F04DE765E00C9496
:100A00005B04CF93DF93EC0160E00E94F7038D85D8
:100A10009E850E94B50C6DE1CE010E94040481FF09
:100A200007C08D859E850E94B50CCE010E94E90409
:100A300060E0CE010E940404482F4E7F60E0CE01AA
:100A40000E945B0462E0CE010E940404EFEBF0E040
:100A5000E49121E030E001C0220FEA95EAF7822B11
:100A6000482F62E0CE01DF91CF910C945B04CF93CD
:100A7000DF93EC0160E00E94040481FD12C060E09D
:100A8000CE010E940404482F426060E0CE010E9423
:100A90005B0465E070E080E090E0DF91CF910C9422
:100AA0008D0CDF91CF9108950F93CF93DF93EC01DD
:100AB000222311F020EB01C020EACE010E947F0426
:100AC000002339F061E0CE01DF91CF910F910C94BA
:100AD000F703DF91CF910F9108950F93CF93DF9399
:100AE000EC0101E00E945405CE010E94EC048073E9
:100AF000D9F360E0CE010E94F70340E767E0CE0142
:100B00000E945B0484FF05C0CE010E94E90480E0DE
:100B100001C081E0DF91CF910F91089520E00C9406
:100B20006D050F931F93CF93DF93EC018B012C8501
:100B3000AB016AE00E9424042C85A80160E1CE018B
:100B40000E9424044D8161E1CE01DF91CF911F917C
:100B50000F910C945B041F93CF93DF93EC01162F3E
:100B600062E00E940404E12FF0E0E154FF4FE491C1
:100B700041E050E001C0440FEA95EAF74095482370
:100B800062E0CE01DF91CF911F910C945B04CF9373
:100B9000DF93EC010E94370560E0CE010E9404045F
:100BA000482F416060E0CE010E945B0440E767E0AF
:100BB000CE010E945B0461E0CE010E94F7038F81A9
:100BC000882349F02C85AE01495F5F4F6AE0CE0172
:100BD0000E94240404C060E0CE010E94AB056DE1D8
:100BE000CE010E94040481FF05C0CE01DF91CF91A8
:100BF0000C94E904DF91CF910895CF93DF93EC013A
:100C00000E94FE0380E50E94DC0383E70E94DC0370
:100C1000CE01DF91CF910C9401041F93CF93DF930A
:100C2000EC01162F66E00E940404887F143020F443
:100C3000612F660F6F5F01C067E0462F482B66E0AB
:100C4000CE01DF91CF911F910C945B04EF92FF9244
:100C50000F931F93CF93DF931F92CDB7DEB77C0125
:100C60008B0166E00E940404582F577D0230110565
:100C700031F450620BE910E020E030E00DC00130AB
:100C8000110529F005E510E020E030E005C05860CE
:100C900001E410E020E030E0F701058716872787A0
:100CA000308B452F66E0C70159830E945B0466E0E4
:100CB000C7010E94040491E05981851390E0892FB7
:100CC0000F90DF91CF911F910F91FF90EF900895BA
:100CD000CF93DF93EC0188819981891719F061E046
:100CE0000E94240D89819881981719F061E00E9473
:100CF000240D0E94A60360E0CE010E94F70361E08C
:100D0000CE010E94E30365E070E080E090E00E9485
:100D10008D0C4CE060E0CE010E945B044FE564E086
:100D2000CE010E945B0462E070E0CE010E942606C4
:100D3000882311F081E08C8360E070E0CE010E9496
:100D40002606CE010E94FD0540E06DE1CE010E9425
:100D50005B0440E06CE1CE010E945B0440E767E089
:100D6000CE010E945B046CE4CE010E94FA04CE0125
:100D70000E94E604CE010E94E904CE010E943705DC
:100D800060E0CE010E940404482F4E7F60E0CE0157
:100D90000E945B0480E0DF91CF9108954F925F92B3
:100DA0006F927F928F929F92AF92BF92CF92DF927B
:100DB000EF92FF920F931F93CF93DF9300D0CDB7A5
:100DC000DEB77C01D62E70E0FB01E752FF4FC490E6
:100DD000FB01E351FF4FE491F0E0EE0FFF1FEF5FE7
:100DE000FE4F4590549061E08D2D2A8349830E94E7
:100DF000240D60E08D2D0E945D0D88EE93E0498109
:100E0000BC01469FC001479F900D11240E94B50C64
:100E100061E08D2D0E945D0D60E08D2D0E94240DFE
:100E200080E293E02A81F20130813C2121F0019798
:100E3000D1F78DEF66C080E991E0F20130813C216D
:100E400021F40197D1F78CEF5CC080E991E0F201C9
:100E500030813C2121F00197D1F78BEF52C0F8E2AD
:100E6000BF2EA0E9B1E040E050E080E991E060E011
:100E7000912C812C10E8612E7B2C721A00E911E074
:100E800020E030E0F201A080AC2051F5662341F172
:100E90007B1490F4A817B90708F4CD01B901A80193
:100EA000481B590B61097109E2E0759567955795E3
:100EB0004795EA95D1F707C0BC01641B750B6A170B
:100EC0007B0708F09628669441F4F701E80DF11DC0
:100ED00090868394912C60E8662EBA94A0E9B1E0E4
:100EE000119771F0BB2011F06A2DCCCF61E08D2DF0
:100EF0000E94240D61E08D2D0E945D0D80E001C0F7
:100F00008EEF0F900F90DF91CF911F910F91FF9077
:100F1000EF90DF90CF90BF90AF909F908F907F9099
:100F20006F905F904F900895CF92DF92EF92FF9273
:100F30000F931F93CF93DF93EC0126E041E00E94D3
:100F4000CE06E82E188513701887CA840C2D0378F6
:100F50000A87F984612F70E0762F66276F0D711D67
:100F6000882777FD8095982F0E94980E2DEC3CECF9
:100F70004CEC5DE30E944C0F688379838A839B83EA
:100F8000DB846C2D637070E0762F66276D0D711D0C
:100F9000882777FD8095982F0E94980E2DEC3CECC9
:100FA0004CEC5DE30E944C0F07FD05C06C837D8314
:100FB0008E839F8307C0DC01CB01B0588C839D8357
:100FC000AE83BF83FD0CF10EF00E8C858F1511F0F2
:100FD0008FEF01C08E2DDF91CF911F910F91FF9068
:100FE000EF90DF90CF900895FC01818D228D90E0ED
:100FF000805C9F4F821B91098F7399270895FC0194
:10100000918D828D981731F0828DE80FF11D858DBD
:1010100090E008958FEF9FEF0895FC01918D828DF0
:10102000981761F0828DDF01A80FB11D5D968C913C
:10103000928D9F5F9F73928F90E008958FEF9FEF47
:10104000089581E999E0892B49F080E090E0892BAF
:1010500029F00E94910981110C9400000895FC016F
:10106000848DDF01A80FB11DA35ABF4F2C91848D31
:1010700090E001968F739927848FA689B7892C9366
:10108000A089B1898C9180648C93938D848D981301
:1010900006C00288F389E02D80818F7D80830895CA
:1010A000CF93DF93EC01888D8823C9F0EA89FB890F
:1010B000808185FD05C0A889B9898C9186FD0FC006
:1010C0000FB607FCF5CF808185FFF2CFA889B989DB
:1010D0008C9185FFEDCFCE010E942F08E7CFDF91E5
:1010E000CF910895CF92DF92FF920F931F93CF93EA
:1010F000DF931F92CDB7DEB76C0181E0D601589621
:101100008C9358975B969C915B975C968C915C97BF
:10111000981307C05096ED91FC915197808185FD01
:101120002EC0F601038D10E00F5F1F4F0F731127C4
:10113000F02EF601848DF81211C00FB607FCF9CF1E
:10114000D6015096ED91FC915197808185FFF1CFAA
:10115000C60169830E942F086981EBCF838DE80F58
:10116000F11DE35AFF4F6083D6015B960C935B97AA
:101170005296ED91FC915397808180620CC0D6010C
:101180005696ED91FC91579760835096ED91FC91A6
:10119000519780818064808381E090E00F90DF919F
:1011A000CF911F910F91FF90DF90CF900895BF9244
:1011B000CF92DF92EF92FF92CF93DF93EC016A011F
:1011C0007B01B22EE889F98982E08083411581EEA6
:1011D000580761057105A1F060E079E08DE390E0CA
:1011E000A70196010E94B30F21503109410951090D
:1011F0005695479537952795211580E1380798F042
:10120000E889F989108260E874E88EE190E0A7012E
:1012100096010E94B30F2150310941095109569599
:10122000479537952795EC85FD853083EE85FF85BD
:101230002083188EEC89FD89B082EA89FB89808140
:1012400080618083EA89FB89808188608083EA8964
:10125000FB89808180688083EA89FB8980818F7D1A
:101260008083DF91CF91FF90EF90DF90CF90BF9080
:1012700008951F920F920FB60F9211242F938F9300
:101280009F93EF93FF93E0911303F09114038081F8
:10129000E0911903F0911A0382FD12C090818091B0
:1012A0001C038F5F8F7320911D03821751F0E09113
:1012B0001C03F0E0ED5FFC4F958F80931C0301C091
:1012C0008081FF91EF919F918F912F910F900FBE91
:1012D0000F901F9018951F920F920FB60F92112426
:1012E0002F933F934F935F936F937F938F939F932E
:1012F000AF93BF93EF93FF9383E093E00E942F0897
:10130000FF91EF91BF91AF919F918F917F916F91DD
:101310005F914F913F912F910F900FBE0F901F90B3
:10132000189583E093E00E94F40721E0892B09F4EB
:1013300020E0822F0895109206031092050388EE94
:1013400093E0A0E0B0E08093070390930803A0939C
:101350000903B0930A0385E092E09093040380931D
:10136000030385EC90E09093100380930F0384ECCB
:1013700090E0909312038093110380EC90E090939F
:1013800014038093130381EC90E0909316038093F1
:10139000150382EC90E0909318038093170386EC7A
:1013A00090E090931A038093190310921C031092FB
:1013B0001D0310921E0310921F030895CF92DF9217
:1013C000EF92FF920F931F93CF93DF936C017A01FB
:1013D000EB01E60EF71E00E010E0CE15DF0561F030
:1013E0006991D601ED91FC910190F081E02DC6014B
:1013F0000995080F191FF1CFC801DF91CF911F91F7
:101400000F91FF90EF90DF90CF90089561157105D7
:1014100081F0DB010D900020E9F7AD014150510949
:10142000461B570BDC01ED91FC910280F381E02D0E
:10143000099480E090E00895EF92FF920F931F933C
:10144000CF93DF938C01FB01C0E0D0E064917F017A
:101450008FEFE81AF80A662361F0D801ED91FC914C
:101460000190F081E02DC8010995C80FD91FF7013F
:10147000EDCFCE01DF91CF911F910F91FF90EF90B3
:101480000895DC01ED91FC910190F081E02D09942B
:1014900061E172E00C94060A0F931F93CF93DF93E0
:1014A000EC010E941C0A8C01CE010E94480A800FA8
:1014B000911FDF91CF911F910F9108950F931F936B
:1014C000CF93DF93EC010E94060A8C01CE010E94AB
:1014D000480A800F911FDF91CF911F910F910895BE
:1014E0008F929F92AF92BF92CF92DF92EF92FF9234
:1014F0000F931F93CF93DF93CDB7DEB7A1970FB6AE
:10150000F894DEBF0FBECDBF7C01C42EE52FCB010A
:10151000D22E19A221E02D1510F02AE0D22E8E0134
:101520000F5D1F4F8D2C912CA12CB12C6C2D7E2F7B
:10153000A50194010E94B30F8C2DD29E8019112415
:10154000015011098A3014F4805D01C0895CF801F2
:101550008083211531054105510521F0C22EE32F6D
:10156000CA01E4CFB801C7010E94060AA1960FB6CE
:10157000F894DEBF0FBECDBFDF91CF911F910F91C9
:10158000FF90EF90DF90CF90BF90AF909F908F90A3
:101590000895CF92DF92EF92FF920F931F93CF9314
:1015A000DF93EC016A017B012115310579F4E881B3
:1015B000F9810190F081E02D642FDF91CF911F918F
:1015C0000F91FF90EF90DF90CF9009942A30310572
:1015D000E9F477FF1AC06DE20E94410A8C014427AA
:1015E0005527BA014C195D096E097F092AE0CE0121
:1015F0000E94700A800F911FDF91CF911F910F9170
:10160000FF90EF90DF90CF9008952AE0B701A601F8
:10161000CE01DF91CF911F910F91FF90EF90DF905E
:10162000CF900C94700A4F925F926F927F928F923C
:101630009F92AF92BF92CF92DF92EF92FF920F9361
:101640001F93CF93DF93EC016A017B01B22E9A01C5
:10165000AB01C701B6010E94AF0F882319F064E106
:1016600072E027C026013701E89477F82FEF3FEFAB
:101670004FE75FE7C301B2010E94AF0F81110DC0B8
:101680002FEF3FEF4FE75FE7C301B2010E94F90D73
:1016900018161CF468E172E00CC02FEF3FEF4FE723
:1016A0005FE4C701B6010E94480F1816ACF46CE164
:1016B00072E0CE01DF91CF911F910F91FF90EF90DB
:1016C000DF90CF90BF90AF909F908F907F906F9062
:1016D0005F904F900C94060A2FEF3FEF4FE75FECBF
:1016E000C701B6010E94F90D87FDE1CF20E030E08F
:1016F000A901C701B6010E94F90D87FF0AC06DE27A
:10170000CE010E94410A8C01F7FAF094F7F8F094A8
:1017100002C000E010E0A12C60E070E080E09FE3F8
:10172000AB1441F020E030E040E251E40E94FD0DB6
:10173000A394F6CF9B01AC01C701B6010E94950DA1
:101740006B017C010E946A0E2B013C010E94960EE7
:101750009B01AC01C701B6010E94940D6B017C0195
:101760002AE0B301A201CE010E94700A080F191FDE
:10177000BB2039F060E272E0CE010E94060A080F39
:10178000191F7B2C772041F120E030E040E251E44A
:10179000C701B6010E944C0F6B017C010E94650ECF
:1017A0004B01AA2497FCA094BA2C2AE030E0B501A2
:1017B000A401CE010E94C90A080F191FC501B40176
:1017C0000E94980E9B01AC01C701B6010E94940DC6
:1017D0006B017C017A94D6CFC801DF91CF911F9124
:1017E0000F91FF90EF90DF90CF90BF90AF909F90C0
:1017F0008F907F906F905F904F9008950F931F93FD
:10180000CF93DF93EC010E94130B8C01CE010E9459
:10181000480A800F911FDF91CF911F910F9108957A
:1018200008950E94C00C0E94100C0E94BD00C1E2ED
:10183000D8E00E94FC002097E1F30E942108F9CF34
:101840001F920F920FB60F9211242F933F938F93F5
:101850009F93AF93BF938091A1039091A203A09116
:10186000A303B091A4033091A00323E0230F2D37ED
:1018700020F40196A11DB11D05C026E8230F029694
:10188000A11DB11D2093A0038093A1039093A203F7
:10189000A093A303B093A4038091A5039091A60302
:1018A000A091A703B091A8030196A11DB11D80933B
:1018B000A5039093A603A093A703B093A803BF9199
:1018C000AF919F918F913F912F910F900FBE0F90ED
:1018D0001F9018953FB7F8948091A5039091A603A7
:1018E000A091A703B091A80326B5A89B05C02F3FE0
:1018F00019F00196A11DB11D3FBF6627782F892FD2
:101900009A2F620F711D811D911D42E0660F771F96
:10191000881F991F4A95D1F70895CF92DF92EF92D1
:10192000FF92CF93DF936B017C010E946A0CEB0165
:10193000C114D104E104F10489F00E94930D0E94C6
:101940006A0C6C1B7D0B683E734090F381E0C81AF3
:10195000D108E108F108C851DC4FEACFDF91CF91FF
:10196000FF90EF90DF90CF9008958230910538F08E
:10197000880F991F880F991F05970197F1F7089510
:10198000789484B5826084BD84B5816084BD85B55A
:10199000826085BD85B5816085BDEEE6F0E0808121
:1019A00081608083E1E8F0E0108280818260808342
:1019B000808181608083E0E8F0E0808181608083C5
:1019C000E1EBF0E0808184608083E0EBF0E08081F7
:1019D00081608083EAE7F0E0808184608083808199
:1019E0008260808380818160808380818068808341
:1019F0001092C1000895833081F028F4813099F06D
:101A00008230A1F008958730A9F08830B9F0843091
:101A1000D1F4809180008F7D03C0809180008F770A
:101A200080938000089584B58F7702C084B58F7D40
:101A300084BD08958091B0008F7703C08091B0007D
:101A40008F7D8093B0000895CF93DF9390E0FC01E9
:101A5000E752FF4F2491FC01E351FF4F849188230B
:101A600049F190E0880F991FFC01EB5EFE4FA591B4
:101A7000B491855F9E4FFC01C591D4919FB76111D0
:101A800008C0F8948C91209582238C9388818223BE
:101A90000AC0623051F4F8948C91322F3095832330
:101AA0008C938881822B888304C0F8948C91822B3C
:101AB0008C939FBFDF91CF9108950F931F93CF9386
:101AC000DF931F92CDB7DEB7282F30E0F901EB533B
:101AD000FF4F8491F901E752FF4F1491F901E3514F
:101AE000FF4F04910023C9F0882321F069830E94ED
:101AF000FB0C6981E02FF0E0EE0FFF1FE55FFE4F6A
:101B0000A591B4919FB7F8948C91611103C0109581
:101B1000812301C0812B8C939FBF0F90DF91CF91C8
:101B20001F910F91089508955058BB27AA270ED0F2
:101B300075C166D130F06BD120F031F49F3F11F4C4
:101B40001EF45BC10EF4E095E7FB51C1E92F77D19C
:101B500080F3BA17620773078407950718F071F4CA
:101B60009EF58FC10EF4E0950B2EBA2FA02D0B0120
:101B7000B90190010C01CA01A0011124FF27591BD2
:101B800099F0593F50F4503E68F11A16F040A22FD8
:101B9000232F342F4427585FF3CF46953795279549
:101BA000A795F0405395C9F77EF41F16BA0B620B48
:101BB000730B840BBAF09150A1F0FF0FBB1F661F8F
:101BC000771F881FC2F70EC0BA0F621F731F841FD2
:101BD00048F4879577956795B795F7959E3F08F0F8
:101BE000B3CF9395880F08F09927EE0F97958795B7
:101BF0000895D9D008F481E008950CD00FC107D121
:101C000040F0FED030F021F45F3F19F0F0C05111E8
:101C100039C1F3C014D198F39923C9F35523B1F313
:101C2000951B550BBB27AA2762177307840738F04B
:101C30009F5F5F4F220F331F441FAA1FA9F333D0AA
:101C40000E2E3AF0E0E830D091505040E695001C5E
:101C5000CAF729D0FE2F27D0660F771F881FBB1F1A
:101C6000261737074807AB07B0E809F0BB0B802DF4
:101C7000BF01FF2793585F4F2AF09E3F510568F040
:101C8000B6C000C15F3FECF3983EDCF386957795D4
:101C90006795B795F7959F5FC9F7880F911D969542
:101CA000879597F90895E1E0660F771F881FBB1F9E
:101CB000621773078407BA0720F0621B730B840B4B
:101CC000BA0BEE1F88F7E095089504D06894B1111F
:101CD000D9C00895BCD088F09F5790F0B92F9927AC
:101CE000B751A0F0D1F0660F771F881F991F1AF027
:101CF000BA95C9F712C0B13081F0C3D0B1E00895F0
:101D0000C0C0672F782F8827B85F39F0B93FCCF370
:101D1000869577956795B395D9F73EF4909580951C
:101D2000709561957F4F8F4F9F4F0895E89409C03C
:101D300097FB3EF490958095709561957F4F8F4FFE
:101D40009F4F9923A9F0F92F96E9BB279395F69514
:101D5000879577956795B795F111F8CFFAF4BB0F92
:101D600011F460FF1BC06F5F7F4F8F4F9F4F16C0F6
:101D7000882311F096E911C0772321F09EE8872F80
:101D8000762F05C0662371F096E8862F70E060E03C
:101D90002AF09A95660F771F881FDAF7880F9695B5
:101DA000879597F90895990F0008550FAA0BE0E859
:101DB000FEEF16161706E807F907C0F0121613060D
:101DC000E407F50798F0621B730B840B950B39F44D
:101DD0000A2661F0232B242B252B21F408950A26B3
:101DE00009F4A140A6958FEF811D811D089597F9F3
:101DF0009F6780E870E060E008959FEF80EC0895B1
:101E000000240A94161617061806090608950024D9
:101E10000A9412161306140605060895092E039453
:101E2000000C11F4882352F0BB0F40F4BF2B11F4C7
:101E300060FF04C06F5F7F4F8F4F9F4F089557FD26
:101E40009058440F551F59F05F3F71F04795880F28
:101E500097FB991F61F09F3F79F0879508951216BF
:101E600013061406551FF2CF4695F1DF08C016166B
:101E700017061806991FF1CF86957105610508941C
:101E80000895E894BB2766277727CB0197F9089533
:101E90008ADF08F48FEF08950BD0C0CFB1DF28F0B0
:101EA000B6DF18F0952309F0A2CFA7CF1124EACF0F
:101EB000C6DFA0F3959FD1F3950F50E0551F629FA9
:101EC000F001729FBB27F00DB11D639FAA27F00D93
:101ED000B11DAA1F649F6627B00DA11D661F829FBA
:101EE0002227B00DA11D621F739FB00DA11D621F9F
:101EF000839FA00D611D221F749F3327A00D611DBC
:101F0000231F849F600D211D822F762F6A2F11249D
:101F10009F5750408AF0E1F088234AF0EE0FFF1FF0
:101F2000BB1F661F771F881F91505040A9F79E3F27
:101F3000510570F05CCFA6CF5F3FECF3983EDCF329
:101F4000869577956795B795F795E7959F5FC1F764
:101F5000FE2B880F911D9695879597F9089523DF9D
:101F6000880B990B0895A1E21A2EAA1BBB1BFD0139
:101F70000DC0AA1FBB1FEE1FFF1FA217B307E40768
:101F8000F50720F0A21BB30BE40BF50B661F771FC0
:101F9000881F991F1A9469F76095709580959095A0
:101FA0009B01AC01BD01CF010895EE0FFF1F05900D
:0A1FB000F491E02D0994F894FFCF9E
:101FBA00314E6F646500324E6F646500456E74651C
:101FCA0072696E672073657475700A0A00536574C6
:101FDA0074696E6720706F776572206C6576656CC0
:101FEA000A0A004F70656E696E67207772697465B8
:101FFA0020706970650A0A005374617274696E67A9
:10200A0020746F206C697374656E0A0A00476574E0
:10201A0074696E672073656E736F7220737461746E
:10202A0075730A0A00476F742073656E736F7220A6
:10203A007374617475730A0A00476F742074656D4E
:10204A007020696E666F726D6174696F6E0A0A003C
:10205A0053746F7070696E67206C697374656E690A
:10206A006E670A0A0044656C6179696E672033738A
:10207A000A0A00456E64206F66206C6F6F702061DB
:10208A006E64207374617274206C697374656E690E
:10209A006E670A0A0073656E736F72206661696CF7
:1020AA000000000000630336030B03130326033505
:1020BA0003000000007208DE09F4070D08FF07504C
:1020CA00080D0A006E616E00696E66006F76660022
:0220DA002E00D6
:00000001FF
