:100000000C9474000C949C000C949C000C949C0028
:100010000C949C000C949C000C949C000C949C00F0
:100020000C949C000C949C000C949C000C949C00E0
:100030000C949C000C949C000C949C000C949C00D0
:100040000C94C5080C949C000C9495070C94C7075D
:100050000C949C000C949C000C949C000C949C00B0
:100060000C942D010C949C006661696C65640066BB
:1000700061696C6564001112131415160A0B0C0DDE
:100080000E0F000102030405000000080002010039
:100090000003040700000000000000000102040843
:1000A00010204080010204081020010204081020E2
:1000B000040404040404040402020202020203030E
:1000C00003030303000000002300260029000000B2
:1000D0000000250028002B0000000000240027005D
:1000E0002A00FE00F102F70711241FBECFEFD8E06F
:1000F000DEBFCDBF11E0A0E0B1E0ECE3F8E102C06B
:1001000005900D92AE37B107D9F723E0AEE7B1E025
:1001100001C01D92A330B207E1F710E0C8EED0E0B5
:1001200004C02297FE010E940F0CC23ED107C9F7FE
:100130000E94B6080C941C0C0C9400008EE791E011
:100140000E94090661E08EE791E00E94AE0566E03C
:1001500071E08EE791E00E94E00440E051E061E050
:100160008EE791E00E94FA048EE791E00C94680516
:100170006CE071E08DE592E00E949D0862E080E90C
:1001800091E00E9435078F3F51F0882329F08E3F80
:1001900049F46BE271E008C065E171E005C06AE115
:1001A00071E002C06CE371E08DE592E00E949D0871
:1001B0008EE791E00E94500444E060E971E08EE730
:1001C00091E00E94DD04811106C06FE670E08DE5CC
:1001D00092E00E94A30844E064E971E08EE791E0B8
:1001E0000E94DD04811106C068E670E08DE592E0B2
:1001F0000E94A3088EE791E00C94680548E067E050
:100200008EE791E00C943E04613298F420910A024A
:10021000243089F46093BF01FC0181EC91E0DC01A2
:100220002A2F281B261718F421912D93F9CF80E04F
:10023000089581E0089582E0089585ED8093BC00E3
:100240008091BC0084FDFCCF10920A02089585ECD9
:100250008093BC0010920A0208951F920F920FB66D
:100260000F9211242F933F934F935F936F937F933C
:100270008F939F93AF93BF93EF93FF938091B900B8
:10028000887F803609F49CC068F5883209F45BC029
:1002900090F4803109F454C038F4882309F4F5C08F
:1002A000883009F44DC0F5C0883109F44CC0803263
:1002B00009F45DC0EEC0803409F468C048F48033AE
:1002C00009F455C0883309F0E4C080939D01A8C0AB
:1002D000803509F44FC0883509F45DC0883409F0D1
:1002E000D8C0D5C0883909F4C6C0A8F4883709F445
:1002F00067C038F4883609F463C0803709F460C0F9
:10030000C8C0883809F4B7C0803909F45FC08038A4
:1003100009F0BFC05BC0803B09F485C038F4803A67
:1003200009F466C0883A09F47EC0B3C0803C09F481
:10033000A6C0883C09F4A3C0883B09F489C0A9C0C1
:100340008091090210C09091E2018091E10198171B
:1003500070F5E091E20181E08E0F8093E201F0E020
:10036000ED51FE4F80818093BB0085EC85C080936A
:100370009D018DC0E091E20181E08E0F8093E2014A
:100380008091BB00F0E0ED51FE4F80839091E2013F
:100390008091E1016DC0E091E20181E08E0F8093D8
:1003A000E2018091BB00F0E0ED51FE4F808380912F
:1003B000080281116CC081E08093070284EA60C06A
:1003C00083E080930A0210929E01CFCF80919E011C
:1003D000803208F050C0E0919E0181E08E0F809342
:1003E0009E018091BB00F0E0E156FE4F8083BDCFBF
:1003F00080919E01803230F4E0919E01F0E0E15660
:10040000FE4F10820E941D0160919E0170E0E091FC
:100410000302F09104028FE991E0099510929E0188
:100420000E94270136C084E080930A021092C00126
:100430001092BF01E0910502F091060209958091AA
:10044000BF01811105C081E08093BF011092C101FD
:10045000E091C00181E08E0F8093C001F0E0EF5386
:10046000FE4F80818093BB009091C0018091BF01BD
:10047000981708F47ACF85E88093BC000AC085EC11
:100480008093BC0010920A0204C010929D010E9449
:100490001D01FF91EF91BF91AF919F918F917F913E
:1004A0006F915F914F913F912F910F900FBE0F90E1
:1004B0001F90189580913A0290E020913B02821B98
:1004C0009109089520913B0280913A02281750F437
:1004D000E22FF0E0E45CFD4F808190E02F5F2093FD
:1004E0003B0208958FEF9FEF0895E0913B028091CA
:1004F0003A02E81730F4F0E0E45CFD4F808190E0D0
:1005000008958FEF9FEF08950895CF92DF92EF92B5
:10051000FF920F931F93CF93DF937C01CB018A014E
:1005200020911702222389F0EB016B01C40ED51E26
:10053000CC15DD0569F06991D701ED91FC91019031
:10054000F081E02DC7010995F3CF642F0E940401CB
:10055000C801DF91CF911F910F91FF90EF90DF9035
:10056000CF900895CF93DF931F92CDB7DEB7698305
:10057000209117022223D1F020911802203240F05E
:1005800021E030E0FC013383228380E090E015C05D
:1005900080911902E82FF0E0E65EFD4F998190838B
:1005A0008F5F809319028093180205C061E0CE012D
:1005B00001960E94040181E090E00F90DF91CF91BD
:1005C0000895FC011382128248EE53E060E070E06F
:1005D000448355836683778380E591E091838083AC
:1005E00008958BE092E00C94E102CF93CFB7F8949A
:1005F00080915C02811127C0EAEBF0E08491E6EA89
:10060000F0E09491E82FF0E0EE0FFF1FE852FF4F6B
:10061000A591B4918C91892321F461E08AE00E9434
:10062000020A61E08AE00E94C9098CB580618CBD34
:100630008CB580648CBD61E08DE00E94C90961E0E9
:100640008BE00E94C90980915C028F5F80935C02FD
:10065000CFBFCF9108958EBD00000DB407FEFDCF32
:100660008EB508952CB52F7D2CBD2CB5237F2CBDC8
:100670002CB52C7F2CBD2DB521602DBDFC018181B9
:100680000E94020A85E090E00C945A09FC018081E6
:10069000918189130C94020A089560E00C9432034E
:1006A00061E00C943203EF92FF921F93CF93DF939C
:1006B0001F92CDB7DEB77C0169830E944D0369812B
:1006C000862F8F710E942B038FEF0E942B03182F10
:1006D000C7010E945003812F0F90DF91CF911F918E
:1006E000FF90EF900895CF92DF92EF92FF920F93D9
:1006F0001F93CF93DF9300D01F92CDB7DEB78C014D
:10070000F22E4A835B8369830E944D036981862FA1
:100710008F7180620E942B03E82E4A81C42E5B8178
:10072000D52EF40EFC1431F0F60181916F010E9478
:100730002B03F8CFC8010E9450038E2D0F900F900D
:100740000F90DF91CF911F910F91FF90EF90DF906D
:10075000CF900895EF92FF921F93CF93DF9300D035
:10076000CDB7DEB77C014A8369830E944D0369815E
:10077000862F8F7180620E942B03182F4A81842F4D
:100780000E942B03C7010E945003812F0F900F90EE
:10079000DF91CF911F91FF90EF900895AF92BF929C
:1007A000DF92EF92FF920F931F93CF93DF9300D0CE
:1007B0001F92CDB7DEB78C01FC01E580F42EE41664
:1007C00008F4FE2CF8018681811102C0EF1801C0E7
:1007D000E12CC80129836A837B830E944D03298110
:1007E000822F0E942B03D82E6A81A62E7B81B72EE2
:1007F000F60EFA1431F0F50181915F010E942B038E
:10080000F8CFEE2029F080E00E942B03EA94F9CF84
:10081000C8010E9450038D2D0F900F900F90DF9113
:10082000CF911F910F91FF90EF90DF90BF90AF900D
:100830000895EF92FF921F93CF93DF931F92CDB74E
:10084000DEB77C0169830E944D036981862F0E9477
:100850002B03182FC7010E945003812F0F90DF91A7
:10086000CF911F91FF90EF90089562EE0C941904C0
:1008700061EE0C9419046FEF0C941904FC01608371
:100880004183148280E28583168285E08487178203
:100890000895462F6E3708F04DE765E00C94AA03E3
:1008A000CF93DF93EC0160E00E9446038D859E8527
:1008B0000E945A096DE1CE010E94530381FF07C0D7
:1008C0008D859E850E945A09CE010E94380460E001
:1008D000CE010E945303482F4E7F60E0CE010E945C
:1008E000AA0362E0CE010E945303E2E8F0E0E49143
:1008F00021E030E001C0220FEA95EAF7822B482F71
:1009000062E0CE01DF91CF910C94AA03CF93DF93E5
:10091000EC0160E00E94530381FD12C060E0CE0153
:100920000E945303482F426060E0CE010E94AA0358
:1009300065E070E080E090E0DF91CF910C943209A7
:10094000DF91CF9108950F93CF93DF93EC01222392
:1009500011F020EB01C020EACE010E94CE0300235B
:1009600039F061E0CE01DF91CF910F910C944603F5
:10097000DF91CF910F9108950F93CF93DF93EC0107
:1009800001E00E94A304CE010E943B048073D9F3CE
:1009900060E0CE010E94460340E767E0CE010E947E
:1009A000AA0384FF05C0CE010E94380480E001C084
:1009B00081E0DF91CF910F91089520E00C94BC0469
:1009C0000F931F93CF93DF93EC018B012C85AB0129
:1009D0006AE00E9473032C85A80160E1CE010E94A9
:1009E00073034D8161E1CE01DF91CF911F910F9192
:1009F0000C94AA03FF920F931F93CF93DF93EC0104
:100A0000F62E8A01611107C04C8550E0B8010796A7
:100A10000E94130C07C086E0861708F437C081E0F7
:100A2000681307C0EF2DF0E0E458FF4F64912C8568
:100A300006C0E62FF0E0E458FF4F649121E0A801E2
:100A4000CE010E9473030F2D10E0F801EA58FF4F0A
:100A500064914D81CE010E94AA0362E0CE010E9402
:100A60005303F801EE57FF4F049121E030E001C03D
:100A7000220F0A95EAF7822B482F62E0CE01DF9120
:100A8000CF911F910F91FF900C94AA03DF91CF910A
:100A90001F910F91FF9008951F93CF93DF93EC0167
:100AA000162F62E00E945303E12FF0E0EE57FF4F54
:100AB000E49141E050E001C0440FEA95EAF7409527
:100AC000482362E0CE01DF91CF911F910C94AA03DD
:100AD000CF93DF93EC010E94860460E0CE010E9478
:100AE0005303482F416060E0CE010E94AA0340E713
:100AF00067E0CE010E94AA0361E0CE010E94460396
:100B00008F81882349F02C85AE01495F5F4F6AE0F1
:100B1000CE010E94730304C060E0CE010E944C0528
:100B20006DE1CE010E94530381FF05C0CE01DF912C
:100B3000CF910C943804DF91CF910895CF93DF9338
:100B4000EC010E944D0380E50E942B0383E70E9485
:100B50002B03CE01DF91CF910C9450031F93CF93C1
:100B6000DF93EC01162F66E00E945303887F143058
:100B700020F4612F660F6F5F01C067E0462F482B9E
:100B800066E0CE01DF91CF911F910C94AA03EF9202
:100B9000FF920F931F93CF93DF931F92CDB7DEB7D2
:100BA0007C018B0166E00E945303582F577D023071
:100BB000110531F450620BE910E020E030E00DC087
:100BC0000130110529F005E510E020E030E005C016
:100BD000586001E410E020E030E0F7010587168757
:100BE0002787308B452F66E0C70159830E94AA03EF
:100BF00066E0C7010E94530391E05981851390E09C
:100C0000892F0F90DF91CF911F910F91FF90EF905F
:100C10000895CF93DF93EC0188819981891719F0AA
:100C200061E00E94C90989819881981719F061E0F3
:100C30000E94C9090E94F50260E0CE010E944603AD
:100C400061E0CE010E94320365E070E080E090E058
:100C50000E9432094CE060E0CE010E94AA034FE5F9
:100C600064E0CE010E94AA0362E070E0CE010E941F
:100C7000C705882311F081E08C8360E070E0CE012D
:100C80000E94C705CE010E949E0540E06DE1CE01A5
:100C90000E94AA0340E06CE1CE010E94AA0340E753
:100CA00067E0CE010E94AA036CE4CE010E944904D1
:100CB000CE010E943504CE010E943804CE010E946C
:100CC000860460E0CE010E945303482F4E7F60E00F
:100CD000CE010E94AA0380E0DF91CF9108954F9248
:100CE0005F926F927F928F929F92AF92BF92CF92BC
:100CF000DF92EF92FF920F931F93CF93DF9300D079
:100D0000CDB7DEB77C01D62E70E0FB01E456FF4F75
:100D1000C490FB01E055FF4FE491F0E0EE0FFF1FA0
:100D2000EC53FF4F4590549061E08D2D2A83498309
:100D30000E94C90960E08D2D0E94020A88EE93E0AE
:100D40004981BC01469FC001479F900D11240E941C
:100D50005A0961E08D2D0E94020A60E08D2D0E94EB
:100D6000C90980E293E02A81F20130813C2121F01F
:100D70000197D1F78DEF66C080E991E0F2013081F3
:100D80003C2121F40197D1F78CEF5CC080E991E020
:100D9000F20130813C2121F00197D1F78BEF52C055
:100DA000F8E2BF2EA0E9B1E040E050E080E991E038
:100DB00060E0912C812C10E8612E7B2C721A00E9E6
:100DC00011E020E030E0F201A080AC2051F5662374
:100DD00041F17B1490F4A817B90708F4CD01B901CB
:100DE000A801481B590B61097109E2E075956795E7
:100DF00057954795EA95D1F707C0BC01641B750B61
:100E00006A177B0708F09628669441F4F701E80D0D
:100E1000F11D90868394912C60E8662EBA94A0E927
:100E2000B1E0119771F0BB2011F06A2DCCCF61E0D9
:100E30008D2D0E94C90961E08D2D0E94020A80E07B
:100E400001C08EEF0F900F90DF91CF911F910F9106
:100E5000FF90EF90DF90CF90BF90AF909F908F90DA
:100E60007F906F905F904F900895CF92DF92EF92B6
:100E7000FF920F931F93CF93DF93EC0126E041E0A5
:100E80000E946F06E82E188513701887CA840C2DEF
:100E900003780A87F984612F70E0762F66276F0D3B
:100EA000711D882777FD8095982F0E941E0B2DECD1
:100EB0003CEC4CEC5DE30E94AA0B688379838A8347
:100EC0009B83DB846C2D637070E0762F66276D0D3D
:100ED000711D882777FD8095982F0E941E0B2DECA1
:100EE0003CEC4CEC5DE30E94AA0B07FD05C06C8353
:100EF0007D838E839F8307C0DC01CB01B0588C8338
:100F00009D83AE83BF83FD0CF10EF00E8C858F1593
:100F100011F08FEF01C08E2DDF91CF911F910F91B6
:100F2000FF90EF90DF90CF9008951F920F920FB631
:100F30000F9211242F938F939F93EF93FF93E09140
:100F40006D02F0916E028081E0917302F091740263
:100F500082FD12C09081809176028F5F8F73209105
:100F60007702821751F0E0917602F0E0E35AFD4FEC
:100F7000958F8093760201C08081FF91EF919F91C0
:100F80008F912F910F900FBE0F901F9018951F9269
:100F90000F920FB60F9211242F933F934F935F93AD
:100FA0006F937F938F939F93AF93BF93EF93FF9331
:100FB0008DE592E00E94730AFF91EF91BF91AF918E
:100FC0009F918F917F916F915F914F913F912F9161
:100FD0000F900FBE0F901F9018958DE592E00E9424
:100FE000380A21E0892B09F420E0822F089510921D
:100FF000600210925F0288EE93E0A0E0B0E0809380
:10100000610290936202A0936302B093640281E74D
:1010100091E090935E0280935D0285EC90E0909366
:101020006A028093690284EC90E090936C02809352
:101030006B0280EC90E090936E0280936D0281ECE5
:1010400090E09093700280936F0282EC90E0909316
:1010500072028093710286EC90E090937402809308
:101060007302109276021092770210927802109218
:1010700079020895CF92DF92EF92FF920F931F9320
:10108000CF93DF936C017A01EB01E60EF71E00E0CF
:1010900010E0CE15DF0561F06991D601ED91FC916C
:1010A0000190F081E02DC6010995080F191FF1CFBD
:1010B000C801DF91CF911F910F91FF90EF90DF90CA
:1010C000CF9008956115710581F0DB010D9000202E
:1010D000E9F7AD0141505109461B570BDC01ED9179
:1010E000FC910280F381E02D099480E090E0089566
:1010F000EF92FF920F931F93CF93DF938C01FB012D
:10110000C0E0D0E064917F018FEFE81AF80A66230F
:1011100061F0D801ED91FC910190F081E02DC801C2
:101120000995C80FD91FF701EDCFCE01DF91CF91FF
:101130001F910F91FF90EF9008950C9462086CE559
:1011400071E00C9462080F931F93CF93DF93EC012F
:101150000E9478088C01CE010E949F08800F911F89
:10116000DF91CF911F910F91089508950E94650915
:101170000E94B5080E949E00C5E6DAE00E94B80011
:101180002097E1F30E94650AF9CF1F920F920FB6E4
:101190000F9211242F933F938F939F93AF93BF93FD
:1011A0008091FB029091FC02A091FD02B091FE02A1
:1011B0003091FA0223E0230F2D3720F40196A11D70
:1011C000B11D05C026E8230F0296A11DB11D209375
:1011D000FA028093FB029093FC02A093FD02B0936D
:1011E000FE028091FF0290910003A0910103B09153
:1011F00002030196A11DB11D8093FF02909300038D
:10120000A0930103B0930203BF91AF919F918F917F
:101210003F912F910F900FBE0F901F9018953FB7E1
:10122000F8948091FF0290910003A0910103B09186
:10123000020326B5A89B05C02F3F19F00196A11DFA
:10124000B11D3FBF6627782F892F9A2F620F711D1E
:10125000811D911D42E0660F771F881F991F4A95D7
:10126000D1F70895CF92DF92EF92FF92CF93DF9361
:101270006B017C010E940F09EB01C114D104E10450
:10128000F10489F00E941B0B0E940F096C1B7D0B5F
:10129000683E734090F381E0C81AD108E108F10874
:1012A000C851DC4FEACFDF91CF91FF90EF90DF90F4
:1012B000CF9008958230910538F0880F991F880FDC
:1012C000991F05970197F1F70895789484B5826086
:1012D00084BD84B5816084BD85B5826085BD85B5DA
:1012E000816085BDEEE6F0E0808181608083E1E889
:1012F000F0E01082808182608083808181608083C1
:10130000E0E8F0E0808181608083E1EBF0E08081C3
:1013100084608083E0EBF0E0808181608083EAE795
:10132000F0E080818460808380818260808380811E
:10133000816080838081806880831092C1000895DD
:10134000833081F028F4813099F08230A1F0089543
:101350008730A9F08830B9F08430D1F480918000D2
:101360008F7D03C0809180008F77809380000895E7
:1013700084B58F7702C084B58F7D84BD0895809138
:10138000B0008F7703C08091B0008F7D8093B00054
:101390000895CF93DF9390E0FC01E456FF4F249132
:1013A000FC01E055FF4F8491882349F190E0880FBC
:1013B000991FFC01E852FF4FA591B49182539F4FB2
:1013C000FC01C591D4919FB7611108C0F8948C912C
:1013D000209582238C93888182230AC0623051F445
:1013E000F8948C91322F309583238C938881822BB3
:1013F000888304C0F8948C91822B8C939FBFDF91DB
:10140000CF9108950F931F93CF93DF931F92CDB782
:10141000DEB7282F30E0F901E857FF4F8491F9013A
:10142000E456FF4F1491F901E055FF4F049100235A
:10143000C9F0882321F069830E94A0096981E02F07
:10144000F0E0EE0FFF1FE253FF4FA591B4919FB75D
:10145000F8948C91611103C01095812301C0812BF8
:101460008C939FBF0F90DF91CF911F910F910895A3
:10147000FC01818D228D90E0805C9F4F821B910941
:101480008F7399270895FC01918D828D981731F003
:10149000828DE80FF11D858D90E008958FEF9FEF0D
:1014A0000895FC01918D828D981761F0828DDF0186
:1014B000A80FB11D5D968C91928D9F5F9F73928F47
:1014C00090E008958FEF9FEF08958DEE97E0892BC0
:1014D00049F080E090E0892B29F00E94ED0781110E
:1014E0000C9400000895FC01848DDF01A80FB11D4C
:1014F000A35ABF4F2C91848D90E001968F7399274A
:10150000848FA689B7892C93A089B1898C91806436
:101510008C93938D848D981306C00288F389E02DF7
:1015200080818F7D80830895CF93DF93EC01888D38
:101530008823C9F0EA89FB89808185FD05C0A889D7
:10154000B9898C9186FD0FC00FB607FCF5CF80815D
:1015500085FFF2CFA889B9898C9185FFEDCFCE01A7
:101560000E94730AE7CFDF91CF910895CF92DF9267
:10157000FF920F931F93CF93DF931F92CDB7DEB7E8
:101580006C0181E0D60158968C9358975B969C919C
:101590005B975C968C915C97981307C05096ED9181
:1015A000FC915197808185FD2EC0F601038D10E0DE
:1015B0000F5F1F4F0F731127F02EF601848DF81265
:1015C00011C00FB607FCF9CFD6015096ED91FC91F2
:1015D0005197808185FFF1CFC60169830E94730A0C
:1015E0006981EBCF838DE80FF11DE35AFF4F6083D4
:1015F000D6015B960C935B975296ED91FC915397B5
:10160000808180620CC0D6015696ED91FC9157976F
:1016100060835096ED91FC91519780818064808326
:1016200081E090E00F90DF91CF911F910F91FF909B
:10163000DF90CF9008950895E89409C097FB3EF499
:1016400090958095709561957F4F8F4F9F4F99230F
:10165000A9F0F92F96E9BB279395F695879577958D
:101660006795B795F111F8CFFAF4BB0F11F460FF4D
:101670001BC06F5F7F4F8F4F9F4F16C0882311F0A5
:1016800096E911C0772321F09EE8872F762F05C0B9
:10169000662371F096E8862F70E060E02AF09A9554
:1016A000660F771F881FDAF7880F9695879597F949
:1016B000089597F99F6780E870E060E008959FEFD4
:1016C00080EC089500240A941616170618060906D9
:1016D000089500240A9412161306140605060895A8
:1016E000092E0394000C11F4882352F0BB0F40F430
:1016F000BF2B11F460FF04C06F5F7F4F8F4F9F4F70
:10170000089557FD9058440F551F59F05F3F71F0F1
:101710004795880F97FB991F61F09F3F79F0879558
:101720000895121613061406551FF2CF4695F1DFE1
:1017300008C0161617061806991FF1CF8695710571
:10174000610508940895E894BB2766277727CB01A5
:1017500097F908950BD0C4CFB5DF28F0BADF18F0A1
:10176000952309F0A6CFABCF1124EECFCADFA0F3AB
:10177000959FD1F3950F50E0551F629FF001729F26
:10178000BB27F00DB11D639FAA27F00DB11DAA1F45
:10179000649F6627B00DA11D661F829F2227B00D92
:1017A000A11D621F739FB00DA11D621F839FA00D1D
:1017B000611D221F749F3327A00D611D231F849F6D
:1017C000600D211D822F762F6A2F11249F575040C4
:1017D0008AF0E1F088234AF0EE0FFF1FBB1F661F5F
:1017E000771F881F91505040A9F79E3F510570F018
:1017F00060CFAACF5F3FECF3983EDCF386957795F8
:101800006795B795F795E7959F5FC1F7FE2B880F12
:10181000911D9695879597F90895EE0FFF1F0590F6
:10182000F491E02D0994FB01DC0102C001900D92BE
:0C18300041505040D8F70895F894FFCFC5
:10183C00314E6F646500324E6F646500444854321B
:10184C00322C2009004F4B2C0900436865636B73E5
:10185C00756D206572726F722C090054696D65206C
:10186C006F7574206572726F722C0900556E6B6EF9
:10187C006F776E206572726F722C09000000000089
:10188C00B20285025A026202750284020D0A006ECF
:10189C00616E00696E66006F7666002E00000000B7
:0E18AC0000B60A3A08380A510A430A940A00A4
:00000001FF
