:100000000C9493000C94BB000C94BB000C94BB00AC
:100010000C94BB000C94BB000C94BB000C94BB0074
:100020000C94BB000C94BB000C94BB000C94BB0064
:100030000C94BB000C94BB000C94BB000C94BB0054
:100040000C9470080C94BB000C9442070C94740739
:100050000C94BB000C94BB000C94BB000C94BB0034
:100060000C947E010C94BB0073656E736F722066F6
:1000700061696C0073656E736F72206661696C00F4
:1000800073656E736F72206661696C006661696C7E
:10009000656420746F2073656E642074656D70658F
:1000A000726174757265006661696C656420746F55
:1000B0002073656E642068756D69646974790000E9
:1000C000010203040500000008000201000003040F
:1000D000070000000000000000010204081020409A
:1000E0008001020408102001020408102004040406
:1000F00004040404040202020202020303030303D1
:100100000300000000230026002900000000002555
:100110000028002B0000000000240027002A000017
:100120004F014203A40711241FBECFEFD8E0DEBF6A
:10013000CDBF11E0A0E0B1E0E0E8F7E102C005903A
:100140000D92AA34B107D9F722E0AAE4B1E001C0C8
:100150001D92AF3CB207E1F711E0C6E2D1E004C066
:100160002297FE010E94BA0BC032D107C9F70E9444
:1001700061080C94BE0B0C9400008AE491E00E948C
:10018000B60564E68AE491E00E949A0461E08AE49C
:1001900091E00E945B0560E071E08AE491E00C94DC
:1001A0003105CF93DF93CDB7DEB72C970FB6F89418
:1001B000DEBF0FBECDBF8CE0ECE0F1E0DE011196BA
:1001C00001900D928A95E1F762E08CE591E00E9442
:1001D000E2068F3F29F1882321F08E3F09F042C0CB
:1001E00030C08AE491E00E94A10444E06CE571E033
:1001F0008AE491E00E942E05811106C067EA70E052
:1002000089E292E00E944E0844E060E671E08AE4F0
:1002100091E00E942E05811139C06CE870E032C077
:100220008AE491E00E94A1044CE0BE016F5F7F4F21
:100230008AE491E00E942E05811128C060E870E0F8
:1002400021C08AE491E00E94A1044CE0BE016F5FEE
:100250007F4F8AE491E00E942E05811117C064E768
:1002600070E010C08AE491E00E94A1044CE0BE015D
:100270006F5F7F4F8AE491E00E942E05811106C0D6
:1002800068E670E089E292E00E944E082C960FB674
:10029000F894DEBF0FBECDBFDF91CF91089548E047
:1002A00067E08AE491E00C948F04613298F4209125
:1002B000D601243089F460938B01FC018DE891E034
:1002C000DC012A2F281B261718F421912D93F9CF32
:1002D00080E0089581E0089582E0089585ED80939F
:1002E000BC008091BC0084FDFCCF1092D601089523
:1002F00085EC8093BC001092D60108951F920F9256
:100300000FB60F9211242F933F934F935F936F93E8
:100310007F938F939F93AF93BF93EF93FF938091BE
:10032000B900887F803609F49CC068F5883209F4EA
:100330005BC090F4803109F454C038F4882309F488
:10034000F5C0883009F44DC0F5C0883109F44CC0BF
:10035000803209F45DC0EEC0803409F468C048F40E
:10036000803309F455C0883309F0E4C080936901F3
:10037000A8C0803509F44FC0883509F45DC08834C1
:1003800009F0D8C0D5C0883909F4C6C0A8F48837A8
:1003900009F467C038F4883609F463C0803709F47B
:1003A00060C0C8C0883809F4B7C0803909F45FC09C
:1003B000803809F0BFC05BC0803B09F485C038F4C9
:1003C000803A09F466C0883A09F47EC0B3C0803C24
:1003D00009F4A6C0883C09F4A3C0883B09F489C08D
:1003E000A9C08091D50110C09091AE018091AD015E
:1003F000981770F5E091AE0181E08E0F8093AE0109
:10040000F0E0E155FE4F80818093BB0085EC85C014
:10041000809369018DC0E091AE0181E08E0F8093E1
:10042000AE018091BB00F0E0E155FE4F80839091DA
:10043000AE018091AD016DC0E091AE0181E08E0F03
:100440008093AE018091BB00F0E0E155FE4F8083C8
:100450008091D40181116CC081E08093D30184EA42
:1004600060C083E08093D60110926A01CFCF809163
:100470006A01803208F050C0E0916A0181E08E0F7D
:1004800080936A018091BB00F0E0E559FE4F8083C4
:10049000BDCF80916A01803230F4E0916A01F0E0D2
:1004A000E559FE4F10820E946E0160916A0170E072
:1004B000E091CF01F091D0018BE691E00995109287
:1004C0006A010E94780136C084E08093D6011092C0
:1004D0008C0110928B01E091D101F091D20109952C
:1004E00080918B01811105C081E080938B01109276
:1004F0008D01E0918C0181E08E0F80938C01F0E002
:10050000E357FE4F80818093BB0090918C018091D6
:100510008B01981708F47ACF85E88093BC000AC055
:1005200085EC8093BC001092D60104C01092690142
:100530000E946E01FF91EF91BF91AF919F918F91BA
:100540007F916F915F914F913F912F910F900FBECF
:100550000F901F9018958091060290E0209107025D
:10056000821B9109089520910702809106022817A5
:1005700050F4E22FF0E0E85FFD4F808190E02F5FC4
:100580002093070208958FEF9FEF0895E0910702EF
:1005900080910602E81730F4F0E0E85FFD4F8081BB
:1005A00090E008958FEF9FEF08950895CF92DF9226
:1005B000EF92FF920F931F93CF93DF937C01CB01B8
:1005C0008A012091E301222389F0EB016B01C40E23
:1005D000D51ECC15DD0569F06991D701ED91FC912F
:1005E0000190F081E02DC7010995F3CF642F0E949F
:1005F0005501C801DF91CF911F910F91FF90EF90AE
:10060000DF90CF900895CF93DF931F92CDB7DEB7E1
:1006100069832091E3012223D1F02091E40120326B
:1006200040F021E030E0FC013383228380E090E061
:1006300015C08091E501E82FF0E0EA51FE4F998165
:1006400090838F5F8093E5018093E40105C061E0B2
:10065000CE0101960E94550181E090E00F90DF915C
:10066000CF910895FC011382128248EE53E060E0BE
:1006700070E044835583668377838CE191E09183B6
:100680008083089587ED91E00C943203CF93CFB728
:10069000F89480912802811127C0E7EFF0E084915F
:1006A000E3EEF0E09491E82FF0E0EE0FFF1FEB5E39
:1006B000FE4FA591B4918C91892321F461E08AE0E9
:1006C0000E94AD0961E08AE00E9474098CB58061E6
:1006D0008CBD8CB580648CBD61E08DE00E94740996
:1006E00061E08BE00E947409809128028F5F809303
:1006F0002802CFBFCF9108958EBD00000DB407FE34
:10070000FDCF8EB508952CB52F7D2CBD2CB5237F44
:100710002CBD2CB52C7F2CBD2DB521602DBDFC0131
:1007200081810E94AD0985E090E00C940509FC01EF
:100730008081918189130C94AD09089560E00C9437
:10074000830361E00C948303EF92FF921F93CF9396
:10075000DF931F92CDB7DEB77C0169830E949E03B1
:100760006981862F8F710E947C038FEF0E947C032A
:10077000182FC7010E94A103812F0F90DF91CF9105
:100780001F91FF90EF900895CF92DF92EF92FF922A
:100790000F931F93CF93DF9300D01F92CDB7DEB797
:1007A0008C01F22E4A835B8369830E949E036981D8
:1007B000862F8F7180620E947C03E82E4A81C42EAE
:1007C0005B81D52EF40EFC1431F0F60181916F019E
:1007D0000E947C03F8CFC8010E94A1038E2D0F90C8
:1007E0000F900F90DF91CF911F910F91FF90EF909D
:1007F000DF90CF900895EF92FF921F93CF93DF93F6
:1008000000D0CDB7DEB77C014A8369830E949E0386
:100810006981862F8F7180620E947C03182F4A8124
:10082000842F0E947C03C7010E94A103812F0F9097
:100830000F90DF91CF911F91FF90EF900895AF92AD
:10084000BF92DF92EF92FF920F931F93CF93DF93AC
:1008500000D01F92CDB7DEB78C01FC01E580F42EED
:10086000E41608F4FE2CF8018681811102C0EF180D
:1008700001C0E12CC80129836A837B830E949E0307
:100880002981822F0E947C03D82E6A81A62E7B812B
:10089000B72EF60EFA1431F0F50181915F010E9436
:1008A0007C03F8CFEE2029F080E00E947C03EA94DC
:1008B000F9CFC8010E94A1038D2D0F900F900F90CA
:1008C000DF91CF911F910F91FF90EF90DF90BF903C
:1008D000AF900895EF92FF921F93CF93DF931F92F3
:1008E000CDB7DEB77C0169830E949E036981862FA4
:1008F0000E947C03182FC7010E94A103812F0F9033
:10090000DF91CF911F91FF90EF90089562EE0C94CC
:100910006A0461EE0C946A046FEF0C946A04FC01A3
:1009200060834183148280E28583168285E0848718
:1009300017820895462F6E3708F04DE765E00C9456
:10094000FB03CF93DF93EC0160E00E9497038D855A
:100950009E850E9405096DE1CE010E94A40381FFDE
:1009600007C08D859E850E940509CE010E948904DD
:1009700060E0CE010E94A403482F4E7F60E0CE01CC
:100980000E94FB0362E0CE010E94A403EFEBF0E0C3
:10099000E49121E030E001C0220FEA95EAF7822BD2
:1009A000482F62E0CE01DF91CF910C94FB03CF93EF
:1009B000DF93EC0160E00E94A40381FD12C060E0BF
:1009C000CE010E94A403482F426060E0CE010E9445
:1009D000FB0365E070E080E090E0DF91CF910C9444
:1009E000DD08DF91CF9108950F93CF93DF93EC0152
:1009F000222311F020EB01C020EACE010E941F0447
:100A0000002339F061E0CE01DF91CF910F910C947A
:100A10009703DF91CF910F9108950F93CF93DF93B9
:100A2000EC0101E00E94F404CE010E948C0480736A
:100A3000D9F360E0CE010E94970340E767E0CE0162
:100A40000E94FB0384FF05C0CE010E94890480E060
:100A500001C081E0DF91CF910F91089520E00C94C7
:100A60000D050F931F93CF93DF93EC018B012C8522
:100A7000AB016AE00E94C4032C85A80160E1CE01AD
:100A80000E94C4034D8161E1CE01DF91CF911F919E
:100A90000F910C94FB03CF93DF93EC010E949E0314
:100AA00080E50E947C0383E70E947C03CE01DF91F6
:100AB000CF910C94A1031F93CF93DF93EC01162FDA
:100AC00066E00E94A403887F143020F4612F660F33
:100AD0006F5F01C067E0462F482B66E0CE01DF91D3
:100AE000CF911F910C94FB03EF92FF920F931F93F2
:100AF000CF93DF931F92CDB7DEB77C018B0166E009
:100B00000E94A403582F577D0230110531F4506222
:100B10000BE910E020E030E00DC00130110529F0B4
:100B200005E510E020E030E005C0586001E410E089
:100B300020E030E0F701058716872787308B452FA7
:100B400066E0C70159830E94FB0366E0C7010E946B
:100B5000A40391E05981851390E0892F0F90DF91D4
:100B6000CF911F910F91FF90EF900895CF93DF9356
:100B7000EC0188819981891719F061E00E9474095C
:100B800089819881981719F061E00E9474090E9488
:100B9000460360E0CE010E94970361E0CE010E940F
:100BA000830365E070E080E090E00E94DD084CE0A7
:100BB00060E0CE010E94FB034FE564E0CE010E949D
:100BC000FB0362E070E0CE010E947405882311F0FF
:100BD00081E08C8360E070E0CE010E947405CE015C
:100BE0000E944B0540E06DE1CE010E94FB0340E016
:100BF0006CE1CE010E94FB0340E767E0CE010E945A
:100C0000FB036CE4CE010E949A04CE010E9486048C
:100C1000CE010E948904CE010E94D70460E0CE017B
:100C20000E94A403482F4E7F60E0CE010E94FB0388
:100C300080E0DF91CF9108954F925F926F927F9203
:100C40008F929F92AF92BF92CF92DF92EF92FF92DC
:100C50000F931F93CF93DF9300D0CDB7DEB77C0106
:100C6000D62E70E0FB01E752FF4FC490FB01E35129
:100C7000FF4FE491F0E0EE0FFF1FEF5FFE4F459056
:100C8000549061E08D2D2A8349830E94740960E0AD
:100C90008D2D0E94AD0988EE93E04981BC01469FED
:100CA000C001479F900D11240E94050961E08D2D20
:100CB0000E94AD0960E08D2D0E94740980E293E0EE
:100CC0002A81F20130813C2121F00197D1F78DEF8B
:100CD00066C080E991E0F20130813C2121F4019766
:100CE000D1F78CEF5CC080E991E0F20130813C21CA
:100CF00021F00197D1F78BEF52C0F8E2BF2EA0E9A7
:100D0000B1E040E050E080E991E060E0912C812C7E
:100D100010E8612E7B2C721A00E911E020E030E02F
:100D2000F201A080AC2051F5662341F17B1490F4D0
:100D3000A817B90708F4CD01B901A801481B590B40
:100D400061097109E2E07595679557954795EA95B0
:100D5000D1F707C0BC01641B750B6A177B0708F04D
:100D60009628669441F4F701E80DF11D908683946E
:100D7000912C60E8662EBA94A0E9B1E0119771F069
:100D8000BB2011F06A2DCCCF61E08D2D0E9474093B
:100D900061E08D2D0E94AD0980E001C08EEF0F90C3
:100DA0000F90DF91CF911F910F91FF90EF90DF9007
:100DB000CF90BF90AF909F908F907F906F905F90FB
:100DC0004F900895CF92DF92EF92FF920F931F936F
:100DD000CF93DF93EC0126E041E00E941C06E82E51
:100DE000188513701887CA840C2D03780A87F98434
:100DF000612F70E0762F66276F0D711D882777FDB4
:100E00008095982F0E94C90A2DEC3CEC4CEC5DE3D8
:100E10000E94550B688379838A839B83DB846C2DC6
:100E2000637070E0762F66276D0D711D882777FD42
:100E30008095982F0E94C90A2DEC3CEC4CEC5DE3A8
:100E40000E94550B07FD05C06C837D838E839F83B5
:100E500007C0DC01CB01B0588C839D83AE83BF8378
:100E6000FD0CF10EF00E8C858F1511F08FEF01C087
:100E70008E2DDF91CF911F910F91FF90EF90DF901A
:100E8000CF9008951F920F920FB60F9211242F93B7
:100E90008F939F93EF93FF93E0913902F0913A0281
:100EA0008081E0913F02F091400282FD12C090816A
:100EB000809142028F5F8F7320914302821751F01D
:100EC000E0914202F0E0E75DFD4F958F8093420292
:100ED00001C08081FF91EF919F918F912F910F9091
:100EE0000FBE0F901F9018951F920F920FB60F9282
:100EF00011242F933F934F935F936F937F938F931F
:100F00009F93AF93BF93EF93FF9389E292E00E9488
:100F10001E0AFF91EF91BF91AF919F918F917F91A9
:100F20006F915F914F913F912F910F900FBE0F9056
:100F30001F90189589E292E00E94E30921E0892B35
:100F400009F420E0822F089510922C0210922B02B7
:100F500088EE93E0A0E0B0E080932D0290932E0203
:100F6000A0932F02B09330028DE391E090932A0278
:100F70008093290285EC90E09093360280933502AD
:100F800084EC90E0909338028093370280EC90E0FC
:100F900090933A028093390281EC90E090933C0266
:100FA00080933B0282EC90E090933E0280933D025E
:100FB00086EC90E09093400280933F0210924202B0
:100FC0001092430210924402109245020895CF926B
:100FD000DF92EF92FF920F931F93CF93DF936C01F9
:100FE0007A01EB01E60EF71E00E010E0CE15DF05FA
:100FF00061F06991D601ED91FC910190F081E02DB5
:10100000C6010995080F191FF1CFC801DF91CF91D3
:101010001F910F91FF90EF90DF90CF900895611591
:10102000710581F0DB010D900020E9F7AD01415021
:101030005109461B570BDC01ED91FC910280F381B5
:10104000E02D099480E090E00895EF92FF920F93D5
:101050001F93CF93DF938C01FB01C0E0D0E064913C
:101060007F018FEFE81AF80A662361F0D801ED914D
:10107000FC910190F081E02DC8010995C80FD91F9E
:10108000F701EDCFCE01DF91CF911F910F91FF902E
:10109000EF90089568E271E00C940F080F931F938E
:1010A000CF93DF93EC010E9425088C01CE010E94B2
:1010B0004A08800F911FDF91CF911F910F910895E2
:1010C00008950E9410090E9460080E94BD00C0E1BE
:1010D000DAE00E94D1002097E1F30E94100AF9CFD4
:1010E0001F920F920FB60F9211242F933F938F935D
:1010F0009F93AF93BF938091C7029091C802A09134
:10110000C902B091CA023091C60223E0230F2D37E5
:1011100020F40196A11DB11D05C026E8230F0296FB
:10112000A11DB11D2093C6028093C7029093C802EF
:10113000A093C902B093CA028091CB029091CC02D5
:10114000A091CD02B091CE020196A11DB11D809358
:10115000CB029093CC02A093CD02B093CE02BF916C
:10116000AF919F918F913F912F910F900FBE0F9054
:101170001F9018953FB7F8948091CB029091CC02C4
:10118000A091CD02B091CE0226B5A89B05C02F3FFD
:1011900019F00196A11DB11D3FBF6627782F892F39
:1011A0009A2F620F711D811D911D42E0660F771FFE
:1011B000881F991F4A95D1F70895CF92DF92EF9239
:1011C000FF92CF93DF936B017C010E94BA08EB0181
:1011D000C114D104E104F10489F00E94C60A0E94FE
:1011E000BA086C1B7D0B683E734090F381E0C81A0F
:1011F000D108E108F108C851DC4FEACFDF91CF9167
:10120000FF90EF90DF90CF9008958230910538F0F5
:10121000880F991F880F991F05970197F1F7089577
:10122000789484B5826084BD84B5816084BD85B5C1
:10123000826085BD85B5816085BDEEE6F0E0808188
:1012400081608083E1E8F0E01082808182608083A9
:10125000808181608083E0E8F0E08081816080832C
:10126000E1EBF0E0808184608083E0EBF0E080815E
:1012700081608083EAE7F0E0808184608083808100
:1012800082608083808181608083808180688083A8
:101290001092C1000895833081F028F4813099F0D4
:1012A0008230A1F008958730A9F08830B9F08430F9
:1012B000D1F4809180008F7D03C0809180008F7772
:1012C00080938000089584B58F7702C084B58F7DA8
:1012D00084BD08958091B0008F7703C08091B000E5
:1012E0008F7D8093B0000895CF93DF9390E0FC0151
:1012F000E752FF4F2491FC01E351FF4F8491882373
:1013000049F190E0880F991FFC01EB5EFE4FA5911B
:10131000B491855F9E4FFC01C591D4919FB7611137
:1013200008C0F8948C91209582238C938881822325
:101330000AC0623051F4F8948C91322F3095832397
:101340008C938881822B888304C0F8948C91822BA3
:101350008C939FBFDF91CF9108950F931F93CF93ED
:10136000DF931F92CDB7DEB7282F30E0F901EB53A2
:10137000FF4F8491F901E752FF4F1491F901E351B6
:10138000FF4F04910023C9F0882321F069830E9454
:101390004B096981E02FF0E0EE0FFF1FE55FFE4F84
:1013A000A591B4919FB7F8948C91611103C01095E9
:1013B000812301C0812B8C939FBF0F90DF91CF9130
:1013C0001F910F910895FC01818D228D90E0805C2A
:1013D0009F4F821B91098F7399270895FC01918D6E
:1013E000828D981731F0828DE80FF11D858D90E088
:1013F00008958FEF9FEF0895FC01918D828D9817CE
:1014000061F0828DDF01A80FB11D5D968C91928DE8
:101410009F5F9F73928F90E008958FEF9FEF0895E5
:101420008AE997E0892B49F080E090E0892B29F048
:101430000E949A0781110C9400000895FC01848D8C
:10144000DF01A80FB11DA35ABF4F2C91848D90E0EE
:1014500001968F739927848FA689B7892C93A089C9
:10146000B1898C9180648C93938D848D981306C080
:101470000288F389E02D80818F7D80830895CF934A
:10148000DF93EC01888D8823C9F0EA89FB8980818C
:1014900085FD05C0A889B9898C9186FD0FC00FB65E
:1014A00007FCF5CF808185FFF2CFA889B9898C919F
:1014B00085FFEDCFCE010E941E0AE7CFDF91CF91CD
:1014C0000895CF92DF92FF920F931F93CF93DF93F4
:1014D0001F92CDB7DEB76C0181E0D60158968C9390
:1014E00058975B969C915B975C968C915C97981350
:1014F00007C05096ED91FC915197808185FD2EC0DB
:10150000F601038D10E00F5F1F4F0F731127F02EB0
:10151000F601848DF81211C00FB607FCF9CFD60181
:101520005096ED91FC915197808185FFF1CFC601D6
:1015300069830E941E0A6981EBCF838DE80FF11D3C
:10154000E35AFF4F6083D6015B960C935B975296EC
:10155000ED91FC915397808180620CC0D601569624
:10156000ED91FC91579760835096ED91FC915197C6
:1015700080818064808381E090E00F90DF91CF9143
:101580001F910F91FF90DF90CF9008950895E894F8
:1015900009C097FB3EF490958095709561957F4FBB
:1015A0008F4F9F4F9923A9F0F92F96E9BB27939569
:1015B000F695879577956795B795F111F8CFFAF479
:1015C000BB0F11F460FF1BC06F5F7F4F8F4F9F4FAA
:1015D00016C0882311F096E911C0772321F09EE808
:1015E000872F762F05C0662371F096E8862F70E06E
:1015F00060E02AF09A95660F771F881FDAF7880F48
:101600009695879597F9089597F99F6780E870E018
:1016100060E008959FEF80EC089500240A94161668
:10162000170618060906089500240A9412161306D0
:10163000140605060895092E0394000C11F488235E
:1016400052F0BB0F40F4BF2B11F460FF04C06F5F7A
:101650007F4F8F4F9F4F089557FD9058440F551F50
:1016600059F05F3F71F04795880F97FB991F61F024
:101670009F3F79F087950895121613061406551F9B
:10168000F2CF4695F1DF08C0161617061806991F07
:10169000F1CF86957105610508940895E894BB27FC
:1016A00066277727CB0197F908950BD0C4CFB5DF14
:1016B00028F0BADF18F0952309F0A6CFABCF11249C
:1016C000EECFCADFA0F3959FD1F3950F50E0551FE1
:1016D000629FF001729FBB27F00DB11D639FAA2787
:1016E000F00DB11DAA1F649F6627B00DA11D661FD6
:1016F000829F2227B00DA11D621F739FB00DA11DF7
:10170000621F839FA00D611D221F749F3327A00DB0
:10171000611D231F849F600D211D822F762F6A2F4C
:1017200011249F5750408AF0E1F088234AF0EE0FD1
:10173000FF1FBB1F661F771F881F91505040A9F7DE
:101740009E3F510570F060CFAACF5F3FECF3983E0B
:10175000DCF3869577956795B795F795E7959F5F45
:10176000C1F7FE2B880F911D9695879597F90895DF
:10177000EE0FFF1F0590F491E02D0994F894FFCF30
:10178000314E6F646500324E6F64650073656E7331
:101790006F72206661696C00000000000303D602CE
:1017A000AB02B302C602D5020D0A006E616E00697B
:1017B0006E66006F7666002E0000000000610AE78A
:0A17C00007E309FC09EE093F0A00E7
:00000001FF
